:020000040800F2
:1000000000000220052205087D9600087D1C0208DC
:10001000B5220508B5220508B52205080000000034
:10002000000000000000000000000000B5A2000871
:10003000B7A2000800000000B9A200083D0E0108A8
:10004000B5220508B5220508B5220508B522050820
:10005000B5220508B52205080BC600080FC6000822
:10006000B522050813C6000817C60008599B0008EA
:100070006D9B0008819B0008959B0008A99B0008C8
:10008000BD9B0008D19B0008B522050800000000B8
:100090000000000000000000000000001BC6000877
:1000A000919A0008B99A0008E19A00087D9A000820
:1000B000099B00081D9B0008319B0008B52205081C
:1000C000B5220508B5220508B5220508B5220508A0
:1000D000B5220508A9960008B596000800000000A2
:1000E0001FC60008B5220508BBA2000800000000DA
:1000F000000000000000000000000000E59B000878
:1001000000000000B5220508459B0008B52205083F
:1001100000000000000000000000000000000000DF
:10012000F99B00080D9C0008219C0008359C0008E4
:10013000499C0008000000000000000000000000D2
:100140000000000000000000000000000DA30008F7
:100150005D9C0008719C0008859C0008B52205087C
:10016000B5220508B52205080000000000000000C7
:10017000000000000000000000000000000000007F
:1001800000000000B522050800000000000000008B
:08019000B5220508B52205089F
:08019800981D050001000000A4
:1001A00060F90020020100000300140080F9002023
:1001B000010C000000017600A0F9002001140000ED
:1001C00000001E00C0F90020011A000000000D0010
:1001D000E0F90020011B000000000E0000FA0020E2
:1001E000011C000000001E0020FA00200117000082
:1001F00000000C0040FA00200118000000000E0072
:1002000060FA0020012801000000180080FA002098
:100210000120000000004800A0FA00200121000099
:1002200000004900C0FA00200122000000004A003E
:10023000E0FA00200123000000004B0000FB00203A
:100240000124000000004C0020FB002001250000DC
:1002500000004D0040FB00200126000000004E0081
:1002600060FB00200127000000004F0080FB002001
:10027000012F010000002800A0FB0020022901003E
:1002800000012C00C0FB00200132000000003C00F7
:0C029000E0FB0020013500000000200011
:10800000D0E907239A422FBFD01AC0688018C01A3F
:108010007047D0E9092300699A4238BF1218D31A71
:108020000138C01A7047D0E90902131A5842584162
:108030007047036A41690246C85CD16801338B42CC
:1080400028BF002313627047436A8269D154436A90
:1080500002690133934228BF0023426B4362D36815
:1080600043F08003D3607047436B188810F0100012
:108070001EBF1A889B8801207047436B99891A8814
:10808000890610B592B2044607D5900605D5E26A76
:1080900022B39888216B80B29047636B99891A88C4
:1080A000090692B20FD510060DD5D4E909128A42FD
:1080B00022D0A169895C998021690132B2FBF1F07B
:1080C00001FB1022A262998A1A88C90592B204D5CE
:1080D000D20744BF4FF6F7721A8010BD9B88E26941
:1080E0006169DBB28B54E369E2680133B3FBF2F1FF
:1080F00002FB1133E361D0E7DA6822F08002DA6034
:10810000E1E7704710B5436808481A685B79C45CBA
:10811000138C01209BB2A04023EA00031384138C2C
:10812000A140194389B2118410BD00BFC85C050885
:10813000036941681F2B30B54FF0200285BFA3F1C2
:1081400020054C680C68AA4098BF9A4022421FD074
:10815000826900201074D0688468206820F00100D3
:1081600020605068046845790A48A28900EB450000
:1081700092B280881F2B22EA0002A28188BF203B96
:108180004FF020028BBF9A4002FA03F3CA608B6063
:1081900030BD00BFC85C0508F0B5EFF311841023B3
:1081A00083F31288C568AA68136823F0010313607B
:1081B000426816685779114AB38902EB47029BB2AD
:1081C000928823EA02032A69B3811F2A4FF0200311
:1081D0006D6885BF203A93409340EB6098BFAB60D9
:1081E000E3B283F31188C3689B6859601A6842F050
:1081F00001021A6001230374F0BD00BFC85C0508CA
:108200000268137D012B04BF0223137592F82C1012
:108210000CBF4FF400730023012904BF022182F830
:108220002C1092F8441008BF43F48063012904BF66
:10823000022182F8441092F85C1008BF43F40063F6
:1082400001290DD1022182F85C1043F48053426869
:10825000116800224A628A8992B213438B8101E03D
:10826000002BF4D170470E4BDA68D20310D4DA68D1
:10827000D1060FD4DA68D2050ED4DA6812F0E00F16
:108280000CD1DB6813F0020F14BF082009207047DF
:108290000120704706207047022070470720704772
:1082A000003C024007B509238DF80730FFF7DBFFDC
:1082B0008DF807009DF80730012BF7D09DF80700D7
:1082C00003B05DF804FB2DE9F041002201260325EF
:1082D0000B6806FA02FC3CEA030331D10368540040
:1082E00005FA04FE23EA0E0303600B79D0F8008040
:1082F0006FEA0E0703FA04FE013B4EEA080E012B5B
:10830000C0F800E011D883681F4087604B79876808
:10831000A3403B438360436823EA0C0343608B79AB
:10832000476893409BB23B434360C36805FA04F738
:1083300023EA0703C360CB79C768A3403B43C3600C
:108340000132102AC4D1BDE8F081838A028B9BB22E
:1083500043EA024331EA03030CBF012000207047C7
:1083600082B0002301930093012300900193019BAD
:1083700063B1009A21F07F4314320092009A126890
:108380001A4214BF0120002002B07047009A183230
:10839000F3E77047704701207047044BD3E90003AF
:1083A000984288BF03F50063181A704788150020AB
:1083B000054AD2E900318B42FDD0D1180133C3F315
:1083C0000A03087A1360704788150020044BD3F81D
:1083D000080820B1D3F80808431F58425841704795
:1083E00088150020012380F84930704710B5D0F877
:1083F000E83504461B699847032384F812310020AE
:1084000010BD08B590F8123180F81331042380F8BC
:108410001231D0F8E835DB689847002008BD08B570
:10842000D0F8E435DB6903B19847002008BD08B5F2
:10843000D0F8E4351B6A9847002008BD08B5D0F88D
:10844000E4355B6A9847002008BD10B5074C2068EA
:10845000FF2808D00649D1F80C2801F5016100F089
:1084600035F8FF232360002010BD00BF000000206E
:1084700088150020432301480B807047040000202A
:10848000122301480B807047470000200423014855
:108490000B80704759000020704770477047704745
:1084A00070477047044B00200522C3F80828C3F822
:1084B0001808C3F81C08704788150020024B0020DC
:1084C000C3F80808704700BF88150020212838B578
:1084D0000C461BD022282BD0202815D1A1B1072A69
:1084E00012D11A4DD5F81C3813B1096800209847ED
:1084F0002368C5F82038237985F82438637985F80E
:108500002538A37985F82638002038BD0029FBD00E
:10851000072AF9D10D4BD3F820280A6093F82428B4
:108520000A7193F825284A7193F826388B71EBE786
:108530000029E9D0022AE7D1044BD3F81838002BE0
:10854000E2D0098800209847DEE700BF88150020A8
:10855000074AD2F82838D2F82C28934203F1FF3387
:108560008CBF002001209B1A03EBC020704700BF86
:1085700088150020ECE730B50F4CD4E900239A426F
:1085800086BF03F50065AA1A9A1A0A44B2F5006F6D
:1085900010D801440022814203D102B1636000205F
:1085A00030BDE21810F8015B15720133C3F30A0302
:1085B0000122F0E70220F3E788150020704770479A
:1085C000D0ED007AD0ED036A30EE677AE6EE877A76
:1085D000B0EE670AC0ED007A7047D0ED017AF5EE93
:1085E000407AF1EE10FA09D1DFED0F7A60EEA70ABA
:1085F000B7EE007AC7EE207AC0ED017AD0ED017AAD
:1086000080ED021A71EE277AC1EE276AD0ED007A6A
:10861000C0ED036A30EE677AE6EE877AB0EE670A5D
:10862000C0ED007A704700BFDB0FC940D0ED017A82
:10863000D0ED036A30EE670AE6EE807A90ED000A2C
:10864000C0ED017AB0EE677AD0ED027A37EE677A44
:10865000E6EE877AC0ED027A77EEC07AA6EEA70A38
:1086600080ED000A704790ED056AD0ED017AD0EDFB
:10867000006AD0ED025A90ED045A66EE277AB0EE09
:10868000407AE6EE807AD0ED066A80ED057AE5EE76
:10869000A67AD0ED076AD0ED035A80ED066AE5EEC2
:1086A000E67AD0ED085AC0ED086AE5EE657AB0EEDC
:1086B000670AC0ED077A7047D0ED006AD0ED057A01
:1086C000E6EE807AB0EE407AB0EE670AD0ED037A3B
:1086D000D0ED016A67EEC07AE6EE877AD0ED066AE1
:1086E00076EEA77AD0ED026AC0ED057AD0ED047A75
:1086F00067EEC07AE6EE877AC0ED067A70470368C7
:108700005A1C02601970704703690133012B036121
:1087100006D1002380ED010A80ED000A83607047D6
:1087200090ED006A07EE903A70EE466AF8EEE77A4E
:1087300086EEA77A77EE067A90ED027AC0ED017A9E
:1087400030EE670AC0ED007AA6EE807A80ED037AFB
:1087500080ED027A704703685A1C026019707047F6
:10876000007970470079C0F34010704700794009E4
:10877000704790F83020034602F0FF0012B100224B
:1087800083F8302070474FF400638381704710B541
:10879000054A0423002152F8044B844208BF42F8E2
:1087A000041C013BF7D110BDB81D0020012070470B
:1087B000012070472DE9F843604F1546D7F840482F
:1087C000B7F84428B7F84A98C2EB24135200C2EB1A
:1087D000E402B7F94648624303FB03F4B7F94838AB
:1087E00024135C43A41304EBE224B7F94E38C7F812
:1087F0005C480E46A4F5FA3181FB01CE4FEAE378DE
:1088000003FB0EF20CFB0822A3FB0C389044B7F9D3
:108810004C2882FB01021B0A120343EA086342EA66
:10882000105200031B1842EB282202F50042A3FB62
:10883000093809FB02884FEAE8734FEA680253EAF5
:1088400068084FF000006DD0B7F954984FEAE97806
:1088500009FB0EFE0CFB08EEA9FB0C9CE644B7F9E5
:1088600052C88CFB01814FEA414C4FEA484111EB61
:108870000909D7F860184CEAD83C4EEB0C0CC1F54E
:10888000801E0EF00048B7F9501848EA5E0810EB59
:1088900009004FEACE7EBEEB00000CEBC10168EB95
:1088A000010C40F63548A0FB080108FB0C1149F00B
:1088B000C3FAB7F95A384FEA613E4FEA503C4CEAE6
:1088C000C14C03FB0EF24FEAE3790CFB0929A3FB31
:1088D0000C324A4403FB0EFE0CFB02EEA3FB0C3CE5
:1088E000B7F95828E6445B0E43EACE1313EB000CAD
:1088F000804602FB01F34FEAE27941EB6E6EA2FB88
:10890000082809FB00314144D00C40EA41301CEBFF
:108910000000B7F956384EEBE141000A40EA016029
:1089200000EB03100EB1000A306025B104EB8404A3
:10893000803424122C600120BDE8F88388150020C3
:1089400001207047054B0022C3F86428C3F868284B
:10895000C3F86C28C3F870280120704788150020E0
:108960000A4BD3F87428D3F87018521AFA2A9FBF0A
:10897000D3F86428C286D3F86828D3F86C389DBF32
:108980000287438701200020704700BF8815002020
:1089900090F85F3230B53BB990F85D1290F85E32D6
:1089A0000124DAB2914200D830BDB0F8665204FA20
:1089B00003F22A43A0F866220133F2E7437913F069
:1089C00001031FBFD0E90732C0689B1A00F1FF30D6
:1089D00014BF184018467047437913F002031FBFB5
:1089E000D0E9093200699B1A00F1FF3014BF9843A7
:1089F0001846704710B5437913F0010301460DD0B6
:108A0000FFF7DCFF60B10A6A4B69C8689B5C013202
:108A1000B2FBF0F400FB1422DBB20A62184610BD70
:108A20000346FBE743799B070AD5436A8269D15421
:108A3000436A02690133B3FBF2F102FB1133436273
:108A4000704741717047D0E90920131A58425841C4
:108A50007047024BD3F878385B68184788150020B8
:108A6000024BD3F8783808309B68184788150020E7
:108A700001207047012070472DE9F0414769064603
:108A80008846002F59D10368C3F30D0515B3D8F8F4
:108A900000803568FFF706FC092840F08780454CC8
:108AA000236923F440732361236943F40073236132
:108AB000236943F001032361C5F80080FFF7F2FB4F
:108AC0002369092823F0010323616FD1336804333C
:108AD000336032E0384A934229D302F58042934210
:108AE00024D302F5804293422AD3344A934229D9AF
:108AF00002F58032934227D902F50032934225D9FC
:108B000002F50032934223D902F50032934221D973
:108B100002F5003293421FD902F5802293421DD9FB
:108B2000B3F1016F1CD3052008F038FA0825FFF7D0
:108B3000B9FB092816D04FF0FF373846BDE8F08161
:108B40001025F4E71825F2E72025F0E72825EEE7C1
:108B50003025ECE73825EAE74025E8E74825E6E751
:108B60005825E4E7134C236923F4407323612369F8
:108B700043F400732361236923F0F803236123691D
:108B80001D4345F002052561236943F480332361C9
:108B9000FFF788FB236923F0020323612369092877
:108BA00023F0F80323613FF472AFC4E76FF00107CD
:108BB000C3E700BF003C024000400008FFFF000880
:108BC00003682DE9F04104464068134483421AD8F3
:108BD0000D468E1804F10C074FF00008B54202D183
:108BE0006069BDE8F08123695A1C2261234415F8AD
:108BF000011B1973042AF1D139462046FFF73CFFC7
:108C0000C4E90480EAE74FF0FF30EAE72DE9F347D3
:108C1000038A8689B6B205460C461E404FF00049CD
:108C200001F14C0701F1340816B902B0BDE8F08734
:108C3000B6FA86F329FA03F2D24391B2298216409A
:108C40001B3B002C40D0042BEED8DFE803F0393476
:108C50002E280300E368D5F82CA02BB19B681BB12C
:108C60001FFA8AF1201D9847636A33B19B6823B1CC
:108C70001FFA8AF104F11C009847E36B2BB19B6843
:108C80001BB11FFA8AF140469847636D002BCBD089
:108C90009B68002BC8D01FFA8AF1384603E0E368CE
:108CA000696B5B68201D9847BEE7636AA96B5B68C8
:108CB00004F11C00F7E7E36BE96B5B684046F2E701
:108CC000636D296C5B68E8E7042B06D8DFE803F0E6
:108CD0000D0B09070300EB6A0193019BA4E76B6B83
:108CE000FAE7AB6BF8E7EB6BF6E72B6CF4E72DE9F3
:108CF000F0410D4DDFF834802C686B6901271C4072
:108D00000CB9BDE8F081B4FA84F3C3F11F0307FA8C
:108D100003F608EB830324EA0604D3F87C0803680F
:108D200098476E61ECE700BF003C014088150020C9
:108D300090F84820531C0244DBB280F8483082F897
:108D4000341090F849200AB1132B01D948F03BB8F0
:108D50007047002280F8492048F035B870B50F4EB2
:108D600096F8BC38002BFBD104464518AC4201D123
:108D7000002070BDD6F82C3814F8011BF21801330E
:108D8000C3F30A0382F8BD18C6F82C38FFF7E0FBDE
:108D90000028EBD1012008F0ECF8F7E78815002057
:108DA00038B50C461146FFF711FB48B1054D002AB6
:108DB000D5F8743804DD2046FFF7D0FFD5F87438B5
:108DC00038BD00BF88150020F0B590F8CF5590F859
:108DD000CE1590F8D12590F8D03590F8CC7590F854
:108DE000CDC501EB05218DB203EB022390F8D3151D
:108DF00090F8D22585B002EB012207F01F06012171
:108E000092B29BB28E4204468DF808708DF809C06C
:108E1000ADF80A50ADF80C30ADF80E20C0F8402186
:108E200080F8111100F00C81022E00F01D81002E3F
:108E300040F09B81BCF1090F5ED8DFE81CF0B60062
:108E4000F4005D00C8005D0057000A005D00A90045
:108E500076002E0A022EADF806200BD0032E25D068
:108E6000012E49D1D0F8EC351B68A0780DF1060130
:108E7000984709E0D0F8E43580789B6A0DF1060147
:108E800098474670C4F8F005BDF80620002A47D080
:108E9000BDF80E30002B43D09A4228BF1A46ADF8D9
:108EA00006200146204647F093FE39E0E9B2052945
:108EB00022D8DFE801F003070B0F1317D0F8EC35C9
:108EC0005B68D2E7D0F8EC359B68CEE7D0F8EC359C
:108ED000DB68CAE7D0F8EC351B69C6E7D0F8EC359B
:108EE0005B69C2E7D0F8EC359B69BEE71A4303D152
:108EF00090F81231032B03D1204647F0BDFD0FE05F
:108F0000016905F07F0680F814610B6865F30A12A9
:108F10001A430A6047F070FE2EB1022384F8123122
:108F2000002005B0F0BD0123F8E7E9B2904D01291A
:108F300005F83B1CE0D890F81231022B0FD0032B20
:108F4000DAD1C1B9022380F81231D0F8E43580F8C3
:108F500010115B689847204647F04EFEE0E7002975
:108F6000F9D00121032380F8101180F81231204636
:108F700047F044FDEFE790F810110129EBD0D0F84D
:108F8000E4355B68984715F83B1C84F81011EEE750
:108F9000012AB1D190F81231022B04D0032BABD1AE
:108FA00000F588717EE773497CE790F81231023B47
:108FB000012BA1D86E4B002243F8342CD0F8182195
:108FC00012B1022243F8342C6B4902226AE7012DC8
:108FD00008D1C0F81851D4F8E43502A99B6820469E
:108FE0009847B8E7022D9BD1DAB2002A98D10269DE
:108FF0001B0A023B5268032B03D8DFE803F00C0E78
:109000001012012363F30612594B43F8302C01234D
:1090100084F816319FE70223F4E70323F2E70423E1
:10902000F0E70523EEE790F81231023B012B3FF603
:1090300063AF012D7FF474AF0023C0F81831CAE785
:1090400090F81221032A7FF457AFDBB2012B3FF6D1
:1090500053AFD0F8E43502A99B689847BDF80E30AD
:10906000002B7FF45DAF76E707F06007202FD9B2C1
:1090700005D1D0F8E43502A99B68984750E7BCF1C8
:10908000010F31D0BCF1030F1ED0BCF1000F7FF4F3
:1090900047AF90F81221022A5AD0032A7FF42CAF4E
:1090A00013F0800F4FF02802314B59D001F07F01AF
:1090B00002FB010191F81E21002A4FD0012243F842
:1090C0002C2C2E490222EDE690F81231022B3FD0D3
:1090D000032B7FF411AF002D7FF47DAF4A063FF4E0
:1090E0007AAF47F097FC76E790F81221022A2FD04A
:1090F000032A7FF401AF002D7FF412AF11F07F003F
:109100003FF429AF5BB2002B4FF02802B5BF02FB42
:10911000004102FB014101F58E7101F55D710022F4
:10912000DB0F08708A704B7004EB8000C9786BB15C
:109130008269136802396FF3555301298CBFC3F359
:109140000071012161F31C73136044E7426DF0E785
:109150004B063FF4E5AE47F05DFCE1E60022AEE7EA
:1091600002FB010191F87623A6E707F08001F2E700
:1091700080260020482600204C260020542600206F
:1091800010B5044671BB90F81131032B1BD1D0F8F8
:109190009023D0F87C339A4217D9C178012908BFAF
:1091A000D0F88013A2EB030204BFC918C0F88013E3
:1091B000934228BF1346C0F890239BB2D0F8802377
:1091C000002147F0C9FD002010BDD0F8E4351B692F
:1091D00023B190F81221032A00D19847204647F086
:1091E0000BFDF0E7D0F8E4359B69002BEBD090F84D
:1091F0001221032AE7D19847E5E770B50A7812F003
:10920000600406460D462AD0202C2FD1CC884B78FE
:10921000FCB112060CD51F4922461846FFF756F935
:10922000EA881C49304647F0D3FC0024204670BD34
:10923000194A1360194A0323C2F80C4880F8113107
:10924000C0E9E444234602F50162002147F084FDB1
:10925000EBE7022211441846FFF738F9E6E74B78AE
:109260000A2B08D00B2B0BD0062BDFD1304647F052
:1092700003FC0224DAE70A49012247F0A9FCD5E7FA
:109280008B781BB9074B43F8284CCFE747F0F4FB2A
:10929000CCE700BF981D00200000002088150020AA
:1092A000582600208026002010B5282303FB01014A
:1092B000074AB1F88C1304461046FFF75CF92046C4
:1092C000034A4023012147F047FD002010BD00BFA5
:1092D0005C260020002310B519460446402247F0C2
:1092E000D9FB402280212046002347F0D3FB0123F5
:1092F00084F81231D4F8E835A0785B6898470020EC
:1093000010BD38B5402204460223812147F0C2FB3C
:10931000204602234022012147F0BCFB20460323C4
:109320000822822147F0B6FB084B0222002583F871
:109330004B2083F84C50FFF7B5F801212046044A32
:10934000402347F009FD284638BD00BF000000203B
:109350005C26002038B50122044640F20113A0F833
:1093600044310125114647F015FD29462046A4F851
:109370009C53002247F00EFD4FF48173A4F86C312A
:1093800020462A46022147F005FDFFF797F8002006
:1093900038BD38B5244C94F8BC28012A034630D196
:1093A0002248C2691AB984F8BC28002038BD402A76
:1093B000D4F8281818D9403A01F14005C261C4F820
:1093C000285840221A4810FA81F1C3E9541140F29A
:1093D00001100021C3E95621A3F8440103F5A2714D
:1093E000184647F020FCE0E702EB0105C4F82858D6
:1093F0004FF00005C5610ABF022092B284F8BC0894
:10940000E0E7022AD1D1002540F20112C0E954550B
:10941000C0E95655A0F8442100F5A27147F003FCBD
:1094200084F8BC58C1E700BF8815002080260020C2
:10943000451E002038B5284C236A0F2B03F101028A
:1094400002D02262002038BD244A0023236292F811
:10945000BC38002BF6D1D2F82818B1F5006F08BF40
:10946000C2F82838D2F82818D2F82C38994203D1FB
:10947000002382F8BC38E5E78CBFC1F500635B1AB6
:10948000402B1AD9403B01F14005E361012382F8EA
:10949000BC38C2F828584023114A12FA81F140F230
:1094A0000112A0F844210022C0E95411C0E956324B
:1094B00000F5A27147F0B7FBC4E701EB0305C2F862
:1094C00028584FF00005E5610EBF022401249BB22D
:1094D00082F8BC48E0E700BF802600208815002005
:1094E000451E002008B5024845F01DFA014808BD98
:1094F00091EC0508A426002008B5024845F013FAAF
:10950000014808BD9BEC0508A426002008B50248C8
:1095100045F009FA014808BDA0EC0508A426002082
:1095200008B5024845F0FFF9014808BDAAEC050856
:10953000A426002008B5024845F0F5F9014808BD09
:10954000B5EC0508A4260020024BD3F8240107F04F
:109550007DBB00BF8026002010B50D4B0D4CD3F80D
:109560007438D4F828011B1AFA2B06D9042019F0F4
:1095700009FB002084F82C0110BD11B1D4F8303162
:109580000B6012B1D4F8343113600120F4E700BF4E
:10959000881500208026002037B583681C68637911
:1095A000DB0724D5A57994F85C3205F001010D465E
:1095B000FBB1E06B43681A68D36AC3F34E0353628E
:1095C00094F86D32012B07D094F8613223B1B4F8CE
:1095D00068320133A4F8683285F0010145F0C2F920
:1095E0000023A4F866324FF08073C4F85C3203B0F5
:1095F00030BD94F85F320191012B04BF94F85D32C5
:1096000084F85E322046FFF7C3F994F85F3201997F
:1096100053B9012384F85F3285EA0301E06B03B09C
:10962000BDE8304045F09EB9002384F85F32F5E78D
:109630000E49D1F8883043F47003C1F888300C4BE0
:109640001A68002042F001021A6098601A6822F03D
:10965000847222F480321A60064A5A601A6822F430
:1096600080221A60D860044B8B60704700ED00E0E8
:109670000038024010300024000000087047002825
:10968000ACBF00F16040074B4FEA0111ACBF00F5E1
:10969000614000F00F00C9B2B4BF195480F8001344
:1096A000704700BF14ED00E00148FEF7E6BC00BFC4
:1096B000640000200148FEF7E0BC00BFB0020020BB
:1096C000024B586FC0F30070704700BF0038024073
:1096D000064A002352F83310814201D1D8B27047B4
:1096E00001330E2BF6D1FE20704700BFD45C050875
:1096F000704770B5002828D04C684CB9426815688E
:109700005679AB8902229BB2B24023EA0203AB81B5
:109710008A683AB943681D68AB8923F001031B04CA
:109720001B0CAB81816044B14468216864798D89E8
:109730000223A3402B439BB28B8132B143681A684A
:1097400093899BB243F00103938170BD0B4B30B5FD
:109750001A4600241D79854208D1DD68294203D0CC
:10976000142000FB042030BD0029F9D00134092C5D
:1097700003F11403EED10020F5E700BFF804002048
:1097800038B503681B681C68254B03F2AC5393ED96
:10979000007A07EE902AB8EE477AF8EE677A013938
:1097A00087EE270A8DB2DFED1F7A30EE270A49F0E7
:1097B00095F81D4A23880138944280B29BB212D09A
:1097C00002F5806294420ED0B4F1804F0BD0A2F526
:1097D0008032944207D002F58062944203D002F5B1
:1097E0008062944202D123F070039BB20F4A9442EC
:1097F00006D002F5806294421CBF23F440739BB2F2
:109800002380094BE5629C42208503D003F58063E9
:109810009C4201D1002323860123A38238BD00BFCF
:10982000000000200AD7233C000001400010004047
:109830002DE9F0434568A87910F0040300F0020216
:109840000BD0002017468046042406466B79032B74
:1098500049D8DFE803F0094A89C990464FF480707F
:109860001F461C460126F1E72D682B8C23F00103CF
:109870001B041B0C2B84B5F820C0B5F804902B8B6F
:1098800023F073031B041B0C43F0600E2CF0020C3E
:109890006E4B4FEA0C4C4FEA1C4C48EA06069D42C0
:1098A0001FFA89F94CEA060C03D003F580639D4248
:1098B0000AD14FF6F3730CEA03033B4329F44079D2
:1098C00043EA040C40EA0909A5F80490A5F818E059
:1098D0006963A5F820C02B8B23F008031B041B0C25
:1098E00043F008032B83BDE8F0832D682B8C23F015
:1098F00010031B041B0C2B842A8CB5F804E0B5F86C
:1099000018C0524B2CF4E64C22F020024FEA0C4CCB
:1099100012044FEA1C4C120C48EA06069D421FFA3C
:109920008EFE4CF4C04C42EA061203D003F580636D
:109930009D420BD122F0800242EA071222F040023F
:109940002EF4406E42EA04124EEA800EA5F804E0BE
:10995000A5F818C0A9632A842B8B23F400631B0489
:109960001B0C43F40063BDE72D682B8C23F480733C
:109970001B041B0C2B842A8CB5F804E0B5F81CC022
:1099800022F400732CF0730C304A4FEA0C4C1B0489
:109990004FEA1C4C1B0C48EA060695421FFA8EFE45
:1099A0004CF0600C43EA062303D002F58062954236
:1099B0000BD123F4006343EA072323F480632EF4DE
:1099C000405E43EA04234EEA001EA5F804E0A5F831
:1099D0001CC0E9632B84AB8B23F008031B041B0C16
:1099E00043F00803AB837EE72C68238C23F4805379
:1099F0001B041B0C2384258CA288A38B25F4005503
:109A00002D0448EA06062D0C23F4E64345EA063504
:109A10000E4E1B041B0CB44292B243F4C04303D05D
:109A200006F58066B44203D122F4804242EA8012F5
:109A3000A280A38321642584A38B23F400631B04E9
:109A40001B0C43F40063A3834DE700BF00000140FB
:109A500043685A79032A0FD8DFE802F00205080BA1
:109A600018683430704718683830704718683C30D0
:109A7000704718684030704700207047024B034819
:109A8000D3F83811FFF7C2B880260020000001404B
:109A900010B5064C0648D4F83811FFF7B7F8D4F8DB
:109AA00058110448BDE81040FFF7B0B880260020E8
:109AB000000001400040014010B5064C0648D4F8B3
:109AC0003811FFF7A3F8D4F85C110448BDE8104042
:109AD000FFF79CB8802600200000014000440140B0
:109AE00010B5064C0648D4F83811FFF78FF8D4F8B3
:109AF00060110448BDE81040FFF788B880260020B8
:109B00000000014000480140034B4FF08040D3F873
:109B10003C11FFF77BB800BF80260020024B0348B2
:109B2000D3F84011FFF772B88026002000040040EF
:109B3000024B0348D3F84411FFF768B88026002091
:109B400000080040024B0348D3F84811FFF75EB805
:109B500080260020000C00400348D0F8BC3513B12B
:109B600000F5B66018477047000000200348D0F8A1
:109B7000DC3513B100F5BA601847704700000020CB
:109B80000348D0F8FC3513B100F5BE6018477047A4
:109B9000000000200348D0F81C3613B100F5C26065
:109BA00018477047000000200348D0F83C3613B136
:109BB00000F5C66018477047000000200348D0F841
:109BC0005C3613B100F5CA601847704700000020EA
:109BD0000348D0F87C3613B100F5CE6018477047C3
:109BE000000000200348D0F89C3613B100F5D26085
:109BF00018477047000000200348D0F8BC3613B166
:109C000000F5D66018477047000000200348D0F8E0
:109C1000DC3613B100F5DA60184770470000002009
:109C20000348D0F8FC3613B100F5DE6018477047E2
:109C3000000000200348D0F81C3713B100F5E260A3
:109C400018477047000000200348D0F83C3713B194
:109C500000F5E66018477047000000200348D0F880
:109C60005C3713B100F5EA60184770470000002028
:109C70000348D0F87C3713B100F5EE601847704701
:109C8000000000200348D0F89C3713B100F5F260C3
:109C90001847704700000020036823F001030360A9
:109CA0000023036043608360C36003612123436139
:109CB0002A4B984203D13D2243F8082C7047284B89
:109CC000984204D14FF4746243F8202C7047254B1E
:109CD000984204D14FF4741243F8382C7047224B49
:109CE000984204D14FF0746243F8502C70471F4BD8
:109CF000984203D11E4A43F8642C70471D4B98428A
:109D000003D11D4A43F87C2C70471C4B984203D169
:109D10001B4A43F8942C70471A4B984204D14FF0D9
:109D20003D5243F8AC2C17E0174B9842C3D0174B69
:109D30009842C7D0164B9842CCD0164B9842D1D0FF
:109D4000154B9842D6D0154B9842DAD0144B984216
:109D5000DED0144B9842E2D0704700BF1060024042
:109D6000286002404060024058600240706002403B
:109D70003D00002088600240400F0020A0600240AB
:109D800000003D20B8600240106402402864024098
:109D9000406402405864024070640240886402409B
:109DA000A0640240B8640240204A936803F00C03A8
:109DB000042B10B520D0082B20D01D4B1B4C03606A
:109DC000A3681C4AC3F30313134493F8B017036842
:109DD000CB404360A168C1F38221114491F8B017D0
:109DE00023FA01F18160A168C1F342310A4492F87B
:109DF000B027D340C36010BD0F4BDFE753685168F5
:109E000013F4800F01F03F01536814BF0A4A084A57
:109E1000B2FBF1F1054A5268C2F30142C3F3881361
:109E200001324B435200B3FBF2F3C7E70038024064
:109E30000024F4000000002000127A00F0B5446B0A
:109E40008668A38923F400531B041B0CA381827929
:109E5000278A0546BFB2100312F0040F4FEA022111
:109E600000F400506A7927F4405740EA0700208246
:109E700014BF4FF4805C4FF0000C12F0010F0CBFC8
:109E8000002304239207A28922F4B05201F48061D6
:109E900022F00C0248BF43F0080341EA0C0112040F
:109EA0000B43120C1A43A281A38A23F440731B04B0
:109EB0001B0C85B0A3826846FFF776FF214B9C42BE
:109EC00003D003F580639C423AD1039BA2891921F8
:109ED000170401FB03F34FF064014CBF7600B6009A
:109EE000B3FBF6F3B3FBF1F001FB10330201A089E1
:109EF00000044BBFDB001B01323332334BBFB3FBDB
:109F0000F1F3B3FBF1F303F0070303F00F03134383
:109F10009BB223816A6BAB7913F0080F938A0BBF56
:109F200023F008039BB21B0443F0080308BF1B0C7B
:109F3000938293899BB243F40053938105B0F0BDA3
:109F4000029BC3E700100140816077E7417175E72C
:109F5000F0B587B0002300930193744B1A6842F464
:109F600080321A601A6802F400320192009A0132BB
:109F70000092019A1AB9009AB2F5A04FF2D11B686B
:109F800013F4003318BF01230193019B012B40F010
:109F9000B180664B66491A6C42F080521A640A68B6
:109FA00042F440420A609A689A609A689A609A6895
:109FB00042F480529A605F4A5A601A6842F0807296
:109FC0001A601A689201FCD55B4A40F20271116076
:109FD0009A6822F003029A609A6842F002029A603C
:109FE000524A936803F00C03082BFAD19368534C40
:109FF00003F00C03042B7FD0082B7FD0504BC4F808
:10A00000AC354A4B4F4D9A684F48C2F30312224475
:10A01000002692F8C017D4F8AC25CA40C4F8AC2585
:10A020004A4AEA605A6F4A4AAA605A6B22F0800292
:10A030005A635A6F42F080725A67196B454A0A4355
:10A040001A635A6B5A631A6C42F0875242F4F61242
:10A0500042F41F6242F00F021A64596C3E4A0A43EE
:10A060005A6402A948F2FF73CDE902364FF6FF7732
:10A07000FEF729F900F580600297FEF724F900F554
:10A0800080600297FEF71FF900F58060FEF71BF96C
:10A0900000F58060FEF717F90846FFF785FE029B82
:10A0A0002E4AB3FBF2F32E4AC2F87031D5F8FC30D9
:10A0B0002C4A43F08073C5F8FC302B4BC3F8B02F0B
:10A0C0005E601A6842F001021A60D4F8AC354FF4B1
:10A0D0007A72B3FBF2F3013BB3F1807F08D24FF009
:10A0E000E0225361F02385F8233007239661136142
:10A0F00007B0F0BD00BFFDE71C4B80E75368516817
:10A1000013F4800F01F03F01536814BF174A0C4A43
:10A11000B2FBF1F1054A5268C2F30142C3F388135E
:10A1200001324B435200B3FBF2F368E700380240C0
:10A130000070004008304004003C02400000002055
:10A140000024F40000ED00E0000002400003FA05E6
:10A15000000000081F9067003357070040420F00BF
:10A160008026002055CEACC5001000E000127A0019
:10A1700082B000230193054B0193019B03EB800008
:10A180000190019B196002B0704700BF5028004049
:10A19000436D064A1A61C278012A06D100F2CC50FA
:10A1A00058611A684FF080221A60704718000860E2
:10A1B00038B5044600296FD190F81131022B2AD10D
:10A1C000D0F83821D0F824118A4232D9C378012B33
:10A1D00004BFD0F828315B18A2EB010208BFC0F819
:10A1E00028314FF48071D0F82831C0F8382100258B
:10A1F00092B2A0F81C11C0F82C31C0F83451C0F84C
:10A20000302100F58E7146F091FC2B462A462946F6
:10A21000204646F0A1FD94F81631012B07D1244ABF
:10A22000236952F8302C5A60002384F8163100203C
:10A2300038BDD0F83C31B3FBF1F501FB1535A5B9BC
:10A24000994212D8D0F8402193420ED24FF4807335
:10A25000C0E94A55C0E94C55A0F81C3100F58E7193
:10A2600046F064FCC4F84051CFE7D4F8E435DB682D
:10A270002BB194F81221032A01D1204698470523D7
:10A2800084F81131002320461A46194646F064FD31
:10A290002046FFF77DFFBEE7D0F8E4355B69002B71
:10A2A000C5D090F81221032AC1D19847BFE700BF5B
:10A2B0008026002070477047704710B5114C94F805
:10A2C0007E31CBB14FF0E022D2F8103D23F00603EF
:10A2D000C2F8103DFFF7ACF994F87E3163B1D4F8C1
:10A2E00084319B68DB0707D5D4F88022136823F0FC
:10A2F000030161F307031360034B4FF480225A619B
:10A3000010BD00BF80260020003C01402DE9F04F29
:10A31000964CD4F880315A69D0078DB000F1A382F1
:10A320005A699B691340019300F09D82C3F3074370
:10A330000293019B190311D5D4F88431DFF83892C8
:10A340009E69DB6904F5BA7B1E40360C04F5E477A0
:10A350004FF00008DA46002E40F01481029B5A07A5
:10A360000FD5D4F88431824E9F69DB691F40BFB29C
:10A37000A6F118054FF00009A6F5C678002F40F0A9
:10A380004681019B9DF80470980741BF774BD3F835
:10A39000803102225A61019B002B1BDA734D95F824
:10A3A0007E313BB1D5F88022136823F0030161F3BD
:10A3B00007031360D5F884216E48536823F0010326
:10A3C00053606D4BD3F8E8379847D5F880314FF09C
:10A3D00000425A61019B1905C3F3072631D5634D2D
:10A3E00000238DF81F3095F886328DF81F30624BB0
:10A3F00005F5BA70D3F8E4379847D5F88021D5F839
:10A4000084314FF400619B68516195F87E21C2B19F
:10A41000DA0716D595F88932012B12D19DF81F3035
:10A42000032B0ED1D5F880321A6842F001021A606F
:10A430001A6842F003021A60504A136943F0060397
:10A4400013613B070AD5494D4B4B05F5BA70D3F85C
:10A45000DC379847D5F8803108225A61FD0615D5BA
:10A46000424BD3F88001826922F010028261026AB5
:10A47000C2F34341022902F00F0500F0858106294D
:10A4800000F0A981836943F010038361F00635D59C
:10A49000364DD5F884215368002723F0010353601B
:10A4A000384644F005FCB84695F875013B4605F57D
:10A4B000C675FF218342C0F09C81D4F884312D48B9
:10A4C0004FF0FF329A614FF00112DA610B2262F312
:10A4D000070762F307085F61C3F810801A686FF31B
:10A4E0000A121A60FFF754FED4F8803121484FF465
:10A4F00080525A61204BD3F8E0379847B10640F1BB
:10A5000094811A4CD4F88431D4F88C01996802688B
:10A51000C1F34101022906BF032161F30A026FF36F
:10A520000A0202605A6842F480725A6008A8FFF773
:10A530003BFCD4F88011D4F88401CB68099A6FF3FE
:10A540008D23CB6085680E48C5F34105284490F8FB
:10A550007C00032840F05481002284F876214FF4D7
:10A560000072A4F87821092259E100BF802600205A
:10A570000C280020F42700200000002000ED00E05F
:10A58000C85C0508F2073BD55FFA88F104EB81034C
:10A59000D3F8C8319D68D4F884315B691D40EB075E
:10A5A00020D594F877013B680125A8429D6007D12A
:10A5B0001869DBF87C33C0F312001B1ACBF88C331C
:10A5C000D9F8D0375046984794F87731012B09D104
:10A5D000B8F1000F06D194F88532052B02D1504610
:10A5E000FFF7D6FDA80742BF3B6802259D602907FB
:10A5F00006D5D9F8D837504698473B6808229A6064
:10A6000008F10108760804370BF1280BA3E6FB07D5
:10A6100077D5D8F884315FFA89FA1969586B08EB55
:10A620008A0220FA0AFBD2F88C214FEACB1B9268EF
:10A630005FFA8BFB4BEA010B0BEA020B1BF0010FDD
:10A640001ED05A6BA8484FF0010B0BFA09F122EA11
:10A6500001025A633368C3F808B0A44B5146D3F8DB
:10A66000D437984798F877315B4509D1B9F1000F95
:10A6700006D198F88532042B02D19B48FFF788FD5C
:10A680001BF0080F1EBF33684FF0080BC3F808B06B
:10A690001BF0100F1EBF33684FF0100BC3F808B04B
:10A6A0001BF0400F1EBF33684FF0400BC3F808B0DB
:10A6B0001BF0020F1EBF33684FF0020BC3F808B047
:10A6C0001BF0800F1DD0D5E94C329B1AD5F8242100
:10A6D000D6F800E098F877B1DEF81800934228BF6A
:10A6E00013460333D8F8842103920AF1320A9B08F7
:10A6F00008EB8A0A80B2984203D9D5E94C03984204
:10A7000005D809F101097F080436283536E6C01A54
:10A71000D5F82431984228BF1846C31C9B08BBF1CA
:10A72000000F1CD0D5F82811D5F834210144C5F804
:10A730002811D5F8301102448A42DEF81800C5F815
:10A740003421D7D1039A95F81C11526B4FF0010CAC
:10A750000CFA01F122EA010203994A63CAE7D5F82B
:10A760002821049282B2DAF87C11033292108C46CE
:10A7700005925946059A8A42D4D0049A52F821206B
:10A78000CCF800200131F5E747F6F07111423FF4B3
:10A7900079AE282101FB0531C2F30A12D71CD3F888
:10A7A00044E2D1F8F4C4BF1000218F420DD128211A
:10A7B00001FB0533D3F8F4141144C3F8F414D3F8AF
:10A7C00000150A44C3F800255CE6DEF800804CF86A
:10A7D00021800131E9E7D3F844120F68C3F84077CC
:10A7E0000968C3F84417282101FB0533C2F30A1294
:10A7F000E5E755F8042B9160AA6B0133916059E6A7
:10A80000012084F876014020A4F87801A0F56400C6
:10A81000374CA0F562401044A04227D80E2262F3C4
:10A820008D23CB604FF400534B61029BDA060BD5AE
:10A83000304C2E4B04F5BA70D3F8EC379847D4F867
:10A8400080314FF480125A61029B9B060BD5294C34
:10A85000264B04F5BA70D3F8F0379847D4F8803116
:10A860004FF400125A610DB0BDE8F08F224CA2F5F2
:10A870007400A0F51050A04201D80D22CFE71F4868
:10A880001F4C1044A04201D20C22C8E71D4CA2F17B
:10A890008C70A0F54340A04201D80B22BFE71A48B4
:10A8A0001A4C1044A04201D20A22B8E71848194CA9
:10A8B0001044A042FFF457AE174CA2F1B770A0F5B8
:10A8C0005850A04201D20822A9E71448144C104461
:10A8D000A04201D20722A2E712481044124A904235
:10A8E00034BF062205229AE7F4270020000000204A
:10A8F0003F420F0080260020DFC810002013FBFE1F
:10A9000020D61300FF69180000D3CEFE40771B004D
:10A91000C05BB3FEC091210040AC2700C01D6AFEA1
:10A9200040E13300803C36FEE09C41004A090123AF
:10A9300001F01F0103FA01F150F82230194214BF4F
:10A940000120002070474A09012301F01F0103FA8A
:10A9500001F150F822300B4340F8223070474A0989
:10A96000012301F01F0103FA01F150F8223023EA1C
:10A97000010340F82230704730B54D09024400EB26
:10A980008504A2424FF0FF3323D901F01F018B4011
:10A9900050F825100B4093FAA3F3B3FA83F3DBB21C
:10A9A000202B02D003EB451030BD211D91420C46F7
:10A9B00002D34FF0FF30F7E72368043193FAA3F393
:10A9C000B3FA83F3DBB2202BF0D0201A03EBC000E4
:10A9D000EAE71846E8E780EA0120082341F221026D
:10A9E00010F4004F4FEA400018BF5040013B80B2C6
:10A9F000F6D1704738B50C468D18AC4200D138BD41
:10AA000014F8011BFFF7E7FFF7E74840082310F0B1
:10AA1000800F4FEA400018BF80F0D500013BC0B264
:10AA2000F5D1704710B50A440C46944200D110BDD0
:10AA300014F8011BFFF7E9FFF7E738B50A46056888
:10AA400004460020AA4203D36B1C2360287038BD43
:10AA500012F8011BFFF7D9FFF4E7DFED0A7AC0ED2A
:10AA6000020A20EE270AB7EE007AC7EE007A00232A
:10AA70000360C0ED017A70EEA77A80EEA77A80EDD0
:10AA8000037A7047DB0FC94090ED017AD0ED007A70
:10AA9000C0ED020A30EE877AC0EE876A30EE677A40
:10AAA000E6EE877AB0EE670AC0ED007A70470123C0
:10AAB00003700023C36483640365036443644365D4
:10AAC000836283657047DFED157A80ED010AF4EE4D
:10AAD000E70AF1EE10FAC0ED020A80ED031AC0EDAC
:10AAE000051A18DDB4EEE70AF1EE10FA10DD81EE7A
:10AAF000007AC0EE207AF0EE006A77EE877A86EE72
:10AB0000A77A80ED047A80ED0F2AC0ED0E2ACEE7F9
:10AB100000230361F7E700238360FAE7BD3786353A
:10AB2000FDEEC07A17EE903A2033402B43D8DFED8C
:10AB3000237A9FED237AB4EEE70AF1EE10FA28DCCF
:10AB4000DFED207A9FED1E7AB4EEE70AF1EE10FAFF
:10AB500022D4DFED1D7AB4EEE70AF1EE10FA1EDD25
:10AB600030EE670A37EEC00A60EE007ADFED176A52
:10AB70009FED177AA7EEA67ADFED166AE7EE876AF1
:10AB80009FED157AA7EEA67A20EE276AA6EE070AB1
:10AB9000704730EE470ACEE730EE070AD4E79FED64
:10ABA0000F7AB4EEC70AF1EE10FA44BF30EE270A6E
:10ABB00037EE400AD8E79FED0A0A7047DB0F49409D
:10ABC000DB0FC940DB0F49C0DB0FC93F9A7C2E3633
:10ABD000FAAF4FB93587083CA4AA2ABEDB0FC9BF1C
:10ABE00000000000DFED027A30EE270A98E700BF90
:10ABF000DB0FC93F38B51D46304BB3FBF2F399422A
:10AC0000B0EE405AF7EE005A4FF000044FD207EE74
:10AC1000901A9FED2B7ADFED2B6AF8EE677A67EEDC
:10AC2000877A07EE102AB8EE477A27EE267AC5EE25
:10AC3000876A87EEA64AB0EE440AFFF771FFF0EE8E
:10AC4000404AB0EE440AFFF7CDFF35EE055A012D1C
:10AC500084EE854AF0EE407A1CBF35EEE76AF6EEE8
:10AC6000006AB8EE000A34EE257A12BF66EE266A54
:10AC700027EE806AF0EE656A86EE875AC6EE076AAE
:10AC800067EE807A75EEC45AC0ED016AC7EE876A36
:10AC9000C5EE877A80ED005A80ED025AC0ED036A56
:10ACA000C0ED047A846144610462C46138BDC0EDC2
:10ACB000005A44608460C4600461F3E720A1070087
:10ACC000DB0FC940BD3786359FED010A002391E7B0
:10ACD000F304353FB5EE400AF1EE10FA10B5F0EE90
:10ACE000406A04464FF00003084627D007EE902A3A
:10ACF000F8EE670ADFED1A7A60EEA70A4CB9FFF7A3
:10AD0000ACFEFCEEE66ABDE8104016EE903A99B251
:10AD1000DAE7022C13D0032CF3D19FED120A0B605B
:10AD200066EE806AB7EE007AC7EE267A4B608B60DB
:10AD300077EEA07A80EEA77A81ED037A10BD9FEDC1
:10AD40000A7A0B6020EE077AB7EE006AC6EE077A41
:10AD50004B6077EEA07A80EEA77A81ED027AD0E799
:10AD6000BD378635F82F4541D2331C412DE9F041DE
:10AD7000FCEEC07A13460A4617EE901AD0F81480FB
:10AD80008769C669056AB0EE600A89B2FFF732FFCB
:10AD9000C0F814808761C6610562BDE8F081F0EEFD
:10ADA000E06AB0EEC07AF4EEC76AF1EE10FAD4BFF2
:10ADB000B0EE476AB0EE666AB5EE406AF1EE10FAA0
:10ADC000F0EE405A46D0F4EEC76AF1EE10FA54BFE6
:10ADD000B0EE475AB0EE665AC5EE067A9FED1F6A8E
:10ADE0009FED1F5ADFED1F4AA7EE865A9FED1E6AA0
:10ADF000A5EE276A9FED1D5AA6EE275A9FED1C6A05
:10AE0000A5EE276A9FED1B5AE7EE854AB7EE005A7A
:10AE1000A4EEA75AF1EE467A87EE850AF4EEC76AE9
:10AE2000F1EE10FA48BFDFED147AF5EEC00A48BF24
:10AE300037EEC00AF1EE10FA48BFDFED107AF5EEFA
:10AE4000C05A48BF37EEC00AF1EE10FA48BFB1EE63
:10AE5000400A7047DFED0A7AC0E700BF39094E3D6E
:10AE6000E3B59EBE69A2163E88FA16BE45FE7FBFB8
:10AE7000A7DFA8B499FB243FDB0FC93FDB0F494094
:10AE80000000000044F25063984203DDA0F50C403E
:10AE9000A0387047034B9842BCBF00F50C40A0306F
:10AEA000704700BFB0B9FFFF48F69F43984203DDEB
:10AEB000A0F50C40A03870470028BCBF00F50C403E
:10AEC000A030704791ED005A08B5B0EE450AFFF783
:10AED00089FEF0EE405AB0EE450AFFF721FE91EDF3
:10AEE000015AF0EE404AB0EE450AFFF77BFEF0EE65
:10AEF000403AB0EE450AFFF713FE91ED023AB0EE8C
:10AF0000405AB0EE430AFFF76DFEB0EE404AB0EE95
:10AF1000430AFFF705FE25EE806A63EEC07A24EE51
:10AF2000847AC0ED017AF0EE467AE5EE077A25EEF6
:10AF3000843A64EE806AC0ED037AF0EE437AE5EE7F
:10AF4000667AA5EE067AE5EE436A23EE844A64EE5D
:10AF5000E34A65EEA35A80ED004A80ED025AC0ED47
:10AF6000047AC0ED054AC0ED066A80ED077AC0EDAF
:10AF7000085A08BD034600F1400100221A615A61D7
:10AF80009A61DA6110339942F8D1102200214AF017
:10AF9000FEBDD1ED007A90ED066AD0ED095AB8EE0B
:10AFA000E77AD0ED047AE7EE077AB7EE005AC0ED03
:10AFB000047AD1ED017AF8EEE76AD0ED057AE7EE92
:10AFC000267AC0ED057AD1ED027AF8EEE77AA7EE9F
:10AFD000276A80ED066A90ED076A36EE076A80ED13
:10AFE000076A90ED086AA7EE266A80ED086A26EEE9
:10AFF000A66A75EE865AA7EE076AC0ED095AD0ED2B
:10B000000A5AE6EEA75AA7EEA76AC0ED0A5AD0ED93
:10B010000B5A75EEA65AC0ED0B5AD0ED0C5AE7EE5E
:10B02000275AC0ED0C5AD0ED0D5AE6EEA75AC0EDE6
:10B030000D5AD0ED0E5AE7EEA75AC0ED0E5AD0EDDC
:10B040000F5A75EEA75AC0ED0F5AD0ED105A75EE93
:10B05000875AC0ED105AD0ED115A75EEA65AC0EDC0
:10B06000115AD0ED125A75EEA75AC0ED125AD0ED12
:10B07000135A75EE855AC0ED135AD0ED005AE7EE1B
:10B08000065A90ED017AC0ED005AA6EE867A80ED60
:10B09000017A90ED027AA7EE867AD0ED037A80ED00
:10B0A000027A37EE866A80ED036A70472DE9F04335
:10B0B000034685B000F11007054600261C46AC4645
:10B0C00012E0F8EC016A1EED047AD4ED007AE6EEA7
:10B0D000C77AC4ED007A98450EF1100EF1D1043410
:10B0E000BC420CF1040C03D0A7F11008E646F2E7CD
:10B0F00001361C46B646BEF1040F1FD000EB0E1CF5
:10B10000A84604F1100909E0FCEC016A18ED047A84
:10B11000D4ED047AE6EEC77AC4ED047ACC4508F1A2
:10B120001008F1D1D4ED046A93ED007AC6EE877A67
:10B130000EF1010EC4ED047A6446DCE7042E03F13F
:10B14000140305F1040507F11007B7D1002300939C
:10B150000193029303936C460023142752F8045B77
:10B1600044F8045B07FB030C00EB03156E466545D2
:10B170001FD10133042BF1D104AD103100F1400295
:10B1800055F8044D0E4600EB031741F8044D1446E4
:10B19000A742D1ED007A17D152ED016A87EEA67A67
:10B1A000013BA2F1140281ED007AE9D105B0BDE8BE
:10B1B000F083B6EC017A54ED017AF5EC016AE6EE23
:10B1C000C77A44ED017AD2E7F4EC016AB6EC017A71
:10B1D000E6EEC77AC1ED007ADAE79FED0C7A00F16E
:10B1E0000C03F0EC017AF4EE677AF1EE10FA06D770
:10B1F000F0EEE77AF4EE477AF1EE10FA03DC9842CB
:10B20000EFD1012070470020704700BFFFFF7F7F14
:10B210001FB50C46024669461030FFF747FFDDEDCB
:10B22000007AB6EE007A67EE877A2046C4ED007A9F
:10B23000DDED017A67EE877AC4ED017ADDED027A01
:10B2400067EE877AC4ED027AFFF7C7FF04B010BD3E
:10B2500008B546F093FC00EE100AB5EEC00AF1EE18
:10B2600010FA06DB47F05CFDB4EE400AF1EE10FA8E
:10B2700001D79FED010A08BD0000000008B5F7EEF8
:10B28000007A2DED028BF0EEC08A77EEE87AB0EE10
:10B29000408A17EE900A46F049F9FFF7D9FF9FED73
:10B2A0000E7ADFED0E7AE8EE877A9FED0D7AA7EE43
:10B2B000A87ADFED0C7AE7EE287AB5EEC08ABDEC0D
:10B2C000028BF1EE10FA20EE270A44BFDFED067A7A
:10B2D00037EEC00A08BD00BF306E99BC2716983DF6
:10B2E000843459BEA40DC93FDB0F494008B503693A
:10B2F000012BC3BF03F1FF3307EE903AD0ED036A91
:10B300009FED067AC4BFF8EEE77A86EEA77A17EECD
:10B31000100A46F00BF9BDE8084099E7000000006C
:10B3200038B50378012B04462CD103691D4D23B990
:10B33000426812B9D5F874284260D4ED067A77EEE7
:10B34000807A01332361C4ED067A04F11C00FDF715
:10B35000DBF96268D5F874389B1AA268934211D958
:10B36000FFF7C4FFD4ED057AB4EEE70AF1EE10FA68
:10B370000CDD237B3BB9D5F8742862600022236181
:10B38000A261E36238BD03232370FBE7D4ED047AA6
:10B39000D4ED066AF8EE677A022386EEA77A84ED8A
:10B3A000067AF1E78815002038B500F11C02044642
:10B3B00004F16405104650ED017AB1EC010A77EE14
:10B3C000807A40ED017AFDF79FF91830A842F2D15A
:10B3D0002369294D616801332361D5F874385B1AFC
:10B3E000A1688B422CD91046FFF780FFD4ED057A77
:10B3F000B4EEE70AF1EE10FA15DC04F13400FFF7C1
:10B4000075FFD4ED057AB4EEE70AF1EE10FA0ADC26
:10B4100004F14C00FFF76AFFD4ED057AB4EEE70AB9
:10B42000F1EE10FA10DD237B5BB9D5F87428626069
:10B4300000222361A261E36222636364A264E36584
:10B4400038BD03232370FBE7D4ED047AD4ED066AFC
:10B45000F8EE677A022386EEA77AD4ED0C6A84EDC3
:10B46000067A86EEA77AD4ED126A84ED0C7A86EE1F
:10B47000A77A84ED127AE5E78815002060EEA00A2D
:10B4800008B5E0EE000A10EE900A46F04FF8BDE86D
:10B490000840DDE660EEA00A08B5E0EE000AE1EE45
:10B4A000010A10EE900A46F041F8BDE80840CFE6E8
:10B4B0002DE9F74F90469DF83020002A14BF4FF039
:10B4C00030094FF020090D9A1C1E05460F46BABFE1
:10B4D00064420123002312F8011B01B12CB9A246DA
:10B4E00063B100240D9EA41B12E0013CF3E7BD42B2
:10B4F00004D2494628460193C047019BBAF1010A8C
:10B50000F5D2EFE7BD4203D228460193C047019B25
:10B5100006EB040B16F8011B0029F3D133B1544696
:10B52000002C07DCBAF1000FA8BFD344584603B083
:10B53000BDE8F08FBD4202D249462846C047013CD3
:10B54000EEE70FB437B50C4D06ABD5F8F81853F845
:10B55000042BD5F8F408019345F0B7FC0446D5F860
:10B56000240105F0E4FB0028F9D0204603B0BDE833
:10B57000304004B0704700BF802600200EB403B5F1
:10B5800003AB084953F8042BCDE9003001A845F07E
:10B590009CFC019B00221A7002B05DF804EB03B022
:10B5A000704700BF578700080CB430B52C4CD4F856
:10B5B000FC38A5B01BB9D4F80039002B3AD094F868
:10B5C0000439994206D9012303FA00F0D4F8083966
:10B5D00018422FD0234BD3F874184FF47A7304A871
:10B5E000B1FBF3F203FB12131F49FFF7C7FF04ABD4
:10B5F0000344289A1D490393054629AB03A80293E7
:10B6000045F063FC039B591C03910A211970039BAD
:10B610000246591CD4F8FC0803910021197090B11E
:10B6200003681B6A03B19847D4F8FC5804AC14F8BB
:10B63000011B21B925B0BDE8304002B07047284653
:10B6400005F004FBF3E7D4F80039002BF2D0022117
:10B650002A4400910A44FD2004A925F03BFEE9E7B5
:10B660008026002088150020C3EC0508FF8600080E
:10B6700010B54FF4004086B022F06CFF044690B342
:10B680004FF4004123F0C8F802281AD1226848F28A
:10B6900001039A4227D14FF4004042F0B5FD10B3A8
:10B6A0001F4BD3F80C2982421FD0D3F8E8299042CF
:10B6B00030D0D3F8C42A90422FD00022C3F80029FA
:10B6C00011E00023022294F90400CDE901234FF494
:10B6D000612200924FF400411A4623F0EFF8104B1C
:10B6E000C3F8FC0828B906B010BD03F60C12C3F865
:10B6F00000290C4B04930C4B03930C4B02930C4B03
:10B7000001930C4B00930C4A0C4B02210020FFF7D5
:10B710004BFFE8E703F6E812E9E703F6C422E6E7A1
:10B7200080260020CFEC0508D8EC0508E1EC0508E0
:10B73000EDEC050891EC050851F905089BEC0508AE
:10B74000184A38B5D2F8A04B033004EB9003B3F598
:10B75000007F19D802F6A435C2F8A03B124A02EBCA
:10B76000810120F00300D1F8AC22C3F5007310442E
:10B77000C1F8AC020D4A9B000421002005EB8404B3
:10B78000FFF712FF204638BD0021094A0846FFF79F
:10B790000BFF084AD2F8983043F00073C2F8983093
:10B7A0000024EFE78026002078370020F3EC05081E
:10B7B00016ED050808FC00202DE9F0470646006854
:10B7C000FDF786FF0D28054608DD1F4A00210520EC
:10B7D000FFF7EAFE00242046BDE8F0871B4F07EB89
:10B7E00080094FEA8008D9F838A1BAF1000F1CD1BE
:10B7F00007216420FFF7A4FF0446C9F8380128B9DF
:10B800000146134A0520FFF7CFFEE4E764225146C4
:10B810004AF0BDF90F48D9F838312DB200EBC50513
:10B82000C3E90053DB615B63DB6447447179D7F89C
:10B830003841182000FB014300221C46C3E90322C3
:10B840009E601A750434C6E724ED050880260020A2
:10B8500049ED0508D45C050803685A1C026019709C
:10B860000368090A5A1C02601970704703685A1C61
:10B870000260197003685A1C02600A0A1A70036891
:10B880005A1C02600A0C1A700368090E5A1C0260E6
:10B890001970704703685A1C02600A0A1A7003681C
:10B8A0005A1C02601970704738B504460068154686
:10B8B00049F034FF23682B44236038BD03685A1CC9
:10B8C00002601878704703685A1C02601A4612F822
:10B8D000021B0260587841EA0020704710B50268E8
:10B8E0001146531C036011F8024B0160D31C5178C0
:10B8F000036093781B0443EA0123111D0160D07893
:10B90000234343EA006010BDD1E900329A4206D0D9
:10B910005A1C0A6008B11B78037001207047002090
:10B920007047D1E900239B1A012B10B50446084645
:10B9300004DDFFF7C8FF2080012010BD0020FCE7D8
:10B9400030B50A440446914201D1002011E014F8B8
:10B95000013BA3F14100192811F8010BA0F14105A9
:10B9600098BF2033192D98BF20301B1A02D1002810
:10B97000E9D130BD1846FCE76FF00042E0E710B5B2
:10B980000288C378A2F5FA62910840F2B554013BEF
:10B9900004FB013381780C24013902F0030204FB1B
:10B9A00002120D49847901EB42021821B2F88E206F
:10B9B0001344027901FB0322437900893C2101FBF6
:10B9C0000233064A224401FB03224FF47A7300211A
:10B9D000C2FB030110BD00BFC85C050880436D3881
:10B9E0002DE9F04190461F4605464FF47A72002338
:10B9F0004046394646F020FA284B3C21034493FB4D
:10BA0000F1F201FB1233AB7192FBF1F301FB132254
:10BA10006A7140F2B551182293FBF2F402FB143321
:10BA200094FBF1F201FB1244B4F5896F2B714FEADC
:10BA300082032EDA40F2DA2294422CDCB4F5B77F8E
:10BA4000B4BF00210121164A182000FB01220B2659
:10BA500032F81600A04201DD013EF9D103F5FA6388
:10BA60000B442B80731CAB700C2303FB01660D4B46
:10BA700003EB46060134B6F88E30E41AEC704FF44E
:10BA80007A7200234046394646F0D6F92A81BDE84D
:10BA9000F0810321D7E70221D5E700BF80BC92C720
:10BAA000565D0508C85C0508F0B5274D06460F46EB
:10BAB0000FCD8DB06C460FC40FCD0FC495E80F00AD
:10BAC00084E80F0016F003033AD1642196FBF1F2EB
:10BAD00001FB126242B94FF4C87296FBF2F302FB0B
:10BAE0001363003B18BF0123721EC3F11D03002A1C
:10BAF000019340F26D13104606FB03F3B8BFB01C70
:10BB000003EBA0006FF0630392FBF3F318444FF4D0
:10BB1000C87392FBF3F210440630694600240725EF
:10BB2000013F51F8042BA74202EB000393FBF5F011
:10BB3000C0EBC000A3EB000004D1101A0DB0F0BDA3
:10BB40000123D1E70134ECE7B85D0508084BD3E9E0
:10BB5000CC1251EA020309D0064BD3F874385B18B3
:10BB600042F10002C0E90032012070470020704716
:10BB7000783700208815002037B505466846FFF75E
:10BB8000E5FF044638B1DDE900232846FFF728FF2A
:10BB9000204603B030BD40F2011328806B80A8809E
:10BBA000A8712881F4E7F0B50124B0FBF4F58D42CB
:10BBB00003D200261CB91C70F0BD4C43F5E7B0FB66
:10BBC000F4F5B4FBF1F704FB15002EB9002D03DCEE
:10BBD0008C420CD33C46EDE7092D08DD002A14BF4A
:10BBE000372457242C4403F8014B0136F2E7302464
:10BBF000F8E7A0F13003DAB2092A01D818467047F5
:10BC0000A0F16103052B01D857387047A0F141031B
:10BC1000052B94BF37384FF0FF30704770B504469E
:10BC2000944208461546B4FBF2F602D33046FFF7BD
:10BC3000F5FF05FB1644024B1B5D00F8013B70BD90
:10BC400063ED0508B5EEC00ADFED2D7AF1EE10FACE
:10BC5000CCBF30EE270A30EE670ADFED2A7A20EEFD
:10BC6000270A30B5FDEEC07A87B017EE904A054638
:10BC700084EAE470002303A9A0EBE470CDE900336B
:10BC8000029343F005F8002CACBF20232D2303A81A
:10BC90008DF8003045F0DEFA012822D130238DF8EE
:10BCA00001308DF802308DF8033003A9684649F061
:10BCB00076FF684645F0CEFA0338C4B2224669469C
:10BCC000284649F02BFD00232B550F49284649F003
:10BCD00066FF0DEB0401284649F061FF284607B0D6
:10BCE00030BD022805D130238DF801308DF80230A7
:10BCF000DBE7032804BF30238DF80130D5E700BF10
:10BD00006F12033A00007A44ED20060830B502783D
:10BD1000202A034600F10100F9D0092AF7D02D2A84
:10BD20004BD10346BFEE000A9FED3C7A1A46F2EE75
:10BD3000046A134612F8010BA0F13001CCB2092CB1
:10BD400041D92E280BD1F2EE046A1146B0EE666A94
:10BD50000B4611F8012B303AD0B209283CD91A7899
:10BD600002F0DF02452A53D15A782D2A3FD10233FF
:10BD70000120013B00220A2513F8011F3039CCB203
:10BD8000092C3AD9B2F59A7F1346DFED256A28BF10
:10BD90004FF49A731A46F7EE007A072A30D8DA0879
:10BDA0006FF0070101FB0233F2EE046A63BB88B354
:10BDB000C7EE276A20EE260A30BD2B2A08BF0346AD
:10BDC000B7EE000AB0E707EE901AF8EEE77AE7EE72
:10BDD000267AB0EE677AACE707EE902AF8EEE77ABB
:10BDE000C7EEA65A66EE866A37EE257AB0E72B2AAA
:10BDF00014BF013302330020BBE705FB0212BBE78F
:10BE000067EEA67A083AC8E767EEA67A013BCDE767
:10BE1000F7EE007A67EE276ACCE700BF000000006B
:10BE200020BCBE4C70B5034610F8012B202AFAD076
:10BE3000092AF8D02D2A0ABF034601254FF0FF3505
:10BE4000591E00240A2611F8010FFFF7D2FE092817
:10BE500002D905FB04F070BD06FB0404F3E710B53E
:10BE60000023802804D893420AD2C854581C10BD1D
:10BE7000934205D060F07F04CC54C0090133F0E751
:10BE80004FF0FF30F3E770B51249134C134E012207
:10BE90000020FEF7AFFD228862B1A31DB34217D286
:10BEA000A518B54214D2052A12D92146FEF7A2FDE3
:10BEB0002C46F0E721460222FEF79CFD63880849E4
:10BEC000084AC31A641A5842A2F83843584170BD50
:10BED0000020FCE700400008014000080080000846
:10BEE000FC3F0008783700202DE9F04F794BDFF850
:10BEF000F4818FB0A3EB0802CDE901234FF00309D1
:10BF0000102200210AA849F042FE019B0993029BDE
:10BF10000893714BCDF81C801A69002ABFBF6F4A85
:10BF20005A6002F188325A600124F322DA604FF03D
:10BF3000000A7E23224604A907A88DF83440CDF8D4
:10BF400030A08DF81030FCF73BFE504513DA00238B
:10BF5000B9F1010900F0B780002BD1D098F800307A
:10BF60007E2B40F0B380FFF78EFF002800F0AE80FC
:10BF70000FB0BDE8F08F224604A95046FEF73AFD07
:10BF8000574CDFF864B1ADF812005C453CD3002497
:10BF9000022205A907A8ADF81440FCF711FEA04243
:10BFA000D5DBBDF81200022205A9FEF723FD02220F
:10BFB000ADF812000DF1120107A8FCF701FEA04236
:10BFC000C5DB0B9888B1079B089A03449342BED8FF
:10BFD0000AABC0F104022146184449F0D8FD0AA971
:10BFE00007A8FCF749FDCDE90B400C9B002BAEDB0D
:10BFF0009DF8342022B138490A6942F000420A61B2
:10C00000B3FA83F35B09A3E762888DF819A0C2F342
:10C010000B06B31DADF814302388C3F30B011B0BC3
:10C020008DF818301304ADF8161020D4062205A997
:10C0300007A8FCF7C5FD002889DBBDF81200062221
:10C0400005A9FEF7D7FC6168ADF81200324607A8D3
:10C05000FCF7B6FD0028FFF67AAFBDF81200616864
:10C060003246FEF7C7FCADF8120014348DE7002706
:10C070003D460135EDB2062205A907A88DF81950F5
:10C08000FCF79EFD0028FFF662AFBDF81200062205
:10C0900005A9FEF7AFFC6168ADF8120039443246DD
:10C0A00007A80391FCF78CFD0028FFF650AFBDF800
:10C0B000120003993246FEF79DFC032DADF81200E5
:10C0C0003744D6D1D1E7002B7FF448AF052004F0E8
:10C0D00065FF00BF00800008003C02402301674567
:10C0E0008C47060800400008504C0608034AD2F866
:10C0F0003C3323EA0000C2F83C0370477837002045
:10C10000034606490648884201D30020704702884A
:10C11000C2F30B029342F9D01430F4E7504C0608F6
:10C120008C47060813B542880B460446C2F30B023F
:10C1300000211846019249F02AFD216903460A4868
:10C14000814209D30948019A814205D2184602B0BA
:10C15000BDE8104049F0E2BA21B1184602B0BDE88E
:10C160001040084702B010BD504C0608EF500608BA
:10C1700010B4B0F902404288002C0B4641685DF8CB
:10C18000044BBEBFC2F30B02DBB203FB0211C9E7D3
:10C1900030B5094B094CA34200D330BDB3F902209E
:10C1A0005988002A06DA5A68DD68C1F30B0100FBE2
:10C1B00001222A601433EEE78C470608504C06082B
:10C1C00030B502460144002012F8015B082480EAE1
:10C1D000050313F0010F4FEA50001CBF80F08C03E1
:10C1E000D8B2631E13F0FF044FEA5505EFD18A421F
:10C1F000EAD130BD154B03EB800070B5D0F83008A4
:10C2000008B3134D0C2202FB005292F94133591C22
:10C210001AD092F84903B0B1E918642491F87C630C
:10C2200092F848130020142263435C1805EB440481
:10C23000013AB4F88043314410FA84F0F5D1142364
:10C24000B0FBF3F080B270BD0020FCE78815002041
:10C250007837002038B503200D461446FFF7CAFF93
:10C2600007EE900A8DB19FED0B7AF8EE677AF0EE4B
:10C27000006A67EE877AB8EE047AA7EEA67ADFED59
:10C28000067A67EE277AC5ED007A0CB1034B23607E
:10C2900038BD00BF6740533A00007A4433139043DF
:10C2A00010B5427A044632B10146406851F80A3B63
:10C2B00098470023637210BD10B4447A621C044492
:10C2C000D2B24272A172037A934202D85DF8044B53
:10C2D000E6E75DF8044B704710B503681A79022A47
:10C2E000044602D1987A44F0EDF9002323602371CB
:10C2F00010BD73B50279022A39D1032490F91030A8
:10C300008DF803401C4C8DF80220142606FB0343D5
:10C310001A4ED3F8503F00250120B3428DF800504B
:10C320008DF8010025D0164DAB4203D0154883424D
:10C330001DD1104602AA11441A8811F8085C22F097
:10C3400040021204120C14211A8001FB00401A88CA
:10C35000D0F85C1F22F0380231F825101204120CBC
:10C360000A431A801A8892B242F040021A8002B040
:10C3700070BD2846DEE700BF00000020003001400D
:10C3800000380040003C0040C36910B5044623B9A2
:10C3900009211420FFF7D4F9E061E06910BD10B560
:10C3A00004460068FFF7F0FF837853B183885BBAD7
:10C3B000E381C3885BBA238203895BBA638201206D
:10C3C00010BD1846FCE710B500680C46FFF7DCFF0F
:10C3D00083784BB143892222DBBA93FBF2F303F259
:10C3E0006D132380012010BD1846FCE70368DB6B4A
:10C3F00013B504462BB923685B6B3BB9FF23E3827B
:10C4000002E098470028F6D102B010BD214601A8ED
:10C4100098470028F2D0BDF80630013B9BB2EEE70A
:10C4200010B5036804469B68984701236374FF2393
:10C43000A37410BD036810B504461B6898472368B1
:10C4400020469B689847E37C0133E37410BD036882
:10C4500010B504465B689847236820469B68984758
:10C46000E37C013BE37410BDF0B585B0044618468B
:10C470000D461646039344F0EDFE2268E673284409
:10C480000021A07300915769039B3246294620463C
:10C49000B84705B0F0BD30B5046885B0E469089DC3
:10C4A00034B10DB90DF10F050095A04705B030BDB1
:10C4B0002046FBE703685B6A184703689B6A1847D6
:10C4C00010B5037B04460BB1437B13B92046FFF73D
:10C4D000F4FF23682046DB68BDE810401847036876
:10C4E0005B6C03B11847704738B504468B68016030
:10C4F0000D4698470B4B2361002323752B6B13B11B
:10C50000204698472075084B93F8D8351BB1237DFA
:10C5100023F0010323750023E3822046BDE8384061
:10C5200064E700BF0001FF007837002003681B6844
:10C5300003B11847704703685B6803B11847704739
:10C5400003681B6A03B11847704703685B6A03B14D
:10C550001847704730B40468A46A14B1A44630BCCC
:10C56000604730BC704730B40468E46A14B1A44634
:10C5700030BC604730BC704703685B6C03B1184740
:10C58000704703689B6C03B11847704703689B6F43
:10C5900003B1184770470368D3F8803003B11847D8
:10C5A00070470368D3F8843003B1184770470368B5
:10C5B000D3F8883003B11847704721B10B68D3F81E
:10C5C0008C3003B118470020704738B5094B05245B
:10C5D00004FB0030A0F1A00515F8010B013C43F06D
:10C5E00068FF14F0FF04F7D12046BDE8384043F05F
:10C5F00060BF00BFE85D050810B5441E14F8010FC8
:10C6000000B910BDFFF7E1FFF8E7FCF770BBFCF7DE
:10C610006EBBFCF76CBBFCF76ABBFCF768BBFCF7B6
:10C6200066BB30B1036882881B691A4214BF0120BF
:10C630000020704710B1036882881A83704710B5D4
:10C6400004464FF4FA7004F015FC6069BDE8104030
:10C65000F0E773B5104B154690F9102004461420EE
:10C6600000FB0233D3F8506FA3689A0704D46069C3
:10C67000019144F01FF80199304644F00DFC294621
:10C68000304644F009FCA3689B0702D42046FFF71C
:10C69000D6FF012002B070BD00000020F7B515469E
:10C6A0001E4690F91020104B0446142000FB023364
:10C6B000D3F8507FA3689A0704D46069019143F0CE
:10C6C000F9FF0199384644F0E7FB33462A4600213A
:10C6D000384644F091FBA3689B0702D42046FFF73D
:10C6E000AEFF012003B0F0BD00000020F7B51546F5
:10C6F0001E4690F91020104B0446142000FB023314
:10C70000D3F8507FA3689A0704D46069019143F07D
:10C71000D1FF0199384644F0BFFB33460022294639
:10C72000384644F069FBA3689B0702D42046FFF714
:10C7300086FF012003B0F0BD0000002073B5124B4E
:10C74000154690F910200446142000FB0233D3F85C
:10C75000506FA3689A0704D46069019143F0AAFF5F
:10C760000199304644F098FB0123002229463046C7
:10C7700044F042FBA3689B0702D42046FFF75FFF0B
:10C78000012002B070BD00BF0000002010B103689E
:10C7900082885A83704737B50C46054600B3036854
:10C7A000104A03F13F4303F57E0302EB932393F812
:10C7B000C30342F04BFAAB88009304F003038DF8F7
:10C7C0000430C4F381038DF805302868C4F30013E6
:10C7D000694664098DF806308DF80740FBF773FD54
:10C7E00003B030BDC85C0508F7B50C4615460646D3
:10C7F000A8B303681B4A03F13F4303F57E0302EB32
:10C8000093230F2793F8C30342F020FA3068B688C9
:10C810000096B6FA86F3C3F11F0303F00702C3F3D1
:10C82000CC0300EB83039200196A974021EA0701C9
:10C830001962196A95400D431D6204F003038DF8D7
:10C840000430C4F381038DF805306946C4F3001346
:10C8500064098DF806308DF80740FBF734FD03B00E
:10C86000F0BD00BFC85C050838B50409013C032CC5
:10C8700000F00F021AD80E4D05EB4403B3F8CA13AB
:10C8800041FA02F313F001000FD0012303FA02F280
:10C89000013A02EA01002C4445F036FB94F8D23309
:10C8A0001844044B0C2202FB003038BD0020FCE78A
:10C8B000C85C0508543D00202DE9F043654F07EBA7
:10C8C000C00985B005464FEAC00899F8A40FFFF7E4
:10C8D000CBFF064699F8A50FFFF7C6FF044699F867
:10C8E000A60F42F0B3F96B1CDBB21EB140F60B127F
:10C8F000F28033721CB140F60B22E28023720422D4
:10C900003A213046FFF770FF204604223A21FFF714
:10C910006BFF07EB0803D3F8A04F4F4B9C4263D14A
:10C9200003F5F2331A6A42F400121A621A6A22F408
:10C9300000121A62474497F8A73F022B6ED0032BD0
:10C940006ED0464E464A012B08BF1646A78827F0F0
:10C950003F0768463F04FDF727FA3F0C029A414B18
:10C96000B2FBF3F398B20743A780218821F00101BD
:10C970000904090C21803C498E4253D13B4BB2FB48
:10C98000F3F2013092B2042A80B238BF042220842C
:10C99000A28323889BB243F001032380238823F4DE
:10C9A000816323F002031B041B0C43F48063238088
:10C9B0004FF480432381238823F080031B041B0C46
:10C9C000238023889BB243F001032380284B03EB91
:10C9D0004513012283F82928002283F8285883F878
:10C9E0002A2805B0BDE8F083224B9C4209D103F50B
:10C9F000F0331A6A42F480021A621A6A22F4800240
:10CA000097E71D4B9C4295D103F5EE331A6A42F429
:10CA100000021A621A6A22F400028AE7124E95E7AF
:10CA2000124E93E706EB4606B2FBF6F291B2C2F362
:10CA30000B020AB941F0010141F400424FF4967132
:10CA40004B434FF47A71B3FBF1F301339BB2238470
:10CA50009EE700BF0000002000540040801A06003E
:10CA600000350C0040420F00A0860100400D03007D
:10CA70007837002000580040005C00402DE9F04766
:10CA8000BC4E440106EB401904F034FA99F9282809
:10CA9000B94B8846D10003EBC2020746D2F8A05F2B
:10CAA00099F82A28013A142A00F28380DFE812F06C
:10CAB00079008900A200BB00C900D300DF00F800A4
:10CAC00006010F011D0170018F01B9012A023E020A
:10CAD00050025C027002930215005F184FF0090AC1
:10CAE00097F8A40FFFF7C0FE054697F8A50FFFF7CC
:10CAF000BBFEB6F8883801339BB207462846A6F835
:10CB00008838FFF797FD3846FFF794FD1121284636
:10CB1000FFF741FE11213846FFF73DFE4FF0650853
:10CB200003E00520002104F013FA2846FFF779FD01
:10CB300010B9B8F10108F4D12846FFF727FE00210B
:10CB4000052004F005FA2846FFF774FD00210520B2
:10CB500004F0FEF9BAF1010AE0D12846FFF716FE0B
:10CB60000021052004F0F4F93846FFF70FFE0021FC
:10CB7000052004F0EDF92846FFF75CFD00210520B3
:10CB800004F0E6F93846FFF755FD331993F9280804
:10CB9000431C01D0FFF790FE3319002283F82A28A6
:10CBA00007E02B8813F4007340F0ED81321982F80E
:10CBB0002A38331993F82A38002B7FF465AFBDE883
:10CBC000F0872B8823F400631B041B0C2B802B881D
:10CBD0009BB243F480632B802B889BB243F4807319
:10CBE0002B803319032283F82A28644B1A191F510A
:10CBF000C2F8048062492846FBF7A7FB002800F032
:10CC0000C281331993F83A285AB993F83B28FF2A7E
:10CC100004D193F838280AB10A22BFE73319042255
:10CC2000BCE70F22BAE7321992F8393803F0FE0355
:10CC30002B82052382F82A38504B1A191F51C2F84B
:10CC4000048050492846FBF780FB002800F09381C0
:10CC500033190622A2E7331993F83B282A820722C8
:10CC600083F82A28454B1A191F51C2F804804649F7
:10CC70002846FBF76AFB002800F07D813219D2F8C4
:10CC80003C385BB92B889BB243F400732B803B4B41
:10CC900019191F51C1F80480012388E7082386E78A
:10CCA0002B889BB243F480732B803319092283F8BD
:10CCB0002A28324B1A191F51C2F8048030492846DD
:10CCC000FBF743FB002800F05E813319A4E732191B
:10CCD00092F8393843F001032B820B2382F82A386B
:10CCE000264B1A191F51C2F8048028492846FBF721
:10CCF0002CFB002800F03F813219D2F83C38012B80
:10CD00001CD12B8823F480631B041B0C2B80EFF3B6
:10CD10001181102383F312882B8B2B889BB243F451
:10CD200000732B80CBB283F311880C2382F82A384E
:10CD3000124B1A191F51C2F804803AE7022B15D181
:10CD40002B889BB243F400632B80EFF311811023F7
:10CD500083F312882B8B2B8823F480631B041B0C1A
:10CD60002B80CBB283F311880D23DFE72B8B0E23AF
:10CD7000DCE700BF7837002000000020A83F00203B
:10CD80000100030082000700840007000200030086
:10CD900098492846FBF7E4FA974A002800F0A28059
:10CDA0003319D3F84018481CC3F84008288A087083
:10CDB000D3F83C1801391019C3F83C180121175158
:10CDC00083F84418C0F8048083F82A18F1E68B49E8
:10CDD0002846FBF7C5FA884A002800F08380EFF365
:10CDE0001181102383F312882B889BB243F40073C4
:10CDF0002B803319C9B2D3F8400800F1010CC3F8F5
:10CE000040C8B5F810C080F800C081F31188D3F88D
:10CE10004018481CC3F84008288A08706FF00101C8
:10CE2000C9E776492846FBF79BFA734A002859D090
:10CE30003319D3F83C18032930D1298821F48061B3
:10CE40000904090C2980EFF31180102181F3128865
:10CE5000D3F8401801F1010CC3F840C8B5F810C070
:10CE600081F800C0298889B241F400712980C1B2DB
:10CE700081F31188D3F84018481CC3F84008288A69
:10CE80000870D3F83C180239C3F83C180C2183F819
:10CE90002A1813191751C3F804808AE6022914D8F6
:10CEA000298821F480610904090C2980298889B224
:10CEB00041F400712980298A1751002183F8441810
:10CEC0001119C1F80480012268E6D3F84018481C03
:10CED000C3F84008288A0870D3F83C180139C3F811
:10CEE0003C18D6E7131910595968381A42F21073D2
:10CEF00068EB0108984278F10003FFF45AAE331949
:10CF000015224BE62B8823F4806332191B041B0C7B
:10CF10002B8092F8393803F0FE032B82102382F81D
:10CF20002A38354B1A191F51C2F804803449284653
:10CF3000FBF70BFAF8B1331993F83B28FF2A04D119
:10CF400093F838280AB1132228E63319112225E66E
:10CF5000331993F83B282A82122283F82A28264B79
:10CF60001A191F51C2F8048026492846FBF7EDF92B
:10CF700008B13319E7E724492846FBF7F1F910B166
:10CF8000331914220AE61C4B1A1918595168ACE7D8
:10CF900033191949D3F83C2882B1D3F84008013A33
:10CFA00010F801CBA5F810C0C3F83C280A190F519E
:10CFB000C3F84008C2F804801222EFE52A8892B232
:10CFC00042F400722A800A190F51C2F8048001222B
:10CFD00083F84428E2E52B889BB243F400732B804E
:10CFE0004FF6FF33AB82044B1A191F51C2F804806D
:10CFF000331968E740000010A83F0020040000102B
:10D0000082000700840007000004001038B5114CAE
:10D0100004EB401494F82958D5B1C4F83C38049B6B
:10D02000C4F84038002384F844380223490084F8C7
:10D030003B2884F82A3801229DF8143084F83918E6
:10D0400084F83A2884F83838FFF718FD94F84458E3
:10D05000284638BD78370020F7B50779012F1646E6
:10D060000BD0022F16D18468E40758BF41F080012D
:10D0700003B0BDE8F040FFF711BB826802F0010287
:10D08000CDE900620A46417C90F91000FFF7BEFF2F
:10D0900003B0F0BD0020FBE77FB50379012B0D46FF
:10D0A0000BD0022B1AD18368DB0758BF01F07F0138
:10D0B00004B0BDE87040FFF7CCBA81688DF80F204E
:10D0C00001F001010DF10F0200920191417C90F9F4
:10D0D00010002A46FFF79AFF04B070BD0020FBE75E
:10D0E0000068F022FF21D7E7CA4341EA0212006834
:10D0F000D2B2D221D0E70068B422FF21CCE70A46A1
:10D100000068A521C8E75521F9E700689622FF21AC
:10D11000C2E70A4600688721BEE7C90101F0800224
:10D1200000687821B8E708B53122F4210068FFF7DC
:10D13000B3FF012008BD10B5782204460021006825
:10D14000FFF7AAFF052003F014FF20220121206829
:10D15000FFF7A2FF052003F00CFF00220221206848
:10D16000FFF79AFF642003F004FF012010BD10B503
:10D17000072204460A210068FFF78EFF052003F00E
:10D18000F8FE242241212068FFF786FF052003F0E6
:10D19000F0FEC02242212068FFF77EFF052003F049
:10D1A000E8FE012010BD10B50446002221210068D0
:10D1B000FFF772FF2068FC222021FFF76DFF206837
:10D1C00040222421FFF768FF20680C222321FFF76B
:10D1D00063FF206800222221FFF75EFF012010BDBF
:10D1E00010B50122044610210068FFF755FF40B139
:10D1F000142003F0BEFE2068A022BDE810401121DB
:10D200004AE710BD10B5012204460B210068FFF764
:10D2100043FF20B120681D220921FFF73DFF00F0E8
:10D22000010010BD034B0246D3F88C0808B18021E1
:10D2300032E770477837002010B5B020FFF7F2FFD3
:10D240004020FFF7EFFF0020FFF7ECFF1020FFF773
:10D25000E9FF4FF48064013C0020A4B243F029F9B7
:10D26000002CF8D110BD503910B50446C8B2FFF7F4
:10D27000D9FF04EB4400400004EB440400F00E002E
:10D28000FFF7D0FFC4F3C3001030BDE81040C9E77A
:10D2900008B55038C0B2FFF7C5FF0020FFF7C2FF46
:10D2A000BDE808401020BDE7054B93F89728D3F858
:10D2B000900802F0F702002183F89728ECE600BFFF
:10D2C0007837002038B5114C04EB401494F82958F5
:10D2D000CDB1C4F83C38049BC4F84038022349005F
:10D2E00084F83B2884F82A3800229DF8143084F80A
:10D2F000391884F83A2884F8442884F83838FFF735
:10D30000BDFB94F84458284638BD00BF783700204C
:10D31000F7B50779012F16460BD0022F16D1846876
:10D32000E40758BF41F0800103B0BDE8F040FFF7CB
:10D33000DDB9826802F00102CDE900620A46417C53
:10D3400090F91000FFF7BEFF03B0F0BD0020FBE72F
:10D3500070B5066805463046FFF716F80E230446FA
:10D36000021D3B213046FFF7D3FFA07040B1A389D7
:10D370005BBAAB83E3895BBAEB83238A5BBA2B840A
:10D3800070BD2DE9F043C26A6449B1FBF2FE644A04
:10D39000056890F8293089B00446114616464FF0CA
:10D3A000000C012791F80690A3EB0908A3EB0C00F1
:10D3B000B8F1000FB8BFC8F100080028B8BF40425C
:10D3C000804501F1060107F10107BCBF4FFA89FC56
:10D3D0000E46102FE6D11FFA8EFE117861450ED150
:10D3E00070885188AEEB0000AEEB01010028B8BF99
:10D3F00040420029B8BF49428842C8BF1646013F93
:10D4000002F10602E9D172790492327903927288AC
:10D41000029232780321CDE900E20120414AFEF771
:10D42000C3F872883D4BB3FBF2F339466363284679
:10D43000FEF75FFF80226B212846FFF72DFE962026
:10D4400003F097FD032268212846FFF725FE96206A
:10D4500003F08FFD03226B212846FFF71DFE0F20EE
:10D46000002103F075FD10226A212846FFF714FE03
:10D470000F20002103F06CFD3A466C212846FFF78F
:10D480000BFE0F20002103F063FD7279192128465D
:10D49000FFF702FE0F20002103F05AFD18221B2186
:10D4A0002846FFF7F9FD0F20002103F051FD182257
:10D4B0001C212846FFF7F0FD0F20002103F048FD56
:10D4C00032791A212846FFF7E7FD0120002103F0F9
:10D4D0003FFD03212846FEF70CFF2068062306AA1D
:10D4E0004321FFF715FF58B1BDF818305BBAA3838D
:10D4F000BDF81A305BBAE383BDF81C305BBA2384F5
:10D5000094F91E30013306D194F91C30013302D155
:10D51000062003F043FD09B0BDE8F08340420F0050
:10D520009E60050888ED050837B50623F7210068D9
:10D53000174C6A46FFF7ECFE1649F8B19DF801203A
:10D540009DF800309DF80350120142EA03329DF825
:10D55000023042EA13129DF80430C1F860281B0122
:10D5600043EA05339DF80550C4F89C2843EA151397
:10D57000C1F84038C4F8A03803B030BDD4F89C38A6
:10D58000C1F86038D4F8A038C1F84038F4E700BFDB
:10D59000783700208815002013B504460068037909
:10D5A000022B0CBF4321032106236A46FFF7B0FE7E
:10D5B00018B9E086A06302B010BDBDF800305BBAB8
:10D5C000E386BDF802305BBA6387BDF804305BBA0E
:10D5D0002387F0E713B50023C3868363044606233D
:10D5E00000686A460321FFF793FE78B1BDF800306A
:10D5F00003EB4303E386BDF902305B4203EB4303D5
:10D600002387BDF8043003EB4303638702B010BDEA
:10D6100007B5012301AAFF210068FFF779FE03B0D7
:10D620005DF804FBF7B505460068FEF7ADFE002384
:10D630000370042304460DEB03022868FF21FFF763
:10D6400067FE10B9002003B0F0BD286804236A46C5
:10D65000FF21FFF75DFE0028F4D09DF804108A0931
:10D66000023A012AEED99DF800209DF805309DF878
:10D67000015003EB012305EB0225C3F30D03C5F3B2
:10D680000D055A1B002AB8BF5242FF2ADADC9DF86A
:10D6900006109DF807209DF8027002EB01229DF80C
:10D6A000031001EB072149115611C1EB5212002A58
:10D6B000B8BF5242FF2AC5DC01222B44314413413A
:10D6C00011412270C4F80530C4F80110BBE773B5EE
:10D6D0000379012B16460BD0022B16D18368DB078A
:10D6E00058BF41F0800102B0BDE87040FFF726B896
:10D6F000826802F00102CDE900620A46417C90F99D
:10D700001000FFF7DFFD02B070BD0020FBE738B569
:10D710000446154600680A46E121FFF7BDFC28B122
:10D7200020682A46FF21BDE83840D0E738BD0A46C8
:10D73000E121ECE70A46C321E9E738B5021D0D46B1
:10D74000F0210446FFF7E3FF08B123792B7038BDC1
:10D75000F8B504460E461546071D20683A46FF21D7
:10D76000FFF7B5FF30B116B12379DB07F5D40DB162
:10D7700023792B70F8BD00220121E9E710B504469A
:10D78000FFF7B9FC18B12046BDE81040F3E710BD23
:10D7900010B50446FFF7B3FC18B12046BDE81040B1
:10D7A000E9E710BD70B506460C468D18AC4201D1B4
:10D7B000012006E014F8011B3046FFF7E9FF0028BE
:10D7C000F4D170BDCC21E3E738B504460D46FFF730
:10D7D0009CFC40B12046FFF7CEFF20B129462046F1
:10D7E000BDE83840A3E7002038BD70B506460C46BA
:10D7F0008D18AC4201D1012006E021463046FFF7EA
:10D80000E3FF01340028F4D170BD38B50546144655
:10D81000FFF77FFC2846FFF7AEFF20B11CB12B7944
:10D82000C3F34013237038BD10B50446FFF7A6FFBD
:10D8300038B12046FFF7C6FF18B12046BDE81040BA
