:020000040800F2
:1000000000000220952205087D960008111D0208B7
:100010004523050845230508452305080000000081
:1000200000000000000000000000000095A2000891
:1000300097A200080000000099A20008790E0108AC
:1000400045230508452305084523050845230508DC
:100050004523050845230508C3C50008C7C5000892
:1000600045230508CBC50008CFC50008399B00080B
:100070004D9B0008619B0008759B0008899B000848
:100080009D9B0008B19B0008452305080000000067
:10009000000000000000000000000000D3C50008C0
:1000A000719A0008999A0008C19A00085D9A0008A0
:1000B000E99A0008FD9A0008119B000845230508ED
:1000C000452305084523050845230508452305085C
:1000D00045230508A9960008B59600080000000011
:1000E000D7C50008452305089BA2000800000000B2
:1000F000000000000000000000000000C59B000898
:100100000000000045230508259B0008452305083D
:1001100000000000000000000000000000000000DF
:10012000D99B0008ED9B0008019C0008159C000865
:10013000299C0008000000000000000000000000F2
:10014000000000000000000000000000EDA2000818
:100150003D9C0008519C0008659C0008452305084B
:1001600045230508452305080000000000000000A5
:10017000000000000000000000000000000000007F
:1001800000000000452305080000000000000000FA
:0801900045230508452305087D
:08019800281E05000100000013
:1001A00048F90020020800000400140068F900204B
:1001B000010C00000000760088F900200114000006
:1001C00000001E00A8F90020011A000000000D0028
:1001D000C8F90020011B000000000E00E8F9002013
:1001E000011C000000001E0008FA0020011700009A
:1001F00000000C0028FA00200118000000000E008A
:1002000048FA0020012801000000180068FA0020C8
:10021000012000000000480088FA002001210000B1
:1002200000004900A8FA00200122000000004A0056
:10023000C8FA00200123000000004B00E8FA00206B
:100240000124000000004C0008FB002001250000F4
:1002500000004D0028FB00200126000000004E0099
:1002600048FB00200127000000004F0068FB002031
:10027000012F01000000280088FB00200229010056
:1002800000012C00A8FB00200132000000003C000F
:0C029000C8FB0020013500000000200029
:10800000D0E907239A422FBFD01AC0688018C01A3F
:108010007047D0E9092300699A4238BF1218D31A71
:108020000138C01A7047D0E90902131A5842584162
:108030007047036A41690246C85CD16801338B42CC
:1080400028BF002313627047436A8269D154436A90
:1080500002690133934228BF0023426B4362D36815
:1080600043F08003D3607047436B188810F0100012
:108070001EBF1A889B8801207047436B99891A8814
:10808000890610B592B2044607D5900605D5E26A76
:1080900022B39888216B80B29047636B99891A88C4
:1080A000090692B20FD510060DD5D4E909128A42FD
:1080B00022D0A169895C998021690132B2FBF1F07B
:1080C00001FB1022A262998A1A88C90592B204D5CE
:1080D000D20744BF4FF6F7721A8010BD9B88E26941
:1080E0006169DBB28B54E369E2680133B3FBF2F1FF
:1080F00002FB1133E361D0E7DA6822F08002DA6034
:10810000E1E7704710B5436808481A685B79C45CBA
:10811000138C01209BB2A04023EA00031384138C2C
:10812000A140194389B2118410BD00BF585D0508F4
:10813000036941681F2B30B54FF0200285BFA3F1C2
:1081400020054C680C68AA4098BF9A4022421FD074
:10815000826900201074D0688468206820F00100D3
:1081600020605068046845790A48A28900EB450000
:1081700092B280881F2B22EA0002A28188BF203B96
:108180004FF020028BBF9A4002FA03F3CA608B6063
:1081900030BD00BF585D0508F0B5EFF31184102322
:1081A00083F31288C568AA68136823F0010313607B
:1081B000426816685779114AB38902EB47029BB2AD
:1081C000928823EA02032A69B3811F2A4FF0200311
:1081D0006D6885BF203A93409340EB6098BFAB60D9
:1081E000E3B283F31188C3689B6859601A6842F050
:1081F00001021A6001230374F0BD00BF585D050839
:108200000268137D012B04BF0223137592F82C1012
:108210000CBF4FF400730023012904BF022182F830
:108220002C1092F8441008BF43F48063012904BF66
:10823000022182F8441092F85C1008BF43F40063F6
:1082400001290DD1022182F85C1043F48053426869
:10825000116800224A628A8992B213438B8101E03D
:10826000002BF4D170470E4BDA68D20310D4DA68D1
:10827000D1060FD4DA68D2050ED4DA6812F0E00F16
:108280000CD1DB6813F0020F14BF082009207047DF
:108290000120704706207047022070470720704772
:1082A000003C024007B509238DF80730FFF7DBFFDC
:1082B0008DF807009DF80730012BF7D09DF80700D7
:1082C00003B05DF804FB2DE9F041002201260325EF
:1082D0000B6806FA02FC3CEA030331D10368540040
:1082E00005FA04FE23EA0E0303600B79D0F8008040
:1082F0006FEA0E0703FA04FE013B4EEA080E012B5B
:10830000C0F800E011D883681F4087604B79876808
:10831000A3403B438360436823EA0C0343608B79AB
:10832000476893409BB23B434360C36805FA04F738
:1083300023EA0703C360CB79C768A3403B43C3600C
:108340000132102AC4D1BDE8F081838A028B9BB22E
:1083500043EA024331EA03030CBF012000207047C7
:1083600082B0002301930093012300900193019BAD
:1083700063B1009A21F07F4314320092009A126890
:108380001A4214BF0120002002B07047009A183230
:10839000F3E77047704701207047044BD3E90003AF
:1083A000984288BF03F50063181A704770150020C3
:1083B000054AD2E900318B42FDD0D1180133C3F315
:1083C0000A03087A1360704770150020044BD3F835
:1083D000080820B1D3F80808431F58425841704795
:1083E00070150020012380F84930704710B5D0F88F
:1083F000E83504461B699847032384F812310020AE
:1084000010BD08B590F8123180F81331042380F8BC
:108410001231D0F8E835DB689847002008BD08B570
:10842000D0F8E435DB6903B19847002008BD08B5F2
:10843000D0F8E4351B6A9847002008BD08B5D0F88D
:10844000E4355B6A9847002008BD10B5074C2068EA
:10845000FF2808D00649D1F80C2801F5016100F089
:1084600035F8FF232360002010BD00BF000000206E
:1084700070150020432301480B8070470400002042
:10848000122301480B807047470000200423014855
:108490000B80704759000020704770477047704745
:1084A00070477047044B00200522C3F80828C3F822
:1084B0001808C3F81C08704770150020024B0020F4
:1084C000C3F80808704700BF70150020212838B590
:1084D0000C461BD022282BD0202815D1A1B1072A69
:1084E00012D11A4DD5F81C3813B1096800209847ED
:1084F0002368C5F82038237985F82438637985F80E
:108500002538A37985F82638002038BD0029FBD00E
:10851000072AF9D10D4BD3F820280A6093F82428B4
:108520000A7193F825284A7193F826388B71EBE786
:108530000029E9D0022AE7D1044BD3F81838002BE0
:10854000E2D0098800209847DEE700BF70150020C0
:10855000074AD2F82838D2F82C28934203F1FF3387
:108560008CBF002001209B1A03EBC020704700BF86
:1085700070150020ECE730B50F4CD4E900239A4287
:1085800086BF03F50065AA1A9A1A0A44B2F5006F6D
:1085900010D801440022814203D102B1636000205F
:1085A00030BDE21810F8015B15720133C3F30A0302
:1085B0000122F0E70220F3E77015002070477047B2
:1085C000D0ED007AD0ED036A30EE677AE6EE877A76
:1085D000B0EE670AC0ED007A7047D0ED017AF5EE93
:1085E000407AF1EE10FA09D1DFED0F7A60EEA70ABA
:1085F000B7EE007AC7EE207AC0ED017AD0ED017AAD
:1086000080ED021A71EE277AC1EE276AD0ED007A6A
:10861000C0ED036A30EE677AE6EE877AB0EE670A5D
:10862000C0ED007A704700BFDB0FC940D0ED017A82
:10863000D0ED036A30EE670AE6EE807A90ED000A2C
:10864000C0ED017AB0EE677AD0ED027A37EE677A44
:10865000E6EE877AC0ED027A77EEC07AA6EEA70A38
:1086600080ED000A704790ED056AD0ED017AD0EDFB
:10867000006AD0ED025A90ED045A66EE277AB0EE09
:10868000407AE6EE807AD0ED066A80ED057AE5EE76
:10869000A67AD0ED076AD0ED035A80ED066AE5EEC2
:1086A000E67AD0ED085AC0ED086AE5EE657AB0EEDC
:1086B000670AC0ED077A7047D0ED006AD0ED057A01
:1086C000E6EE807AB0EE407AB0EE670AD0ED037A3B
:1086D000D0ED016A67EEC07AE6EE877AD0ED066AE1
:1086E00076EEA77AD0ED026AC0ED057AD0ED047A75
:1086F00067EEC07AE6EE877AC0ED067A70470368C7
:108700005A1C02601970704703690133012B036121
:1087100006D1002380ED010A80ED000A83607047D6
:1087200090ED006A07EE903A70EE466AF8EEE77A4E
:1087300086EEA77A77EE067A90ED027AC0ED017A9E
:1087400030EE670AC0ED007AA6EE807A80ED037AFB
:1087500080ED027A704703685A1C026019707047F6
:10876000007970470079C0F34010704700794009E4
:10877000704790F83020034602F0FF0012B100224B
:1087800083F8302070474FF480538381704710B5D1
:10879000054A0423002152F8044B844208BF42F8E2
:1087A000041C013BF7D110BDA01D00200120704723
:1087B000012070472DE9F843604F1546D7F840482F
:1087C000B7F84428B7F84A98C2EB24135200C2EB1A
:1087D000E402B7F94648624303FB03F4B7F94838AB
:1087E00024135C43A41304EBE224B7F94E38C7F812
:1087F0005C480E46A4F5FA3181FB01CE4FEAE378DE
:1088000003FB0EF20CFB0822A3FB0C389044B7F9D3
:108810004C2882FB01021B0A120343EA086342EA66
:10882000105200031B1842EB282202F50042A3FB62
:10883000093809FB02884FEAE8734FEA680253EAF5
:1088400068084FF000006DD0B7F954984FEAE97806
:1088500009FB0EFE0CFB08EEA9FB0C9CE644B7F9E5
:1088600052C88CFB01814FEA414C4FEA484111EB61
:108870000909D7F860184CEAD83C4EEB0C0CC1F54E
:10888000801E0EF00048B7F9501848EA5E0810EB59
:1088900009004FEACE7EBEEB00000CEBC10168EB95
:1088A000010C40F63548A0FB080108FB0C1149F00B
:1088B0000BFBB7F95A384FEA613E4FEA503C4CEA9D
:1088C000C14C03FB0EF24FEAE3790CFB0929A3FB31
:1088D0000C324A4403FB0EFE0CFB02EEA3FB0C3CE5
:1088E000B7F95828E6445B0E43EACE1313EB000CAD
:1088F000804602FB01F34FEAE27941EB6E6EA2FB88
:10890000082809FB00314144D00C40EA41301CEBFF
:108910000000B7F956384EEBE141000A40EA016029
:1089200000EB03100EB1000A306025B104EB8404A3
:10893000803424122C600120BDE8F88370150020DB
:1089400001207047054B0022C3F86428C3F868284B
:10895000C3F86C28C3F870280120704770150020F8
:108960000A4BD3F87428D3F87018521AFA2A9FBF0A
:10897000D3F86428C286D3F86828D3F86C389DBF32
:108980000287438701200020704700BF7015002038
:1089900090F85F3230B53BB990F85D1290F85E32D6
:1089A0000124DAB2914200D830BDB0F8665204FA20
:1089B00003F22A43A0F866220133F2E7437913F069
:1089C00001031FBFD0E90732C0689B1A00F1FF30D6
:1089D00014BF184018467047437913F002031FBFB5
:1089E000D0E9093200699B1A00F1FF3014BF9843A7
:1089F0001846704710B5437913F0010301460DD0B6
:108A0000FFF7DCFF60B10A6A4B69C8689B5C013202
:108A1000B2FBF0F400FB1422DBB20A62184610BD70
:108A20000346FBE743799B070AD5436A8269D15421
:108A3000436A02690133B3FBF2F102FB1133436273
:108A4000704741717047D0E90920131A58425841C4
:108A50007047024BD3F878385B68184770150020D0
:108A6000024BD3F8783808309B68184770150020FF
:108A700001207047012070472DE9F0414769064603
:108A80008846002F59D10368C3F30D0515B3D8F8F4
:108A900000803568FFF706FC092840F08780454CC8
:108AA000236923F440732361236943F40073236132
:108AB000236943F001032361C5F80080FFF7F2FB4F
:108AC0002369092823F0010323616FD1336804333C
:108AD000336032E0384A934229D302F58042934210
:108AE00024D302F5804293422AD3344A934229D9AF
:108AF00002F58032934227D902F50032934225D9FC
:108B000002F50032934223D902F50032934221D973
:108B100002F5003293421FD902F5802293421DD9FB
:108B2000B3F1016F1CD3052008F056FA0825FFF7B2
:108B3000B9FB092816D04FF0FF373846BDE8F08161
:108B40001025F4E71825F2E72025F0E72825EEE7C1
:108B50003025ECE73825EAE74025E8E74825E6E751
:108B60005825E4E7134C236923F4407323612369F8
:108B700043F400732361236923F0F803236123691D
:108B80001D4345F002052561236943F480332361C9
:108B9000FFF788FB236923F0020323612369092877
:108BA00023F0F80323613FF472AFC4E76FF00107CD
:108BB000C3E700BF003C024000400008FFFF000880
:108BC00003682DE9F04104464068134483421AD8F3
:108BD0000D468E1804F10C074FF00008B54202D183
:108BE0006069BDE8F08123695A1C2261234415F8AD
:108BF000011B1973042AF1D139462046FFF73CFFC7
:108C0000C4E90480EAE74FF0FF30EAE72DE9F347D3
:108C1000038A8689B6B205460C461E404FF00049CD
:108C200001F14C0701F1340816B902B0BDE8F08734
:108C3000B6FA86F329FA03F2D24391B2298216409A
:108C40001B3B002C40D0042BEED8DFE803F0393476
:108C50002E280300E368D5F82CA02BB19B681BB12C
:108C60001FFA8AF1201D9847636A33B19B6823B1CC
:108C70001FFA8AF104F11C009847E36B2BB19B6843
:108C80001BB11FFA8AF140469847636D002BCBD089
:108C90009B68002BC8D01FFA8AF1384603E0E368CE
:108CA000696B5B68201D9847BEE7636AA96B5B68C8
:108CB00004F11C00F7E7E36BE96B5B684046F2E701
:108CC000636D296C5B68E8E7042B06D8DFE803F0E6
:108CD0000D0B09070300EB6A0193019BA4E76B6B83
:108CE000FAE7AB6BF8E7EB6BF6E72B6CF4E72DE9F3
:108CF000F0410D4DDFF834802C686B6901271C4072
:108D00000CB9BDE8F081B4FA84F3C3F11F0307FA8C
:108D100003F608EB830324EA0604D3F87C0803680F
:108D200098476E61ECE700BF003C014070150020E1
:108D300090F84820531C0244DBB280F8483082F897
:108D4000341090F849200AB1132B01D948F087B8A4
:108D50007047002280F8492048F081B870B50F4E66
:108D600096F8BC38002BFBD104464518AC4201D123
:108D7000002070BDD6F82C3814F8011BF21801330E
:108D8000C3F30A0382F8BD18C6F82C38FFF7E0FBDE
:108D90000028EBD1012008F00AF9F7E77015002050
:108DA00038B50C461146FFF711FB48B1054D002AB6
:108DB000D5F8743804DD2046FFF7D0FFD5F87438B5
:108DC00038BD00BF70150020F0B590F8CF5590F871
:108DD000CE1590F8D12590F8D03590F8CC7590F854
:108DE000CDC501EB05218DB203EB022390F8D3151D
:108DF00090F8D22585B002EB012207F01F06012171
:108E000092B29BB28E4204468DF808708DF809C06C
:108E1000ADF80A50ADF80C30ADF80E20C0F8402186
:108E200080F8111100F00C81022E00F01D81002E3F
:108E300040F09B81BCF1090F5ED8DFE81CF0B60062
:108E4000F4005D00C8005D0057000A005D00A90045
:108E500076002E0A022EADF806200BD0032E25D068
:108E6000012E49D1D0F8EC351B68A0780DF1060130
:108E7000984709E0D0F8E43580789B6A0DF1060147
:108E800098474670C4F8F005BDF80620002A47D080
:108E9000BDF80E30002B43D09A4228BF1A46ADF8D9
:108EA00006200146204647F0DFFE39E0E9B20529F9
:108EB00022D8DFE801F003070B0F1317D0F8EC35C9
:108EC0005B68D2E7D0F8EC359B68CEE7D0F8EC359C
:108ED000DB68CAE7D0F8EC351B69C6E7D0F8EC359B
:108EE0005B69C2E7D0F8EC359B69BEE71A4303D152
:108EF00090F81231032B03D1204647F009FE0FE012
:108F0000016905F07F0680F814610B6865F30A12A9
:108F10001A430A6047F0BCFE2EB1022384F81231D6
:108F2000002005B0F0BD0123F8E7E9B2904D01291A
:108F300005F83B1CE0D890F81231022B0FD0032B20
:108F4000DAD1C1B9022380F81231D0F8E43580F8C3
:108F500010115B689847204647F09AFEE0E7002929
:108F6000F9D00121032380F8101180F81231204636
:108F700047F090FDEFE790F810110129EBD0D0F801
:108F8000E4355B68984715F83B1C84F81011EEE750
:108F9000012AB1D190F81231022B04D0032BABD1AE
:108FA00000F588717EE773497CE790F81231023B47
:108FB000012BA1D86E4B002243F8342CD0F8182195
:108FC00012B1022243F8342C6B4902226AE7012DC8
:108FD00008D1C0F81851D4F8E43502A99B6820469E
:108FE0009847B8E7022D9BD1DAB2002A98D10269DE
:108FF0001B0A023B5268032B03D8DFE803F00C0E78
:109000001012012363F30612594B43F8302C01234D
:1090100084F816319FE70223F4E70323F2E70423E1
:10902000F0E70523EEE790F81231023B012B3FF603
:1090300063AF012D7FF474AF0023C0F81831CAE785
:1090400090F81221032A7FF457AFDBB2012B3FF6D1
:1090500053AFD0F8E43502A99B689847BDF80E30AD
:10906000002B7FF45DAF76E707F06007202FD9B2C1
:1090700005D1D0F8E43502A99B68984750E7BCF1C8
:10908000010F31D0BCF1030F1ED0BCF1000F7FF4F3
:1090900047AF90F81221022A5AD0032A7FF42CAF4E
:1090A00013F0800F4FF02802314B59D001F07F01AF
:1090B00002FB010191F81E21002A4FD0012243F842
:1090C0002C2C2E490222EDE690F81231022B3FD0D3
:1090D000032B7FF411AF002D7FF47DAF4A063FF4E0
:1090E0007AAF47F0E3FC76E790F81221022A2FD0FE
:1090F000032A7FF401AF002D7FF412AF11F07F003F
:109100003FF429AF5BB2002B4FF02802B5BF02FB42
:10911000004102FB014101F58E7101F55D710022F4
:10912000DB0F08708A704B7004EB8000C9786BB15C
:109130008269136802396FF3555301298CBFC3F359
:109140000071012161F31C73136044E7426DF0E785
:109150004B063FF4E5AE47F0A9FCE1E60022AEE79E
:1091600002FB010191F87623A6E707F08001F2E700
:109170006826002030260020342600203C260020CF
:1091800010B5044671BB90F81131032B1BD1D0F8F8
:109190009023D0F87C339A4217D9C178012908BFAF
:1091A000D0F88013A2EB030204BFC918C0F88013E3
:1091B000934228BF1346C0F890239BB2D0F8802377
:1091C000002147F015FE002010BDD0F8E4351B69E2
:1091D00023B190F81221032A00D19847204647F086
:1091E00057FDF0E7D0F8E4359B69002BEBD090F801
:1091F0001221032AE7D19847E5E770B50A7812F003
:10920000600406460D462AD0202C2FD1CC884B78FE
:10921000FCB112060CD51F4922461846FFF756F935
:10922000EA881C49304647F01FFD0024204670BDE7
:10923000194A1360194A0323C2F80C4880F8113107
:10924000C0E9E444234602F50162002147F0D0FD65
:10925000EBE7022211441846FFF738F9E6E74B78AE
:109260000A2B08D00B2B0BD0062BDFD1304647F052
:109270004FFC0224DAE70A49012247F0F5FCD5E762
:109280008B781BB9074B43F8284CCFE747F040FCDD
:10929000CCE700BF801D00200000002070150020DA
:1092A000402600206826002010B5282303FB01017A
:1092B000074AB1F88C1304461046FFF75CF92046C4
:1092C000034A4023012147F093FD002010BD00BF59
:1092D00044260020002310B519460446402247F0DA
:1092E00025FC402280212046002347F01FFC01235B
:1092F00084F81231D4F8E835A0785B6898470020EC
:1093000010BD38B5402204460223812147F00EFCEF
:10931000204602234022012147F008FC2046032377
:109320000822822147F002FC084B0222002583F824
:109330004B2083F84C50FFF7B5F801212046044A32
:10934000402347F055FD284638BD00BF00000020EF
:109350004426002038B50122044640F20113A0F84B
:1093600044310125114647F061FD29462046A4F805
:109370009C53002247F05AFD4FF48173A4F86C31DE
:1093800020462A46022147F051FDFFF797F80020BA
:1093900038BD38B5244C94F8BC28012A034630D196
:1093A0002248C2691AB984F8BC28002038BD402A76
:1093B000D4F8281818D9403A01F14005C261C4F820
:1093C000285840221A4810FA81F1C3E9541140F29A
:1093D00001100021C3E95621A3F8440103F5A2714D
:1093E000184647F06CFCE0E702EB0105C4F828588A
:1093F0004FF00005C5610ABF022092B284F8BC0894
:10940000E0E7022AD1D1002540F20112C0E954550B
:10941000C0E95655A0F8442100F5A27147F04FFC71
:1094200084F8BC58C1E700BF7015002068260020F2
:109430002D1E002038B5284C236A0F2B03F10102A2
:1094400002D02262002038BD244A0023236292F811
:10945000BC38002BF6D1D2F82818B1F5006F08BF40
:10946000C2F82838D2F82818D2F82C38994203D1FB
:10947000002382F8BC38E5E78CBFC1F500635B1AB6
:10948000402B1AD9403B01F14005E361012382F8EA
:10949000BC38C2F828584023114A12FA81F140F230
:1094A0000112A0F844210022C0E95411C0E956324B
:1094B00000F5A27147F003FCC4E701EB0305C2F815
:1094C00028584FF00005E5610EBF022401249BB22D
:1094D00082F8BC48E0E700BF682600207015002035
:1094E0002D1E002008B5024845F069FA014808BD64
:1094F0003DEE05088C26002008B5024845F05FFACD
:10950000014808BD48EE05088C26002008B5024831
:1095100045F055FA014808BD4DEE05088C2600209F
:1095200008B5024845F04BFA014808BD57EE05085A
:109530008C26002008B5024845F041FA014808BDD4
:1095400062EE05088C260020024BD3F8240107F0B8
:109550009BBB00BF6826002010B50D4B0D4CD3F807
:109560007438D4F828011B1AFA2B06D9042019F0F4
:1095700053FB002084F82C0110BD11B1D4F8303118
:109580000B6012B1D4F8343113600120F4E700BF4E
:10959000701500206826002037B583681C68637941
:1095A000DB0724D5A57994F85C3205F001010D465E
:1095B000FBB1E06B43681A68D36AC3F34E0353628E
:1095C00094F86D32012B07D094F8613223B1B4F8CE
:1095D00068320133A4F8683285F0010145F00EFAD3
:1095E0000023A4F866324FF08073C4F85C3203B0F5
:1095F00030BD94F85F320191012B04BF94F85D32C5
:1096000084F85E322046FFF7C3F994F85F3201997F
:1096100053B9012384F85F3285EA0301E06B03B09C
:10962000BDE8304045F0EAB9002384F85F32F5E741
:109630000E49D1F8883043F47003C1F888300C4BE0
:109640001A68002042F001021A6098601A6822F03D
:10965000847222F480321A60064A5A601A6822F430
:1096600080221A60D860044B8B60704700ED00E0E8
:109670000038024010300024000000087047002825
:10968000ACBF00F16040074B4FEA0111ACBF00F5E1
:10969000614000F00F00C9B2B4BF195480F8001344
:1096A000704700BF14ED00E00148FEF7E6BC00BFC4
:1096B000640000200148FEF7E0BC00BFB0020020BB
:1096C000024B586FC0F30070704700BF0038024073
:1096D000704770B5002828D04C684CB942681568AE
:1096E0005679AB8902229BB2B24023EA0203AB81D6
:1096F0008A683AB943681D68AB8923F001031B04EB
:109700001B0CAB81816044B14468216864798D8908
:109710000223A3402B439BB28B8132B143681A686A
:1097200093899BB243F00103938170BD0B4B30B51D
:109730001A4600241D79854208D1DD68294203D0EC
:10974000142000FB042030BD0029F9D00134082C7E
:1097500003F11403EED10020F5E700BFF804002068
:1097600038B503681B681C68254B03F5B36393ED9C
:10977000007A07EE902AB8EE477AF8EE677A013958
:1097800087EE270A8DB2DFED1F7A30EE270A49F007
:10979000EBF81D4A23880138944280B29BB212D064
:1097A00002F5806294420ED0B4F1804F0BD0A2F546
:1097B0008032944207D002F58062944203D002F5D1
:1097C0008062944202D123F070039BB20F4A94420C
:1097D00006D002F5806294421CBF23F440739BB212
:1097E0002380094BE5629C42208503D003F580630A
:1097F0009C4201D1002323860123A38238BD00BFF0
:10980000000000200AD7233C000001400010004067
:109810002DE9F0434568A87910F0040300F0020236
:109820000BD0002017468046042406466B79032B94
:1098300049D8DFE803F0094A89C990464FF480709F
:109840001F461C460126F1E72D682B8C23F00103EF
:109850001B041B0C2B84B5F820C0B5F804902B8B8F
:1098600023F073031B041B0C43F0600E2CF0020C5E
:109870006E4B4FEA0C4C4FEA1C4C48EA06069D42E0
:109880001FFA89F94CEA060C03D003F580639D4268
:109890000AD14FF6F3730CEA03033B4329F44079F2
:1098A00043EA040C40EA0909A5F80490A5F818E079
:1098B0006963A5F820C02B8B23F008031B041B0C45
:1098C00043F008032B83BDE8F0832D682B8C23F035
:1098D00010031B041B0C2B842A8CB5F804E0B5F88C
:1098E00018C0524B2CF4E64C22F020024FEA0C4CEC
:1098F00012044FEA1C4C120C48EA06069D421FFA5D
:109900008EFE4CF4C04C42EA061203D003F580638D
:109910009D420BD122F0800242EA071222F040025F
:109920002EF4406E42EA04124EEA800EA5F804E0DE
:10993000A5F818C0A9632A842B8B23F400631B04A9
:109940001B0C43F40063BDE72D682B8C23F480735C
:109950001B041B0C2B842A8CB5F804E0B5F81CC042
:1099600022F400732CF0730C304A4FEA0C4C1B04A9
:109970004FEA1C4C1B0C48EA060695421FFA8EFE65
:109980004CF0600C43EA062303D002F58062954256
:109990000BD123F4006343EA072323F480632EF4FE
:1099A000405E43EA04234EEA001EA5F804E0A5F851
:1099B0001CC0E9632B84AB8B23F008031B041B0C36
:1099C00043F00803AB837EE72C68238C23F4805399
:1099D0001B041B0C2384258CA288A38B25F4005523
:1099E0002D0448EA06062D0C23F4E64345EA063525
:1099F0000E4E1B041B0CB44292B243F4C04303D07E
:109A000006F58066B44203D122F4804242EA801215
:109A1000A280A38321642584A38B23F400631B0409
:109A20001B0C43F40063A3834DE700BF000001401B
:109A300043685A79032A0FD8DFE802F00205080BC1
:109A400018683430704718683830704718683C30F0
:109A5000704718684030704700207047024B034839
:109A6000D3F83811FFF7D2B8682600200000014073
:109A700010B5064C0648D4F83811FFF7C7F8D4F8EB
:109A800058110448BDE81040FFF7C0B86826002010
:109A9000000001400040014010B5064C0648D4F8D3
:109AA0003811FFF7B3F8D4F85C110448BDE8104052
:109AB000FFF7ACB8682600200000014000440140D8
:109AC00010B5064C0648D4F83811FFF79FF8D4F8C3
:109AD00060110448BDE81040FFF798B868260020E0
:109AE0000000014000480140034B4FF08040D3F894
:109AF0003C11FFF78BB800BF68260020024B0348DB
:109B0000D3F84011FFF782B8682600200004004017
:109B1000024B0348D3F84411FFF778B868260020B9
:109B200000080040024B0348D3F84811FFF76EB815
:109B300068260020000C00400348D0F8A83513B177
:109B400000F29C5018477047000000200348D0F8EE
:109B5000C83513B100F2BC50184770470000002010
:109B60000348D0F8E83513B100F2DC5018477047CD
:109B7000000000200348D0F8083613B100F2FC5072
:109B800018477047000000200348D0F8283613B16A
:109B900000F21C6018477047000000200348D0F80E
:109BA000483613B100F23C601847704700000020AF
:109BB0000348D0F8683613B100F25C60184770476C
:109BC000000000200348D0F8883613B100F27C6012
:109BD00018477047000000200348D0F8A83613B19A
:109BE00000F29C6018477047000000200348D0F83E
:109BF000C83613B100F2BC6018477047000000205F
:109C00000348D0F8E83613B100F2DC60184770471B
:109C1000000000200348D0F8083713B100F2FC60C0
:109C200018477047000000200348D0F8283713B1C8
:109C300000F21C7018477047000000200348D0F85D
:109C4000483713B100F23C701847704700000020FD
:109C50000348D0F8683713B100F25C7018477047BA
:109C6000000000200348D0F8883713B100F27C7060
:109C70001847704700000020036823F001030360C9
:109C80000023036043608360C36003612123436159
:109C90002A4B984203D13D2243F8082C7047284BA9
:109CA000984204D14FF4746243F8202C7047254B3E
:109CB000984204D14FF4741243F8382C7047224B69
:109CC000984204D14FF0746243F8502C70471F4BF8
:109CD000984203D11E4A43F8642C70471D4B9842AA
:109CE00003D11D4A43F87C2C70471C4B984203D18A
:109CF0001B4A43F8942C70471A4B984204D14FF0FA
:109D00003D5243F8AC2C17E0174B9842C3D0174B89
:109D10009842C7D0164B9842CCD0164B9842D1D01F
:109D2000154B9842D6D0154B9842DAD0144B984236
:109D3000DED0144B9842E2D0704700BF1060024062
:109D4000286002404060024058600240706002405B
:109D50003D00002088600240400F0020A0600240CB
:109D600000003D20B86002401064024028640240B8
:109D700040640240586402407064024088640240BB
:109D8000A0640240B8640240204A936803F00C03C8
:109D9000042B10B520D0082B20D01D4B1B4C03608A
:109DA000A3681C4AC3F30313134493F89C17036876
:109DB000CB404360A168C1F38221114491F89C1704
:109DC00023FA01F18160A168C1F342310A4492F89B
:109DD0009C27D340C36010BD0F4BDFE75368516829
:109DE00013F4800F01F03F01536814BF0A4A084A78
:109DF000B2FBF1F1054A5268C2F30142C3F3881382
:109E000001324B435200B3FBF2F3C7E70038024084
:109E10000024F4000000002000127A00F0B5446B2A
:109E20008668A38923F400531B041B0CA381827949
:109E3000278A0546BFB2100312F0040F4FEA022131
:109E400000F400506A7927F4405740EA0700208266
:109E500014BF4FF4805C4FF0000C12F0010F0CBFE8
:109E6000002304239207A28922F4B05201F48061F6
:109E700022F00C0248BF43F0080341EA0C0112042F
:109E80000B43120C1A43A281A38A23F440731B04D0
:109E90001B0C85B0A3826846FFF776FF214B9C42DE
:109EA00003D003F580639C423AD1039BA289192118
:109EB000170401FB03F34FF064014CBF7600B600BA
:109EC000B3FBF6F3B3FBF1F001FB10330201A08901
:109ED00000044BBFDB001B01323332334BBFB3FBFB
:109EE000F1F3B3FBF1F303F0070303F00F031343A4
:109EF0009BB223816A6BAB7913F0080F938A0BBF77
:109F000023F008039BB21B0443F0080308BF1B0C9B
:109F1000938293899BB243F40053938105B0F0BDC3
:109F2000029BC3E700100140816077E7417175E74C
:109F3000F0B587B0002300930193744B1A6842F484
:109F400080321A601A6802F400320192009A0132DB
:109F50000092019A1AB9009AB2F5A04FF2D11B688B
:109F600013F4003318BF01230193019B012B40F030
:109F7000B180664B66491A6C42F080521A640A68D6
:109F800042F440420A609A689A609A689A609A68B5
:109F900042F480529A605F4A5A601A6842F08072B6
:109FA0001A601A689201FCD55B4A40F20271116096
:109FB0009A6822F003029A609A6842F002029A605C
:109FC000524A936803F00C03082BFAD19368534C60
:109FD00003F00C03042B7FD0082B7FD0504BC4F828
:109FE00098354A4B4F4D9A684F48C2F303122244AA
:109FF000002692F8AC17D4F89825CA40C4F89825E2
:10A000004A4AEA605A6F4A4AAA605A6B22F08002B2
:10A010005A635A6F42F080725A67196B454A0A4375
:10A020001A635A6B5A631A6C42F0875242F4F61262
:10A0300042F41F6242F00F021A64596C3E4A0A430E
:10A040005A6402A948F2FF73CDE902364FF6FF7752
:10A05000FEF739F900F580600297FEF734F900F554
:10A0600080600297FEF72FF900F58060FEF72BF96C
:10A0700000F58060FEF727F90846FFF785FE029B92
:10A080002E4AB3FBF2F32E4AC2F87031D5F8FC30F9
:10A090002C4A43F08073C5F8FC302B4BC3F8B02F2B
:10A0A0005E601A6842F001021A60D4F898354FF4E5
:10A0B0007A72B3FBF2F3013BB3F1807F08D24FF029
:10A0C000E0225361F02385F8233007239661136162
:10A0D00007B0F0BD00BFFDE71C4B80E75368516837
:10A0E00013F4800F01F03F01536814BF174A0C4A64
:10A0F000B2FBF1F1054A5268C2F30142C3F388137F
:10A1000001324B435200B3FBF2F368E700380240E0
:10A110000070004008304004003C02400000002075
:10A120000024F40000ED00E0000002400003FA0506
:10A13000000000081F9067003357070040420F00DF
:10A140006826002055CEACC5001000E000127A0051
:10A1500082B000230193054B0193019B03EB800028
:10A160000190019B196002B0704700BF5028004069
:10A17000436D064A1A61C278012A06D100F2CC501A
:10A1800058611A684FF080221A6070471800086002
:10A1900038B5044600296FD190F81131022B2AD12D
:10A1A000D0F83821D0F824118A4232D9C378012B53
:10A1B00004BFD0F828315B18A2EB010208BFC0F839
:10A1C00028314FF48071D0F82831C0F838210025AB
:10A1D00092B2A0F81C11C0F82C31C0F83451C0F86C
:10A1E000302100F58E7146F0EDFC2B462A462946BB
:10A1F000204646F0FDFD94F81631012B07D1244A84
:10A20000236952F8302C5A60002384F8163100205C
:10A2100038BDD0F83C31B3FBF1F501FB1535A5B9DC
:10A22000994212D8D0F8402193420ED24FF4807355
:10A23000C0E94A55C0E94C55A0F81C3100F58E71B3
:10A2400046F0C0FCC4F84051CFE7D4F8E435DB68F1
:10A250002BB194F81221032A01D1204698470523F7
:10A2600084F81131002320461A46194646F0C0FDF5
:10A270002046FFF77DFFBEE7D0F8E4355B69002B91
:10A28000C5D090F81221032AC1D19847BFE700BF7B
:10A290006826002070477047704710B5114C94F83D
:10A2A0007E31CBB14FF0E022D2F8103D23F006030F
:10A2B000C2F8103DFFF7BCF994F87E3163B1D4F8D1
:10A2C00084319B68DB0707D5D4F88022136823F01C
:10A2D000030161F307031360034B4FF480225A61BB
:10A2E00010BD00BF68260020003C01402DE9F04F62
:10A2F000954CD4F880315A69D0078DB000F1A18215
:10A300005A699B691340019300F09B82C3F3074392
:10A310000293019B190311D5D4F88431DFF83492EC
:10A320009E69DB6904F5BA7B1E40360C04F5E477C0
:10A330004FF00008DA46002E40F01281029B5A07C7
:10A340000FD5D4F88431814E9F69DB691F40BFB2BD
:10A35000A6F118054FF00009A6F5C678002F40F0C9
:10A360004481019B9DF80470980741BF764BD3F858
:10A37000803102225A61019B002B1BDA724D95F845
:10A380007E313BB1D5F88022136823F0030161F3DD
:10A3900007031360D5F884216D48536823F0010347
:10A3A00053606C4BD3F8D4379847D5F880314FF0D1
:10A3B00000425A61019B1905C3F3072631D5624D4E
:10A3C00000238DF81F3095F886328DF81F30614BD1
:10A3D00005F5BA70D3F8D0379847D5F88021D5F86D
:10A3E00084314FF400619B68516195F87E21C2B1C0
:10A3F000DA0716D595F88932012B12D19DF81F3056
:10A40000032B0ED1D5F880321A6842F001021A608F
:10A410001A6842F003021A604F4A136943F00603B8
:10A4200013613B070AD5484D4A4B05F5BA70D3F87E
:10A43000C8379847D5F8803108225A61FD0615D5EE
:10A44000414BD3F88001826922F010028261026AD6
:10A45000C2F34341022902F00F0500F0838106296F
:10A4600000F0A781836943F010038361F00635D5BE
:10A47000354DD5F884215368002723F0010353603C
:10A48000384644F061FCB84695F875013B4605F541
:10A49000C675FF218342C0F09A81D4F884312C48DC
:10A4A0004FF0FF329A614FF00112DA610B2262F332
:10A4B000070762F307085F61C3F810801A686FF33B
:10A4C0000A121A60FFF754FED4F8803120484FF486
:10A4D00080525A611F4BD3F8CC379847B10640F1F0
:10A4E0009281194CD4F88431D4F88C0199680268AF
:10A4F000C1F34101022906BF032161F30A026FF390
:10A500000A0202605A6842F480725A6008A8FFF793
:10A510003BFCD4F88011D4F88401CB68099A6FF31E
:10A520008D23CB6085680D48C5F341052844007B29
:10A53000032840F05381002284F876214FF4007202
:10A54000A4F87821092258E168260020F427002089
:10A55000DC2700200000002000ED00E0585D050829
:10A56000F2073BD55FFA88F104EB8103D3F8C831D9
:10A570009D68D4F884315B691D40EB0720D594F8C1
:10A5800077013B680125A8429D6007D11869DBF877
:10A590007C33C0F312001B1ACBF88C33D9F8BC37CC
:10A5A0005046984794F87731012B09D1B8F1000F44
:10A5B00006D194F88532052B02D15046FFF7D8FD1D
:10A5C000A80742BF3B6802259D60290706D5D9F838
:10A5D000C437504698473B6808229A6008F1010842
:10A5E000760804370BF1280BA5E6FB0777D5D8F8DA
:10A5F00084315FFA89FA1969586B08EB8A0220FAEC
:10A600000AFBD2F88C214FEACB1B92685FFA8BFBD6
:10A610004BEA010B0BEA020B1BF0010F1ED05A6B29
:10A62000A8484FF0010B0BFA09F122EA01025A6324
:10A630003368C3F808B0A44B5146D3F8C0379847E5
:10A6400098F877315B4509D1B9F1000F06D198F838
:10A650008532042B02D19B48FFF78AFD1BF0080FBF
:10A660001EBF33684FF0080BC3F808B01BF0100F83
:10A670001EBF33684FF0100BC3F808B01BF0400F3B
:10A680001EBF33684FF0400BC3F808B01BF0020F39
:10A690001EBF33684FF0020BC3F808B01BF0800FE9
:10A6A0001DD0D5E94C329B1AD5F82421D6F800E00C
:10A6B00098F877B1DEF81800934228BF13460333A9
:10A6C000D8F8842103920AF1320A9B0808EB8A0A1F
:10A6D00080B2984203D9D5E94C03984205D809F1D4
:10A6E00001097F080436283538E6C01AD5F8243128
:10A6F000984228BF1846C31C9B08BBF1000F1CD012
:10A70000D5F82811D5F834210144C5F82811D5F819
:10A71000301102448A42DEF81800C5F83421D7D13E
:10A72000039A95F81C11526B4FF0010C0CFA01F1D1
:10A7300022EA010203994A63CAE7D5F82821049264
:10A7400082B2DAF87C11033292108C460592594697
:10A75000059A8A42D4D0049A52F82120CCF80020DD
:10A760000131F5E747F6F07111423FF47BAE282145
:10A7700001FB0531C2F30A12D71CD3F844E2D1F829
:10A78000F4C4BF1000218F420DD1282101FB0533F5
:10A79000D3F8F4141144C3F8F414D3F800150A44A0
:10A7A000C3F800255EE6DEF800804CF82180013118
:10A7B000E9E7D3F844120F68C3F840770968C3F893
:10A7C0004417282101FB0533C2F30A12E5E755F8C7
:10A7D000042B9160AA6B013391605BE6012084F841
:10A7E00076014020A4F87801A0F56400374CA0F56C
:10A7F00062401044A04227D80E2262F38D23CB6022
:10A800004FF400534B61029BDA060BD5304C2E4BB4
:10A8100004F5BA70D3F8D8379847D4F880314FF49C
:10A8200080125A61029B9B060BD5294C264B04F5DE
:10A83000BA70D3F8DC379847D4F880314FF400125F
:10A840005A610DB0BDE8F08F224CA2F57400A0F55E
:10A850001050A04201D80D22CFE71F481F4C1044D2
:10A86000A04201D20C22C8E71D4CA2F18C70A0F5C9
:10A870004340A04201D80B22BFE71A481A4C1044AB
:10A88000A04201D20A22B8E71848194C1044A0424D
:10A89000FFF458AE174CA2F1B770A0F55850A04283
:10A8A00001D20822A9E71448144C1044A04201D256
:10A8B0000722A2E712481044124A904234BF0622EF
:10A8C00005229AE7DC270020000000203F420F000D
:10A8D00068260020DFC810002013FBFE20D61300DE
:10A8E000FF69180000D3CEFE40771B00C05BB3FEAB
:10A8F000C091210040AC2700C01D6AFE40E133003A
:10A90000803C36FEE09C41004A09012301F01F0112
:10A9100003FA01F150F82230194214BF012000203F
:10A9200070474A09012301F01F0103FA01F150F8B1
:10A9300022300B4340F8223070474A09012301F0CE
:10A940001F0103FA01F150F8223023EA010340F815
:10A950002230704730B54D09024400EB8504A24215
:10A960004FF0FF3323D901F01F018B4050F8251021
:10A970000B4093FAA3F3B3FA83F3DBB2202B02D09C
:10A9800003EB451030BD211D91420C4602D34FF020
:10A99000FF30F7E72368043193FAA3F3B3FA83F3A4
:10A9A000DBB2202BF0D0201A03EBC000EAE71846F8
:10A9B000E8E780EA0120082341F2210210F4004F69
:10A9C0004FEA400018BF5040013B80B2F6D17047BB
:10A9D00038B50C468D18AC4200D138BD14F8011BB7
:10A9E000FFF7E7FFF7E74840082310F0800F4FEA32
:10A9F000400018BF80F0D500013BC0B2F5D17047D0
:10AA000010B50A440C46944200D110BD14F8011B45
:10AA1000FFF7E9FFF7E738B50A4605680446002066
:10AA2000AA4203D36B1C2360287038BD12F8011BA7
:10AA3000FFF7D9FFF4E7DFED0A7AC0ED020A20EE56
:10AA4000270AB7EE007AC7EE007A00230360C0ED54
:10AA5000017A70EEA77A80EEA77A80ED037A7047CC
:10AA6000DB0FC94090ED017AD0ED007AC0ED020A0B
:10AA700030EE877AC0EE876A30EE677AE6EE877A44
:10AA8000B0EE670AC0ED007A70470123037000231F
:10AA9000C3648364036503644364436583628365BD
:10AAA0007047DFED157A80ED010AF4EEE70AF1EE6A
:10AAB00010FAC0ED020A80ED031AC0ED051A18DD88
:10AAC000B4EEE70AF1EE10FA10DD81EE007AC0EE86
:10AAD000207AF0EE006A77EE877A86EEA77A80ED2C
:10AAE000047A80ED0F2AC0ED0E2ACEE70023036121
:10AAF000F7E700238360FAE7BD378635FDEEC07ABD
:10AB000017EE903A2033402B43D8DFED237A9FEDA8
:10AB1000237AB4EEE70AF1EE10FA28DCDFED207AB2
:10AB20009FED1E7AB4EEE70AF1EE10FA22D4DFEDC3
:10AB30001D7AB4EEE70AF1EE10FA1EDD30EE670A78
:10AB400037EEC00A60EE007ADFED176A9FED177AE4
:10AB5000A7EEA67ADFED166AE7EE876A9FED157A13
:10AB6000A7EEA67A20EE276AA6EE070A704730EE17
:10AB7000470ACEE730EE070AD4E79FED0F7AB4EE2E
:10AB8000C70AF1EE10FA44BF30EE270A37EE400A4A
:10AB9000D8E79FED0A0A7047DB0F4940DB0FC94039
:10ABA000DB0F49C0DB0FC93F9A7C2E36FAAF4FB995
:10ABB0003587083CA4AA2ABEDB0FC9BF00000000ED
:10ABC000DFED027A30EE270A98E700BFDB0FC93FBE
:10ABD00038B51D46304BB3FBF2F39942B0EE405A04
:10ABE000F7EE005A4FF000044FD207EE901A9FED97
:10ABF0002B7ADFED2B6AF8EE677A67EE877A07EE3D
:10AC0000102AB8EE477A27EE267AC5EE876A87EED5
:10AC1000A64AB0EE440AFFF771FFF0EE404AB0EEEC
:10AC2000440AFFF7CDFF35EE055A012D84EE854A23
:10AC3000F0EE407A1CBF35EEE76AF6EE006AB8EE39
:10AC4000000A34EE257A12BF66EE266A27EE806A85
:10AC5000F0EE656A86EE875AC6EE076A67EE807A7E
:10AC600075EEC45AC0ED016AC7EE876AC5EE877AF1
:10AC700080ED005A80ED025AC0ED036AC0ED047AFF
:10AC8000846144610462C46138BDC0ED005A44600F
:10AC90008460C4600461F3E720A10700DB0FC940B2
:10ACA000BD3786359FED010A002391E7F304353F58
:10ACB000B5EE400AF1EE10FA10B5F0EE406A044627
:10ACC0004FF00003084627D007EE902AF8EE670AF7
:10ACD000DFED1A7A60EEA70A4CB9FFF7ACFEFCEE86
:10ACE000E66ABDE8104016EE903A99B2DAE7022C17
:10ACF00013D0032CF3D19FED120A0B6066EE806A2D
:10AD0000B7EE007AC7EE267A4B608B6077EEA07ABA
:10AD100080EEA77A81ED037A10BD9FED0A7A0B6071
:10AD200020EE077AB7EE006AC6EE077A4B6077EE40
:10AD3000A07A80EEA77A81ED027AD0E7BD3786351A
:10AD4000F82F4541D2331C412DE9F041FCEEC07A89
:10AD500013460A4617EE901AD0F814808769C66920
:10AD6000056AB0EE600A89B2FFF732FFC0F81480BE
:10AD70008761C6610562BDE8F081F0EEE06AB0EE81
:10AD8000C07AF4EEC76AF1EE10FAD4BFB0EE476AAB
:10AD9000B0EE666AB5EE406AF1EE10FAF0EE405A97
:10ADA00046D0F4EEC76AF1EE10FA54BFB0EE475A3F
:10ADB000B0EE665AC5EE067A9FED1F6A9FED1F5AE8
:10ADC000DFED1F4AA7EE865A9FED1E6AA5EE276AA1
:10ADD0009FED1D5AA6EE275A9FED1C6AA5EE276A25
:10ADE0009FED1B5AE7EE854AB7EE005AA4EEA75A2C
:10ADF000F1EE467A87EE850AF4EEC76AF1EE10FAB4
:10AE000048BFDFED147AF5EEC00A48BF37EEC00A3E
:10AE1000F1EE10FA48BFDFED107AF5EEC05A48BFE8
:10AE200037EEC00AF1EE10FA48BFB1EE400A7047A3
:10AE3000DFED0A7AC0E700BF39094E3DE3B59EBE9B
:10AE400069A2163E88FA16BE45FE7FBFA7DFA8B4EA
:10AE500099FB243FDB0FC93FDB0F49400000000096
:10AE600044F25063984203DDA0F50C40A0387047CF
:10AE7000034B9842BCBF00F50C40A030704700BFA8
:10AE8000B0B9FFFF48F69F43984203DDA0F50C40A0
:10AE9000A03870470028BCBF00F50C40A0307047B8
:10AEA00091ED005A08B5B0EE450AFFF789FEF0EEC5
:10AEB000405AB0EE450AFFF721FE91ED015AF0EE3F
:10AEC000404AB0EE450AFFF77BFEF0EE403AB0EEA6
:10AED000450AFFF713FE91ED023AB0EE405AB0EE8C
:10AEE000430AFFF76DFEB0EE404AB0EE430AFFF7AB
:10AEF00005FE25EE806A63EEC07A24EE847AC0ED0A
:10AF0000017AF0EE467AE5EE077A25EE843A64EEB1
:10AF1000806AC0ED037AF0EE437AE5EE667AA5EE3C
:10AF2000067AE5EE436A23EE844A64EEE34A65EE70
:10AF3000A35A80ED004A80ED025AC0ED047AC0EDBC
:10AF4000054AC0ED066A80ED077AC0ED085A08BDD3
:10AF5000034600F1400100221A615A619A61DA61E8
:10AF600010339942F8D1102200214AF058BED1ED99
:10AF7000007A90ED066AD0ED095AB8EEE77AD0ED86
:10AF8000047AE7EE077AB7EE005AC0ED047AD1ED05
:10AF9000017AF8EEE76AD0ED057AE7EE267AC0EDA1
:10AFA000057AD1ED027AF8EEE77AA7EE276A80ED0E
:10AFB000066A90ED076A36EE076A80ED076A90ED43
:10AFC000086AA7EE266A80ED086A26EEA66A75EE84
:10AFD000865AA7EE076AC0ED095AD0ED0A5AE6EE86
:10AFE000A75AA7EEA76AC0ED0A5AD0ED0B5A75EE24
:10AFF000A65AC0ED0B5AD0ED0C5AE7EE275AC0ED19
:10B000000C5AD0ED0D5AE6EEA75AC0ED0D5AD0ED10
:10B010000E5AE7EEA75AC0ED0E5AD0ED0F5A75EE54
:10B02000A75AC0ED0F5AD0ED105A75EE875AC0EDF1
:10B03000105AD0ED115A75EEA65AC0ED115AD0ED46
:10B04000125A75EEA75AC0ED125AD0ED135A75EE8A
:10B05000855AC0ED135AD0ED005AE7EE065A90ED2E
:10B06000017AC0ED005AA6EE867A80ED017A90ED65
:10B07000027AA7EE867AD0ED037A80ED027A37EE77
:10B08000866A80ED036A70472DE9F043034685B078
:10B0900000F11007054600261C46AC4612E0F8EC0D
:10B0A000016A1EED047AD4ED007AE6EEC77AC4EDAB
:10B0B000007A98450EF1100EF1D10434BC420CF127
:10B0C000040C03D0A7F11008E646F2E701361C464F
:10B0D000B646BEF1040F1FD000EB0E1CA84604F1CB
:10B0E000100909E0FCEC016A18ED047AD4ED047A49
:10B0F000E6EEC77AC4ED047ACC4508F11008F1D128
:10B10000D4ED046A93ED007AC6EE877A0EF1010E53
:10B11000C4ED047A6446DCE7042E03F1140305F160
:10B12000040507F11007B7D10023009301930293A0
:10B1300003936C460023142752F8045B44F8045B25
:10B1400007FB030C00EB03156E4665451FD1013369
:10B15000042BF1D104AD103100F1400255F8044D3B
:10B160000E4600EB031741F8044D1446A742D1EDFB
:10B17000007A17D152ED016A87EEA67A013BA2F15F
:10B18000140281ED007AE9D105B0BDE8F083B6EC98
:10B19000017A54ED017AF5EC016AE6EEC77A44EDE6
:10B1A000017AD2E7F4EC016AB6EC017AE6EEC77AEE
:10B1B000C1ED007ADAE79FED0C7A00F10C03F0ECB8
:10B1C000017AF4EE677AF1EE10FA06D7F0EEE77A3C
:10B1D000F4EE477AF1EE10FA03DC9842EFD1012049
:10B1E00070470020704700BFFFFF7F7F1FB50C46F0
:10B1F000024669461030FFF747FFDDED007AB6EEF4
:10B20000007A67EE877A2046C4ED007ADDED017A98
:10B2100067EE877AC4ED017ADDED027A67EE877A10
:10B22000C4ED027AFFF7C7FF04B010BD08B546F0C1
:10B23000EDFC00EE100AB5EEC00AF1EE10FA06DBE6
:10B2400047F0B6FDB4EE400AF1EE10FA01D79FEDDB
:10B25000010A08BD0000000008B5F7EE007A2DEDE8
:10B26000028BF0EEC08A77EEE87AB0EE408A17EEF5
:10B27000900A46F0A3F9FFF7D9FF9FED0E7ADFEDB4
:10B280000E7AE8EE877A9FED0D7AA7EEA87ADFEDC9
:10B290000C7AE7EE287AB5EEC08ABDEC028BF1EEAF
:10B2A00010FA20EE270A44BFDFED067A37EEC00A17
:10B2B00008BD00BF306E99BC2716983D843459BE36
:10B2C000A40DC93FDB0F494008B50369012BC3BF7B
:10B2D00003F1FF3307EE903AD0ED036A9FED067A53
:10B2E000C4BFF8EEE77A86EEA77A17EE100A46F0AA
:10B2F00065F9BDE8084099E70000000038B503781B
:10B30000012B04462CD103691D4D23B9426812B9A3
:10B31000D5F874284260D4ED067A77EE807A01334E
:10B320002361C4ED067A04F11C00FDF7EDF96268B3
:10B33000D5F874389B1AA268934211D9FFF7C4FF5D
:10B34000D4ED057AB4EEE70AF1EE10FA0CDD237BBA
:10B350003BB9D5F87428626000222361A261E362E0
:10B3600038BD03232370FBE7D4ED047AD4ED066ADD
:10B37000F8EE677A022386EEA77A84ED067AF1E783
:10B380007015002038B500F11C02044604F1640574
:10B39000104650ED017AB1EC010A77EE807A40ED6B
:10B3A000017AFDF7B1F91830A842F2D12369294D8D
:10B3B000616801332361D5F874385B1AA1688B4248
:10B3C0002CD91046FFF780FFD4ED057AB4EEE70ADA
:10B3D000F1EE10FA15DC04F13400FFF775FFD4ED3F
:10B3E000057AB4EEE70AF1EE10FA0ADC04F14C003B
:10B3F000FFF76AFFD4ED057AB4EEE70AF1EE10FA32
:10B4000010DD237B5BB9D5F87428626000222361CC
:10B41000A261E36222636364A264E36538BD03232F
:10B420002370FBE7D4ED047AD4ED066AF8EE677A70
:10B43000022386EEA77AD4ED0C6A84ED067A86EEB6
:10B44000A77AD4ED126A84ED0C7A86EEA77A84EDA1
:10B45000127AE5E77015002060EEA00A08B5E0EE6C
:10B46000000A10EE900A46F0A9F8BDE80840DDE6B3
:10B4700060EEA00A08B5E0EE000AE1EE010A10EE67
:10B48000900A46F09BF8BDE80840CFE62DE9F74F5B
:10B4900090469DF83020002A14BF4FF030094FF03D
:10B4A00020090D9A1C1E05460F46BABF64420123AF
:10B4B000002312F8011B01B12CB9A24663B100248C
:10B4C0000D9EA41B12E0013CF3E7BD4204D24946A5
:10B4D00028460193C047019BBAF1010AF5D2EFE774
:10B4E000BD4203D228460193C047019B06EB040BE3
:10B4F00016F8011B0029F3D133B15446002C07DCA8
:10B50000BAF1000FA8BFD344584603B0BDE8F08F8E
:10B51000BD4202D249462846C047013CEEE70FB47F
:10B5200037B50C4D06ABD5F8F81853F8042BD5F801
:10B53000F408019345F015FD0446D5F8240105F003
:10B5400014FC0028F9D0204603B0BDE8304004B018
:10B55000704700BF682600200EB403B503AB08494E
:10B5600053F8042BCDE9003001A845F0FAFC019B0B
:10B5700000221A7002B05DF804EB03B0704700BF00
:10B58000578700080CB430B52C4CD4F8FC38A5B063
:10B590001BB9D4F80039002B3AD094F804399942F9
:10B5A00006D9012303FA00F0D4F8083918422FD045
:10B5B000234BD3F874184FF47A7304A8B1FBF3F259
:10B5C00003FB12131F49FFF7C7FF04AB0344289A7C
:10B5D0001D490393054629AB03A8029345F0C1FC1E
:10B5E000039B591C03910A211970039B0246591CA5
:10B5F000D4F8FC0803910021197090B103681B6A0C
:10B6000003B19847D4F8FC5804AC14F8011B21B9D5
:10B6100025B0BDE8304002B07047284605F034FB45
:10B62000F3E7D4F80039002BF2D002212A4400912C
:10B630000A44FD2004A925F095FEE9E768260020CC
:10B640007015002070EE0508FF86000810B54FF455
:10B65000004086B022F0C6FF044690B34FF400418C
:10B6600023F022F902281AD1226848F201039A42F3
:10B6700027D14FF4004042F013FE10B31F4BD3F814
:10B680000C2982421FD0D3F8E829904230D0D3F859
:10B69000C42A90422FD00022C3F8002911E00023D1
:10B6A000022294F90400CDE901234FF461220092B3
:10B6B0004FF400411A4623F049F9104BC3F8FC0837
:10B6C00028B906B010BD03F60C12C3F800290C4BC4
:10B6D00004930C4B03930C4B02930C4B01930C4BB8
:10B6E00000930C4A0C4B02210020FFF74BFFE8E7C8
:10B6F00003F6E812E9E703F6C422E6E7682600202D
:10B700007CEE050885EE05088EEE05089AEE050824
:10B71000A0EE050808FB050848EE0508184A38B5EC
:10B72000D2F8A04B033004EB9003B3F5007F19D897
:10B7300002F6A435C2F8A03B124A02EB810120F0C8
:10B740000300D1F8AC22C3F500731044C1F8AC0279
:10B750000D4A9B000421002005EB8404FFF712FF33
:10B76000204638BD0021094A0846FFF70BFF084A6A
:10B77000D2F8983043F00073C2F898300024EFE715
:10B780006826002060370020AAEE0508CDEE0508E7
:10B79000F0FB00202DE9F84F0268DFF8A480064690
:10B7A000002358F833108A420BD1DDB20D2D0CD98D
:10B7B000204A00210520FFF7E5FE00242046BDE8D1
:10B7C000F88F01330E2BECD1F2E71B4F07EB850A04
:10B7D0004FEA8509DAF838B1BBF1000F1AD1072119
:10B7E0006420FFF79BFF0446CAF8380128B90146D8
:10B7F000124A0520FFF7C6FEE0E7642259464AF0E8
:10B800000EFADAF8383108EBC505C3E90053DB61FD
:10B810005B63DB644F447179D7F83841182000FB33
:10B82000014300221C46C3E903229E601A750434BA
:10B83000C4E700BFDBEE05086826002000EF05081E
:10B84000785D050803685A1C026019700368090ACC
:10B850005A1C02601970704703685A1C0260197004
:10B8600003685A1C02600A0A1A7003685A1C0260B4
:10B870000A0C1A700368090E5A1C0260197070478E
:10B8800003685A1C02600A0A1A7003685A1C026094
:10B890001970704738B504460068154649F086FFB0
:10B8A00023682B44236038BD03685A1C0260187853
:10B8B000704703685A1C02601A4612F8021B0260A5
:10B8C000587841EA0020704710B502681146531CB1
:10B8D000036011F8024B0160D31C51780360937828
:10B8E0001B0443EA0123111D0160D078234343EA7E
:10B8F000006010BDD1E900329A4206D05A1C0A609D
:10B9000008B11B7803700120704700207047D1E90F
:10B9100000239B1A012B10B50446084604DDFFF7EF
:10B92000C8FF2080012010BD0020FCE730B50A448C
:10B930000446914201D1002011E014F8013BA3F12B
:10B940004100192811F8010BA0F1410598BF2033DF
:10B95000192D98BF20301B1A02D10028E9D130BD23
:10B960001846FCE76FF00042E0E710B50288C378A4
:10B97000A2F5FA62910840F2B554013B04FB013391
:10B9800081780C24013902F0030204FB02120D49F4
:10B99000847901EB42021821B2F890201344027915
:10B9A00001FB0322437900893C2101FB0233064A53
:10B9B000224401FB03224FF47A730021C2FB0301EE
:10B9C00010BD00BF585D050880436D382DE9F0417A
:10B9D00090461F4605464FF47A720023404639468A
:10B9E00046F072FA284B3C21034493FBF1F201FB31
:10B9F0001233AB7192FBF1F301FB13226A7140F237
:10BA0000B551182293FBF2F402FB143394FBF1F2CC
:10BA100001FB1244B4F5896F2B714FEA82032EDAD1
:10BA200040F2DA2294422CDCB4F5B77FB4BF002197
:10BA30000121164A182000FB01220B2632F81600BD
:10BA4000A04201DD013EF9D103F5FA630B442B80DE
:10BA5000731CAB700C2303FB01660D4B03EB460616
:10BA60000134B6F89030E41AEC704FF47A72002387
:10BA70004046394646F028FA2A81BDE8F081032184
:10BA8000D7E70221D5E700BF80BC92C7E85D050873
:10BA9000585D0508F0B5274D06460F460FCD8DB011
:10BAA0006C460FC40FCD0FC495E80F0084E80F005B
:10BAB00016F003033AD1642196FBF1F201FB126206
:10BAC00042B94FF4C87296FBF2F302FB1363003BDA
:10BAD00018BF0123721EC3F11D03002A019340F217
:10BAE0006D13104606FB03F3B8BFB01C03EBA000B8
:10BAF0006FF0630392FBF3F318444FF4C87392FBA7
:10BB0000F3F210440630694600240725013F51F83E
:10BB1000042BA74202EB000393FBF5F0C0EBC0003F
:10BB2000A3EB000004D1101A0DB0F0BD0123D1E742
:10BB30000134ECE7485E0508084BD3E9CC1251EA22
:10BB4000020309D0064BD3F874385B1842F10002A7
:10BB5000C0E90032012070470020704760370020A4
:10BB60007015002037B505466846FFF7E5FF044627
:10BB700038B1DDE900232846FFF728FF204603B04F
:10BB800030BD40F2011328806B80A880A871288105
:10BB9000F4E7F0B50124B0FBF4F58D4203D20026A2
:10BBA0001CB91C70F0BD4C43F5E7B0FBF4F5B4FBD9
:10BBB000F1F704FB15002EB9002D03DC8C420CD3E9
:10BBC0003C46EDE7092D08DD002A14BF3724572431
:10BBD0002C4403F8014B0136F2E73024F8E7A0F1DA
:10BBE0003003DAB2092A01D818467047A0F1610380
:10BBF000052B01D857387047A0F14103052B94BF9E
:10BC000037384FF0FF30704770B50446944208460D
:10BC10001546B4FBF2F602D33046FFF7F5FF05FBFD
:10BC20001644024B1B5D00F8013B70BD1AEF05087E
:10BC3000B5EEC00ADFED2D7AF1EE10FACCBF30EE92
:10BC4000270A30EE670ADFED2A7A20EE270A30B5A0
:10BC5000FDEEC07A87B017EE904A054684EAE4709C
:10BC6000002303A9A0EBE470CDE90033029343F075
:10BC70005BF8002CACBF20232D2303A88DF80030E7
:10BC800045F030FB012822D130238DF801308DF8AA
:10BC900002308DF8033003A9684649F0C8FF6846B2
:10BCA00045F020FB0338C4B222466946284649F0D5
:10BCB0007DFD00232B550F49284649F0B8FF0DEBB9
:10BCC0000401284649F0B3FF284607B030BD0228DA
:10BCD00005D130238DF801308DF80230DBE70328E1
:10BCE00004BF30238DF80130D5E700BF6F12033A4F
:10BCF00000007A44A422060830B50278202A0346C0
:10BD000000F10100F9D0092AF7D02D2A4BD10346C2
:10BD1000BFEE000A9FED3C7A1A46F2EE046A134623
:10BD200012F8010BA0F13001CCB2092C41D92E2818
:10BD30000BD1F2EE046A1146B0EE666A0B4611F8BA
:10BD4000012B303AD0B209283CD91A7802F0DF0230
:10BD5000452A53D15A782D2A3FD102330120013B85
:10BD600000220A2513F8011F3039CCB2092C3AD928
:10BD7000B2F59A7F1346DFED256A28BF4FF49A7318
:10BD80001A46F7EE007A072A30D8DA086FF0070172
:10BD900001FB0233F2EE046A63BB88B3C7EE276A85
:10BDA00020EE260A30BD2B2A08BF0346B7EE000A54
:10BDB000B0E707EE901AF8EEE77AE7EE267AB0EEF3
:10BDC000677AACE707EE902AF8EEE77AC7EEA65A54
:10BDD00066EE866A37EE257AB0E72B2A14BF013368
:10BDE00002330020BBE705FB0212BBE767EEA67A31
:10BDF000083AC8E767EEA67A013BCDE7F7EE007A8E
:10BE000067EE276ACCE700BF0000000020BCBE4CF4
:10BE100070B5034610F8012B202AFAD0092AF8D071
:10BE20002D2A0ABF034601254FF0FF35591E002475
:10BE30000A2611F8010FFFF7D2FE092802D905FBE7
:10BE400004F070BD06FB0404F3E710B5002380285E
:10BE500004D893420AD2C854581C10BD934205D04E
:10BE600060F07F04CC54C0090133F0E74FF0FF309D
:10BE7000F3E770B51249134C134E01220020FEF770
:10BE8000A7FD228862B1A31DB34217D2A518B542FF
:10BE900014D2052A12D92146FEF79AFD2C46F0E766
:10BEA00021460222FEF794FD63880849084AC31A16
:10BEB000641A5842A2F83843584170BD0020FCE78C
:10BEC000004000080140000800800008FC3F000816
:10BED000603700202DE9F04F794BDFF8F4818FB007
:10BEE000A3EB0802CDE901234FF003091022002142
:10BEF0000AA849F094FE019B0993029B0893714B99
:10BF0000CDF81C801A69002ABFBF6F4A5A6002F13F
:10BF100088325A600124F322DA604FF0000A7E234F
:10BF2000224604A907A88DF83440CDF830A08DF83A
:10BF30001030FCF745FE504513DA0023B9F1010932
:10BF400000F0B780002BD1D098F800307E2B40F065
:10BF5000B380FFF78EFF002800F0AE800FB0BDE881
:10BF6000F08F224604A95046FEF732FD574CDFF809
:10BF700064B1ADF812005C453CD30024022205A94F
:10BF800007A8ADF81440FCF71BFEA042D5DBBDF8B6
:10BF90001200022205A9FEF71BFD0222ADF81200D5
:10BFA0000DF1120107A8FCF70BFEA042C5DB0B98B0
:10BFB00088B1079B089A03449342BED80AABC0F1EC
:10BFC00004022146184449F02AFE0AA907A8FCF7F2
:10BFD00053FDCDE90B400C9B002BAEDB9DF83420CC
:10BFE00022B138490A6942F000420A61B3FA83F388
:10BFF0005B09A3E762888DF819A0C2F30B06B31D95
:10C00000ADF814302388C3F30B011B0B8DF81830E7
:10C010001304ADF8161020D4062205A907A8FCF7D2
:10C02000CFFD002889DBBDF81200062205A9FEF726
:10C03000CFFC6168ADF81200324607A8FCF7C0FDDE
:10C040000028FFF67AAFBDF8120061683246FEF7AD
:10C05000BFFCADF8120014348DE700273D460135D2
:10C06000EDB2062205A907A88DF81950FCF7A8FD26
:10C070000028FFF662AFBDF81200062205A9FEF700
:10C08000A7FC6168ADF812003944324607A8039155
:10C09000FCF796FD0028FFF650AFBDF8120003999B
:10C0A0003246FEF795FC032DADF812003744D6D189
:10C0B000D1E7002B7FF448AF052004F08DFF00BFCF
:10C0C00000800008003C02402301674544490608FF
:10C0D00000400008084E0608034AD2F83C3323EA21
:10C0E0000000C2F83C037047603700200346064951
:10C0F0000648884201D3002070470288C2F30B0231
:10C100009342F9D01430F4E7084E06084449060873
:10C1100013B542880B460446C2F30B0200211846B1
:10C12000019249F07CFD216903460A48814209D306
:10C130000948019A814205D2184602B0BDE8104074
:10C1400049F034BB21B1184602B0BDE810400847A1
:10C1500002B010BD084E0608A752060810B4B0F988
:10C1600002404288002C0B4641685DF8044BBEBF7C
:10C17000C2F30B02DBB203FB0211C9E730B5094B76
:10C18000094CA34200D330BDB3F902205988002ADC
:10C1900006DA5A68DD68C1F30B0100FB01222A6050
:10C1A0001433EEE744490608084E060830B5024647
:10C1B0000144002012F8015B082480EA050313F013
:10C1C000010F4FEA50001CBF80F08C03D8B2631EF1
:10C1D00013F0FF044FEA5505EFD18A42EAD130BD92
:10C1E000154B03EB800070B5D0F8300808B3134D41
:10C1F0000C2202FB005292F94133591C1AD092F8DA
:10C200004903B0B1E918642491F87C6392F84813AB
:10C210000020142263435C1805EB4404013AB4F88F
:10C220008043314410FA84F0F5D11423B0FBF3F0CD
:10C2300080B270BD0020FCE7701500206037002040
:10C2400038B503200D461446FFF7CAFF07EE900AE3
:10C250008DB19FED0B7AF8EE677AF0EE006A67EE2B
:10C26000877AB8EE047AA7EEA67ADFED067A67EE53
:10C27000277AC5ED007A0CB1034B236038BD00BFAF
:10C280006740533A00007A443313904310B5427A22
:10C29000044632B10146406851F80A3B98470023F2
:10C2A000637210BD10B4447A621C0444D2B242726C
:10C2B000A172037A934202D85DF8044BE6E75DF879
:10C2C000044B704710B503681A79022A044602D15C
:10C2D000987A44F043FA00232360237110BD73B5AC
:10C2E0000279022A36D190F910301C4C8DF80220C8
:10C2F000142606FB03431A4ED3F8383F00250120CD
:10C30000B3428DF800508DF8010025D0154DAB4299
:10C3100003D0154883421DD1104602AA11441A8841
:10C3200011F8085C22F040021204120C14211A8049
:10C3300001FB00401A88D0F8441F22F0380231F87F
:10C3400025101204120C0A431A801A8892B242F085
:10C3500040021A8002B070BD2846DEE700000020CF
:10C360000030014000380040003C0040C36910B577
:10C37000044623B909211420FFF7D0F9E061E069F0
:10C3800010BD10B504460068FFF7F0FF83783BB19D
:10C390008388E381C388238203896382012010BDDF
:10C3A0001846FCE70368DB6B13B504462BB923681A
:10C3B0005B6B3BB9FF23E38202E098470028F6D18C
:10C3C00002B010BD214601A898470028F2D0BDF860
:10C3D0000630013B9BB2EEE710B5036804469B684C
:10C3E000984701236374FF23A37410BD036810B53D
:10C3F00004461B689847236820469B689847E37C5F
:10C400000133E37410BD036810B504465B689847B8
:10C41000236820469B689847E37C013BE37410BD8A
:10C42000F0B585B0044618460D461646039344F011
:10C4300059FF2268E67328440021A07300915769D0
:10C44000039B324629462046B84705B0F0BD30B5BB
:10C45000046885B0E469089D34B10DB90DF10F058C
:10C460000095A04705B030BD2046FBE703685B6A36
:10C47000184703689B6A184710B5037B04460BB145
:10C48000437B13B92046FFF7F4FF23682046DB689F
:10C49000BDE81040184703685B6C03B1184770474C
:10C4A00038B504468B6801600D4698470B4B2361F5
:10C4B000002323752B6B13B1204698472075084B3A
:10C4C00093F8D8351BB1237D23F001032375002396
:10C4D000E3822046BDE8384064E700BF0001FF006A
:10C4E0006037002003681B6803B118477047036872
:10C4F0005B6803B11847704703681B6A03B11847AC
:10C50000704703685B6A03B11847704730B404682A
:10C51000A46A14B1A44630BC604730BC704730B444
:10C520000468E46A14B1A44630BC604730BC70476C
:10C5300003685B6C03B11847704703689B6C03B1D9
:10C540001847704703689B6F03B11847704703682B
:10C55000D3F8803003B1184770470368D3F88430AC
:10C5600003B1184770470368D3F8883003B1184700
:10C57000704721B10B68D3F88C3003B11847002005
:10C58000704738B5094B052404FB0030A0F1A00525
:10C5900015F8010B013C43F0D8FF14F0FF04F7D16C
:10C5A0002046BDE8384043F0D0BF00BF785E0508A4
:10C5B00010B5441E14F8010F00B910BDFFF7E1FFDC
:10C5C000F8E7FCF794BBFCF792BBFCF790BBFCF7D9
:10C5D0008EBBFCF78CBBFCF78ABB30B1036882884A
:10C5E0001B691A4214BF01200020704710B1036874
:10C5F00082881A83704710B504464FF4FA7004F02D
:10C6000057FC6069BDE81040F0E773B5104B154664
:10C6100090F910200446142000FB0233D3F8386F41
:10C62000A3689A0704D46069019144F08FF80199D6
:10C63000304644F07DFC2946304644F079FCA3683E
:10C640009B0702D42046FFF7D6FF012002B070BD41
:10C6500000000020F7B515461E4690F91020104B3B
:10C660000446142000FB0233D3F8387FA3689A07EE
:10C6700004D46069019144F069F80199384644F0A6
:10C6800057FC33462A460021384644F001FCA36893
:10C690009B0702D42046FFF7AEFF012003B0F0BD98
:10C6A00000000020F7B515461E4690F91020104BEB
:10C6B0000446142000FB0233D3F8387FA3689A079E
:10C6C00004D46069019144F041F80199384644F07E
:10C6D0002FFC334600222946384644F0D9FBA36894
:10C6E0009B0702D42046FFF786FF012003B0F0BD70
:10C6F0000000002073B5124B154690F91020044637
:10C70000142000FB0233D3F8386FA3689A0704D4CF
:10C710006069019144F01AF80199304644F008FC30
:10C72000012300222946304644F0B2FBA3689B0750
:10C7300002D42046FFF75FFF012002B070BD00BFAA
:10C740000000002010B1036882885A83704710B53A
:10C7500004464069FFF7F6FF012004F028FC6069F9
:10C76000FFF744FFBDE810400A2004F020BC37B5B5
:10C770000C46054600B30368104A03F13F4303F536
:10C780007E0302EB932393F8C30342F0ABFAAB882A
:10C79000009304F003038DF80430C4F381038DF893
:10C7A00005302868C4F30013694664098DF8063023
:10C7B0008DF80740FBF787FD03B030BD585D0508D5
:10C7C000F7B50C4615460646A8B303681B4A03F1A5
:10C7D0003F4303F57E0302EB93230F2793F8C30334
:10C7E00042F080FA3068B6880096B6FA86F3C3F154
:10C7F0001F0303F00702C3F3CC0300EB8303920093
:10C80000196A974021EA07011962196A95400D4398
:10C810001D6204F003038DF80430C4F381038DF826
:10C8200005306946C4F3001364098DF806308DF8AD
:10C830000740FBF748FD03B0F0BD00BF585D050899
:10C8400038B50409013C032C00F00F021AD80E4D34
:10C8500005EB4403B3F8CA1341FA02F313F00100E5
:10C860000FD0012303FA02F2013A02EA01002C443C
:10C8700045F092FB94F8D2331844044B0C2202FB8F
:10C88000003038BD0020FCE7585D05083C3D002025
:10C890002DE9F043654F07EBC00985B005464FEA27
:10C8A000C00899F88C0FFFF7CBFF064699F88D0F5B
:10C8B000FFF7C6FF044699F88E0F42F013FA6B1C7F
:10C8C000DBB21EB140F60B12F28033721CB140F69F
:10C8D0000B22E280237204223A213046FFF770FFD8
:10C8E000204604223A21FFF76BFF07EB0803D3F839
:10C8F000884F4F4B9C4263D103F5F2331A6A42F4DE
:10C9000000121A621A6A22F400121A62474497F857
:10C910008F3F022B6ED0032B6ED0464E464A012B22
:10C9200008BF1646A78827F03F0768463F04FDF773
:10C930002BFA3F0C029A414BB2FBF3F398B2074338
:10C94000A780218821F001010904090C21803C49BC
:10C950008E4253D13B4BB2FBF3F2013092B2042A28
:10C9600080B238BF04222084A28323889BB243F084
:10C9700001032380238823F4816323F002031B0433
:10C980001B0C43F4806323804FF48043238123886E
:10C9900023F080031B041B0C238023889BB243F0ED
:10C9A00001032380284B03EB4513012283F8292838
:10C9B000002283F8285883F82A2805B0BDE8F083C0
:10C9C000224B9C4209D103F5F0331A6A42F48002EB
:10C9D0001A621A6A22F4800297E71D4B9C4295D195
:10C9E00003F5EE331A6A42F400021A621A6A22F45C
:10C9F00000028AE7124E95E7124E93E706EB4606D1
:10CA0000B2FBF6F291B2C2F30B020AB941F0010196
:10CA100041F400424FF496714B434FF47A71B3FBEB
:10CA2000F1F301339BB223849EE700BF0000002096
:10CA300000540040801A060000350C0040420F00F0
:10CA4000A0860100400D0300603700200058004020
:10CA5000005C00402DE9F047BC4E440106EB401954
:10CA600004F066FA99F92828B94B8846D10003EBFF
:10CA7000C2020746D2F8885F99F82A28013A142A98
:10CA800000F28380DFE812F079008900A200BB0089
:10CA9000C900D300DF00F80006010F011D0170017D
:10CAA0008F01B9012A023E0250025C027002930219
:10CAB00015005F184FF0090A97F88C0FFFF7C0FEBA
:10CAC000054697F88D0FFFF7BBFEB6F8883801339F
:10CAD0009BB207462846A6F88838FFF787FD3846F8
:10CAE000FFF784FD11212846FFF741FE112138464A
:10CAF000FFF73DFE4FF0650803E00520002104F03C
:10CB000045FA2846FFF769FD10B9B8F10108F4D1DC
:10CB10002846FFF717FE0021052004F037FA2846C3
:10CB2000FFF764FD0021052004F030FABAF1010A94
:10CB3000E0D12846FFF706FE0021052004F026FA82
:10CB40003846FFF7FFFD0021052004F01FFA2846B4
:10CB5000FFF74CFD0021052004F018FA3846FFF7D6
:10CB600045FD331993F92808431C01D0FFF790FEC7
:10CB70003319002283F82A2807E02B8813F4007366
:10CB800040F0ED81321982F82A38331993F82A38A7
:10CB9000002B7FF465AFBDE8F0872B8823F400639A
:10CBA0001B041B0C2B802B889BB243F480632B80CF
:10CBB0002B889BB243F480732B803319032283F8B4
:10CBC0002A28644B1A191F51C2F80480624928466A
:10CBD000FBF7BBFB002800F0C281331993F83A2819
:10CBE0005AB993F83B28FF2A04D193F838280AB1A0
:10CBF0000A22BFE733190422BCE70F22BAE7321931
:10CC000092F8393803F0FE032B82052382F82A3884
:10CC1000504B1A191F51C2F8048050492846FBF79F
:10CC200094FB002800F0938133190622A2E7331900
:10CC300093F83B282A82072283F82A28454B1A19A1
:10CC40001F51C2F8048046492846FBF77EFB0028A6
:10CC500000F07D813219D2F83C385BB92B889BB249
:10CC600043F400732B803B4B19191F51C1F804800A
:10CC7000012388E7082386E72B889BB243F480735F
:10CC80002B803319092283F82A28324B1A191F5195
:10CC9000C2F8048030492846FBF757FB002800F013
:10CCA0005E813319A4E7321992F8393843F0010351
:10CCB0002B820B2382F82A38264B1A191F51C2F8EF
:10CCC000048028492846FBF740FB002800F03F81FC
:10CCD0003219D2F83C38012B1CD12B8823F4806305
:10CCE0001B041B0C2B80EFF31181102383F312889C
:10CCF0002B8B2B889BB243F400732B80CBB283F336
:10CD000011880C2382F82A38124B1A191F51C2F8C5
:10CD100004803AE7022B15D12B889BB243F40063C1
:10CD20002B80EFF31181102383F312882B8B2B8838
:10CD300023F480631B041B0C2B80CBB283F311887C
:10CD40000D23DFE72B8B0E23DCE700BF60370020CD
:10CD500000000020903F0020010003008200070037
:10CD6000840007000200030098492846FBF7F8FA00
:10CD7000974A002800F0A2803319D3F84018481CC5
:10CD8000C3F84008288A0870D3F83C1801391019F4
:10CD9000C3F83C180121175183F84418C0F80480E7
:10CDA00083F82A18F1E68B492846FBF7D9FA884A16
:10CDB000002800F08380EFF31181102383F31288A1
:10CDC0002B889BB243F400732B803319C9B2D3F87C
:10CDD000400800F1010CC3F840C8B5F810C080F855
:10CDE00000C081F31188D3F84018481CC3F84008EC
:10CDF000288A08706FF00101C9E776492846FBF7D9
:10CE0000AFFA734A002859D03319D3F83C180329D4
:10CE100030D1298821F480610904090C2980EFF3BD
:10CE20001180102181F31288D3F8401801F1010C10
:10CE3000C3F840C8B5F810C081F800C0298889B28D
:10CE400041F400712980C1B281F31188D3F84018F0
:10CE5000481CC3F84008288A0870D3F83C180239E7
:10CE6000C3F83C180C2183F82A1813191751C3F87A
:10CE700004808AE6022914D8298821F480610904F3
:10CE8000090C2980298889B241F400712980298AF6
:10CE90001751002183F844181119C1F804800122A8
:10CEA00068E6D3F84018481CC3F84008288A087080
:10CEB000D3F83C180139C3F83C18D6E713191059B8
:10CEC0005968381A42F2107368EB0108984278F1F9
:10CED0000003FFF45AAE331915224BE62B8823F4D6
:10CEE000806332191B041B0C2B8092F8393803F035
:10CEF000FE032B82102382F82A38354B1A191F5152
:10CF0000C2F8048034492846FBF71FFAF8B13319F8
:10CF100093F83B28FF2A04D193F838280AB113224A
:10CF200028E63319112225E6331993F83B282A8283
:10CF3000122283F82A28264B1A191F51C2F804809E
:10CF400026492846FBF701FA08B13319E7E72449D7
:10CF50002846FBF705FA10B1331914220AE61C4BD8
:10CF60001A1918595168ACE733191949D3F83C28F4
:10CF700082B1D3F84008013A10F801CBA5F810C0EF
:10CF8000C3F83C280A190F51C3F84008C2F80480BE
:10CF90001222EFE52A8892B242F400722A800A191E
:10CFA0000F51C2F80480012283F84428E2E52B885F
:10CFB0009BB243F400732B804FF6FF33AB82044BDC
:10CFC0001A191F51C2F80480331968E74000001095
:10CFD000903F00200400001082000700840007003A
:10CFE0000004001038B5114C04EB401494F8295893
:10CFF000D5B1C4F83C38049BC4F84038002384F809
:10D0000044380223490084F83B2884F82A38012256
:10D010009DF8143084F8391884F83A2884F83838A0
:10D02000FFF718FD94F84458284638BD60370020B3
:10D03000F7B50779012F16460BD0022F16D1846859
:10D04000E40758BF41F0800103B0BDE8F040FFF7AE
:10D0500001BB826802F00102CDE900620A46417C10
:10D0600090F91000FFF7BEFF03B0F0BD0020FBE712
:10D070007FB50379012B0D460BD0022B1AD18368A3
:10D08000DB0758BF01F07F0104B0BDE87040FFF737
:10D09000BCBA81688DF80F2001F001010DF10F027B
:10D0A00000920191417C90F910002A46FFF79AFF07
:10D0B00004B070BD0020FBE70068F022FF21D7E735
:10D0C000CA4341EA02120068D2B2D221D0E7006816
:10D0D000B422FF21CCE70A460068A521C8E7552104
:10D0E000F9E700689622FF21C2E70A460068872117
:10D0F000BEE7C90101F0800200687821B8E72DE998
:10D10000F043046889B0B6227E2106462046FFF728
:10D11000AFFF642003F04BFF02212046FFF7DFF84A
:10D120002046FFF714FB00227C212046FFF7A0FFDA
:10D13000012003F03CFF002259212046FFF798FF11
:10D14000012003F034FF5E2394F910208DF81F3086
:10D15000614B142101FB0233D3F8385FA3689A07AF
:10D1600002D4606943F0F2FA01230DF11F0200219D
:10D17000284643F08DFE4FF4A473584A00212846F8
:10D1800043F086FEA3689B0702D42046FFF733FADC
:10D190000A2003F00CFF012259212046FFF768FF07
:10D1A000012003F004FF8C2240212046FFF760FF9E
:10D1B000012003F0FCFE022241212046FFF758FF28
:10D1C000474F012003F0F3FE96F82930F26A4548F4
:10D1D000B0FBF2F03D463A464FF0000C012192F8C8
:10D1E0000690A3EB0908A3EB0C0EB8F1000FB8BF33
:10D1F000C8F10008BEF1000FB8BFCEF1000EF04537
:10D2000002F1060201F10101BCBF4FFA89FC15468B
:10D210000929E4D14FF0000E80B23A7862450CD172
:10D2200069887A88411A821A0029B8BF4942002ABF
:10D23000B8BF52429142C8BF3D460EF1010EBEF149
:10D24000090F07F10607E8D16A7904922A79039257
:10D250006A8802922A780321CDE90002224A01203D
:10D26000FEF790F96A881F4BB3FBF2F373632A79D8
:10D27000422142F0C0022046FFF7FAFE012003F0EF
:10D2800096FE082243212046FFF7F2FE012003F01C
:10D290008EFE042258212046FFF7EAFE012003F00B
:10D2A00086FE0A2253212046FFF7E2FE012003F00A
:10D2B0007EFE00227C212046FFF7DAFE012003F0EB
:10D2C00076FE06227D212046FFF7D2FE012009B01E
:10D2D000BDE8F04303F06BBE000000206461050868
:10D2E0002E61050840420F003FEF050808B53122C6
:10D2F000F4210068FFF7BCFE012008BD10B57822BC
:10D30000044600210068FFF7B3FE052003F04FFE3E
:10D31000202201212068FFF7ABFE052003F047FE25
:10D32000002202212068FFF7A3FE642003F03FFEE5
:10D33000012010BD10B5072204460A210068FFF73E
:10D3400097FE052003F033FE242241212068FFF7D9
:10D350008FFE052003F02BFEC02242212068FFF73C
:10D3600087FE052003F023FE012010BD10B5044602
:10D37000002221210068FFF77BFE2068FC2220218B
:10D38000FFF776FE206840222421FFF771FE206817
:10D390000C222321FFF76CFE206800222221FFF7D8
:10D3A00067FE012010BD10B501220446102100685F
:10D3B000FFF75EFE40B1142003F0F9FD2068A022C3
:10D3C000BDE81040112153E610BD10B501220446FE
:10D3D0000B210068FFF74CFE20B120681D220921B7
:10D3E000FFF746FE00F0010010BD044B0246D3F8E3
:10D3F0008C0808B180213BE6704700BF60370020F1
:10D4000010B5B020FFF7F1FF4020FFF7EEFF00203E
:10D41000FFF7EBFF1020FFF7E8FF4FF48064013CBB
:10D420000020A4B243F091F8002CF8D110BD50397F
:10D4300010B50446C8B2FFF7D8FF04EB4400400023
:10D4400004EB440400F00E00FFF7CFFFC4F3C30069
:10D450001030BDE81040C8E708B55038C0B2FFF73B
:10D46000C4FF0020FFF7C1FFBDE808401020BCE763
:10D47000054B93F89728D3F8900802F0F7020021A3
:10D4800083F89728F4E500BF6037002038B5114CC9
:10D4900004EB401494F82958CDB1C4F83C38049BEF
:10D4A000C4F840380223490084F83B2884F82A381D
:10D4B00000229DF8143084F8391884F83A2884F84A
:10D4C000442884F83838FFF7C5FA94F844582846B9
:10D4D00038BD00BF60370020F7B50779012F164629
:10D4E0000BD0022F16D18468E40758BF41F08001A9
:10D4F00003B0BDE8F040FFF7D5B8826802F0010242
:10D50000CDE900620A46417C90F91000FFF7BEFFAA
:10D5100003B0F0BD0020FBE738B504460068FEF715
:10D5200025FF0D230546C21C0C212068FFF7D4FF00
:10D53000A87028B16B89A383AB89E383EB8923842B
:10D5400038BD13B503230C46006801AA2221FFF75A
:10D55000C3FF30B1BDF9053003EB83031B12E63383
:10D56000238002B010BD37B50623F7210068174CA1
:10D570006A46FFF7B1FF1649F8B19DF801209DF802
:10D5800000309DF80350120142EA03329DF8023048
:10D5900042EA13129DF80430C1F860281B0143EAE7
:10D5A00005339DF80550C4F89C2843EA1513C1F8CB
:10D5B0004038C4F8A03803B030BDD4F89C38C1F866
:10D5C0006038D4F8A038C1F84038F4E7603700205C
:10D5D0007015002013B5044600680379022B0CBFB8
:10D5E0004321032106236A46FFF776FF18B9E08638
:10D5F000A06302B010BDBDF800305BBAE386BDF891
:10D6000002305BBA6387BDF804305BBA2387F0E76A
:10D6100013B50023C38683630446062300686A4665
:10D620000321FFF759FF78B1BDF8003003EB430346
:10D63000E386BDF902305B4203EB43032387BDF869
:10D64000043003EB4303638702B010BD73B5037965
:10D65000012B16460BD0022B16D18368DB0758BF6F
:10D6600041F0800102B0BDE87040FFF743B8826826
:10D6700002F00102CDE900620A46417C90F91000F7
:10D68000FFF704FF02B070BD0020FBE738B5044689
:10D69000154600680A46E121FFF7EAFC28B1206838
:10D6A0002A46FF21BDE83840D0E738BD0A46E121CF
:10D6B000ECE70A46C321E9E738B5021D0D46F02123
:10D6C0000446FFF7E3FF08B123792B7038BDF8B5A6
:10D6D00004460E461546071D20683A46FF21FFF70F
:10D6E000B5FF30B116B12379DB07F5D40DB123793D
:10D6F0002B70F8BD00220121E9E710B50446FFF7C1
:10D70000E6FC18B12046BDE81040F3E710BD10B5A7
:10D710000446FFF7E0FC18B12046BDE81040E9E7F9
:10D7200010BD70B506460C468D18AC4201D10120E3
:10D7300006E014F8011B3046FFF7E9FF0028F4D19A
:10D7400070BDCC21E3E738B504460D46FFF7C9FCB0
:10D7500040B12046FFF7CEFF20B129462046BDE864
:10D760003840A3E7002038BD70B506460C468D183A
:10D77000AC4201D1012006E021463046FFF7E3FF2D
:10D7800001340028F4D170BD38B505461446FFF7C2
:10D79000ACFC2846FFF7AEFF20B11CB12B79C3F3D8
:10D7A0004013237038BD10B50446FFF7A6FF38B10B
:10D7B0002046FFF7C6FF18B12046BDE8104099E7A4
:10D7C000002010BD73B50546CDE90023FFF795FF96
:10D7D000A8B12846FFF783FC88B12846FFF78AFFE7
:10D7E00068B16E46082416F8011B2846FFF78FFF24
:10D7F00028B1013C14F0FF04F5D102B070BD002047
:10D80000FBE7C90138B501F0800104461546FFF772
:10D8100070FC08B9002038BD002201212046FFF726
:10D8200056FF0028F6D023795B092B70F3E72DE92A
:10D83000F04F87B0CDE90212002580460493019590
