:020000040800F2
:100000000000022049A20508E5980008E530020832
:10001000F9A20508F9A20508F9A2050800000000E8
:10002000000000000000000000000000C9A400085B
:10003000CBA4000800000000CDA40008A51601080C
:10004000F9A20508F9A20508F9A20508F9A2050810
:10005000F9A20508F9A2050833C7000837C7000848
:10006000F9A205083BC700083FC70008199F000810
:100070002D9F0008419F0008559F0008699F0008B8
:100080007D9F0008919F0008F9A20508000000006C
:1000900000000000000000000000000043C700084E
:1000A000519E0008799E0008A19E00083D9E000810
:1000B000C99E0008DD9E0008F19E0008F9A205080F
:1000C000F9A20508F9A20508F9A20508F9A2050890
:1000D000F9A20508FD990008099A0008000000002F
:1000E00047C70008F9A20508CFA4000800000000D7
:1000F000000000000000000000000000A59F0008B4
:1001000000000000F9A20508059F0008F9A20508F3
:1001100000000000000000000000000000000000DF
:10012000B99F0008CD9F0008E19F0008F59F0008D7
:1001300009A000080000000000000000000000000E
:1001400000000000000000000000000019A50008E9
:100150001DA0000831A0000845A00008F9A205086C
:10016000F9A20508F9A2050800000000000000003F
:10017000000000000000000000000000000000007F
:1001800000000000F9A205080000000000000000C7
:08019000F9A20508F9A2050817
:08019800E892050001000000DF
:1001A0007C3C012002010000030014009C3C012063
:1001B0000202000003001400BC3C0120010B0000FF
:1001C00000007700DC3C0120010C000000007600FC
:1001D000FC3C0120010D0100000077001C3D0120C6
:1001E0000114000000001E003C3D0120011A000027
:1001F00000000D005C3D0120011B000000000E000E
:100200007C3D0120011C000000001E009C3D0120DF
:100210000117000000000C00BC3D01200118000087
:1002200000000E00DC3D0120012801000000180044
:10023000FC3D012001200000000048001C3E012080
:1002400001210000000049003C3E01200122000085
:1002500000004A005C3E01200123000000004B002A
:100260007C3E01200124000000004C009C3E012047
:100270000125000000004D00BC3E012001260000C9
:1002800000004E00DC3E01200127000000004F006E
:10029000FC3E0120012B0000000029001C3F012032
:1002A000012C0100000029003C3F0120012D01002C
:1002B000000070005C3F0120012F000000003100B1
:1002C0007C3F0120012E0100000052009C3F0120D4
:1002D0000130010000002800BC3F01200131010075
:1002E00000002800DC3F01200229050000012C004D
:1002F000FC3F01200134000000003C001C400120B4
:0803000001370000000020009D
:10800000D0E907239A423CBFC1685218D01A704782
:10801000D0E9092300699A4238BF1218D31A0138EF
:10802000C01A7047D0E90902131A584258417047E4
:10803000036A41690246C85CD16801338B4228BF9C
:10804000002313627047436A8269D154436A02690C
:108050000133934228BF0023426B4362D36843F04D
:108060008003D3607047436B188810F010001EBF68
:108070001A889B8801207047436B99891A88890662
:1080800010B592B2044607D5900605D5E26A2AB328
:108090009888216B80B29047636B99891A8809068A
:1080A00092B210D510060ED5D4E909128A4223D017
:1080B000A169895CC9B2998021690132B2FBF1F0F2
:1080C00001FB1022A262998A1A88C90592B204D5CE
:1080D000D20744BF4FF6F7721A8010BD9B88E26941
:1080E0006169DBB28B54E369E2680133B3FBF2F1FF
:1080F00002FB1133E361CFE7DA6822F08002DA6035
:10810000E1E70028ACBF00F16040074B4FEA0111E6
:10811000ACBF00F5614000F00F00C9B2B4BF195404
:1081200080F80013704700BF14ED00E00369416858
:108130001F2B30B54FF0200285BFA3F120054C68FE
:108140000C68AA4098BF9A4022421DD08269002044
:108150001074D0688468206820F0010020605468A2
:1081600020686579094C828934F8154092B21F2B3A
:1081700022EA0402828188BF203B4FF020028BBF9D
:108180009A409A40CA608A6030BD00BF140E06084B
:10819000F0B5EFF31184102383F31288C5684668A5
:1081A000AA68136823F00103136032687779104ED0
:1081B000938936F817609BB223EA060393812A69F4
:1081C0006D681F2A4FF0200385BF203A93409340EB
:1081D000EB6098BFAB60E3B283F31188C3689B6820
:1081E00059601A6842F001021A6001230374F0BD5D
:1081F000140E06080268137D012B04BF02231375B9
:1082000092F82C100CBF4FF400730023012904BF17
:10821000022182F82C1092F8441008BF43F48063C6
:10822000012904BF022182F8441092F85C1008BFB3
:1082300043F4006301290DD1022182F85C1043F45C
:1082400080534268126800215162918989B20B43C0
:10825000938101E0002BF4D170470E4BDA68D20312
:1082600010D4DA68D1060FD4DA68D2050ED4DA68F1
:1082700012F0E00F0CD1DB6813F0020F0CBF0920E5
:108280000820704701207047062070470220704781
:1082900007207047003C024007B509238DF80730DE
:1082A000FFF7DBFF8DF807009DF80730012BF7D0B3
:1082B0009DF8070003B05DF804FB838A028B9BB234
:1082C00043EA024399430CBF01200020704782B06B
:1082D000002301930093012300900193019B63B15C
:1082E000009A21F07F4314320092009A12681A42D9
:1082F00014BF0120002002B07047009A1832F3E743
:1083000070477047704701207047034BD3E9000363
:10831000C01AC0F30A00704778180020054AD2E955
:1083200000138B42FDD0D1180133C3F30A03087A3E
:108330005360704778180020044BD3F8080820B128
:10834000D3F80808431F5842584170477818002056
:10835000012380F849307047044BD3E90003C01A69
:10836000C0F30A00C0F50060704700BF7818002015
:1083700010B5D0F8E83504461B699847032384F804
:108380001231002010BD08B590F8123180F8133179
:10839000042380F81231D0F8E835DB6898470020D4
:1083A00008BD08B5D0F8E435DB6903B19847002073
:1083B00008BD08B5D0F8E4351B6A9847002008BD11
:1083C00008B5D0F8E4355B6A9847002008BD10B5C1
:1083D000074C2068FF2808D00649D1F80C2801F581
:1083E000016100F037F8FF232360002010BD00BFBB
:1083F0000000002078180020432301480B807047BC
:1084000004000020122301480B8070474700002021
:10841000042301480B8070475900002070477047C3
:1084200070477047704770477047054B0020052222
:10843000C3F80828C3F81808C3F81C08704700BF21
:1084400078180020024B0020C3F80808704700BFCE
:1084500078180020212838B50C461BD022282BD0B4
:10846000202815D1A1B1072A12D11A4DD5F81C38F0
:1084700013B10968002098472368C5F8203823798C
:1084800085F82438637985F82538A37985F8263866
:10849000002038BD0029FBD0072AF9D10D4BD3F8B5
:1084A00020280A6093F824280A7193F825284A7135
:1084B00093F826388B71EBE70029E9D0022AE7D13F
:1084C000044BD3F81838002BE2D0098800209847D5
:1084D000DEE700BF7818002030B50E4CD4E900323A
:1084E0009A1AC2F30A020A44B2F5006F10D8014486
:1084F0000022814203D102B12360002030BDE21886
:1085000010F8015B15720133C3F30A030122F0E78F
:108510000220F3E77818002070477047D0ED007A0A
:10852000D0ED036A30EE677AE6EE877AB0EE670A3E
:10853000C0ED007A704790ED017AB5EE407AF1EE29
:1085400010FAF0EE407A09D19FED0E7A60EE870ABC
:10855000F7EE006A86EEA07A80ED017A90ED017A5E
:1085600090ED000A80ED021A31EE077A77EEC07ABC
:10857000C1EE076AA6EEA70AC0ED036A80ED000A05
:10858000704700BFDB0FC940D0ED056AD0ED017A1E
:1085900090ED026AD0ED045AB0EE407A26EEA70ABA
:1085A000D0ED007A80ED057AA7EE870AD0ED067A45
:1085B000C0ED066AA6EE270AD0ED077A90ED036AB1
:1085C000A6EE670A90ED086AC0ED087AA5EEC60A25
:1085D00080ED070A7047B0EE407AD0ED007A90ED5A
:1085E000050AD0ED016AA7EE870AD0ED037A67EE9F
:1085F000C07AE6EE877AD0ED066A76EEA77AD0EDFD
:10860000026AC0ED057AD0ED047A67EEC07AE6EE34
:10861000877AC0ED067A704703685A1C02601970A9
:1086200070472DE9F04F89B083680793D0E9003295
:108630000292013292FBF3F103FB11224260029A93
:10864000DFED967A00EB820282ED200AB1EE400A5D
:1086500082ED400A00F18006A3F1020E00F5807061
:108660000124B0EE670A079AA24208DA30EE670AE0
:10867000F6EE007A20EE270A09B0BDE8F08F029AE4
:10868000CDF80CE00EEB020191FBF3F203FB1211AB
:108690004A1C92FBF3F503FB152206EB810500EB68
:1086A0008101D1ED006A0591A11895ED007A04953C
:1086B0001F1B91FBF3F503FB15110091F04601918F
:1086C00015460697039F06998F420CDB049991ED9E
:1086D000007A0599D1ED006A0699884574DB01346A
:1086E000AEF1020EBFE7AB42D8BF002506EB85090D
:1086F000019999ED000A8B42D8BF0021B4EEC70A58
:1087000000EB850A00EB810BF1EE10FADAED007A4E
:108710009BED006A01914FEA810C10DCF4EEE67AE1
:10872000F1EE10FA2EDC0199039F0131013701357A
:1087300001910397F0EE676AB0EE407AC2E7B44465
:10874000DCED005AB4EEE50AF1EE10FAE6DDF4EEE7
:10875000C75AF1EE10FA58BFB0EE657A89ED007A8B
:10876000AC464FF001094C45D8D00CF1010C6345E3
:10877000D8BF4FF0000C06EB8C0B8BED007A09F1A3
:108780000109F0E7F4EEC67AF1EE10FACBDDB4EEB3
:10879000E66AF1EE10FA54BFB0EE460AB0EE660A91
:1087A0008AED000AAC464FF001094C45BBD00CF1F4
:1087B000010C6345D8BF4FF0000C00EB8C0A8AED2A
:1087C000000A09F10109F0E79342D8BF002206EB45
:1087D0008207009997ED000A8B42D8BF0021B4EEC2
:1087E000C70A00EB820C00EB8109F1EE10FADCED18
:1087F000007A99ED006A00914FEA810516D535445B
:10880000D5ED005AB4EEE50AF1EE10FA0ED5F4EE0D
:10881000C75AF1EE10FAD4BFB0EE650AB0EE470ABF
:1088200087ED000A15460127BC4223D1F4EEE67A13
:10883000F1EE10FA13D5F4EEC67AF1EE10FA0ED579
:10884000B4EEE66AF1EE10FAD4BFF0EE467AF0EE3E
:10885000667ACCED007A15460127BC4214D1009906
:1088600001310132009108F10108F0EE676AB0EEC3
:10887000407A31E70135AB42D8BF002506EB8509C8
:1088800089ED000A0137CFE70135AB42D8BF00259B
:1088900000EB850CCCED007A0137DEE7000000002C
:1088A00003690133012B036108D1DFED117A80EDFB
:1088B000010A80ED000AC0ED027A704790ED006A6F
:1088C00007EE903A70EE466AF8EEE77A86EEA77AFF
:1088D000D0ED027A37EE067A30EE470A80ED017A63
:1088E000E6EE807AB0EE470AC0ED037AE1E700BF1A
:1088F0000000000003685A1C02601970704700797C
:1089000070470079C0F34010704700794009704704
:1089100090F83C20034602F0FF0012B1002283F8D9
:108920003C2070474FF40063838170474FF400632D
:108930008381704710B5064A0423002152F8044B86
:10894000844208BF42F8041C013BF7D110BD00BFB0
:10895000A0200020354BF0B5B3F83808B3F84648EE
:10896000B3F95058B3F94A78B3F940E8B3F9586805
:10897000001BB3F844486043B3F94E4805EBE035BB
:10898000E40294FBF5F404EBE034A4F57A60B3F967
:108990003E58C3F8544800FB00FC4FEA2C3C4543CA
:1089A0000CFB07F700FB0EFEED12B3F9480805EBD0
:1089B000E725B3F93C780CFB00F0001405EB8705C4
:1089C000B3F842C8D3F85C3800EB6E30B5400230E3
:1089D0000235A3EBA50580104CF2503300F50040A2
:1089E00033416B430CFB00F04FEAD03055BF5B00C6
:1089F000B3FBF0F3B3FBF0F35B0071B1181240F678
:108A0000DE35404368430A4D00145D4300EB2540CA
:108A100000F6CF6003EB20130B6022B10A235C4306
:108A20000834241114600120F0BD00BF7818002024
:108A300043E3FFFF01207047012070472DE9F74F06
:108A4000624E9046B6F86438D6F86028B6F974C815
:108A5000B6F97278B6F970B8C3EB22155B00C3EBB8
:108A6000E203B6F966286D435343B6F968282D131F
:108A70005543AD1305EBE325D6F880380093A5F5F3
:108A8000FA30B6F96E38C6F87C58894680FB001E6D
:108A9000DA1703FB0EF401FB0244A3FB013214447A
:108AA000B6F96C2882FB00A21B0A120343EA046396
:108AB00042EA1A524FEA0A3A13EB0A0342EB242223
:108AC000B6F86AA802F500420192A3FB0A23019AB4
:108AD0000AFB023A4FEAEA734FEA6A0253EA6A0A69
:108AE0004FF000045ED087FB00704FEAEC7A0CFB7D
:108AF0000EFE400401FB0AEE40EAD730ACFB011C3D
:108B00007F047F180099F4444CEB0000C1F5801CF1
:108B10000CF00041E71941EA5C014FEACC7CBCEB68
:108B2000070C40F6354400EBCB0061EB0001ACFBD9
:108B3000040C04FB01C151F01DFB84460746430BA6
:108B4000B6F97A084A1343EAC14300FB02FEC41790
:108B500003FB04EEA0FB03407044624303FB0022CE
:108B6000A4FB03431A44B6F97838640E44EAC214ED
:108B70004FEAE37E03FB01F0E4190EFB0C00A3FBBC
:108B80000C3738444FEAD34343EA403341EB626247
:108B9000E41842EBE042B6F97638240A44EA02646B
:108BA00004EB0314B9F1000F02D0240AC9F8004005
:108BB000B8F1000F05D005EB850580352D12C8F8FA
:108BC0000050012003B0BDE8F08F00BF78180020EE
:108BD0002DE9F74FCDE90012574AB2F89238D2F892
:108BE0008418B2F88E68B2F894781B02C91AB2F8E9
:108BF00090386EEB0E0EA3FB010403FB0E44B2F89B
:108C00008C38C00940EA44601B04C018A6FB01353B
:108C100006FB0E55B2F88A684FEA132343EA056350
:108C20004FEAC6364FEAE41444F100049B19A7FB4F
:108C3000012607FB0E664FEAD25242EA46224FEA6D
:108C4000252545F10005F61512F5FA6C46F1000BE5
:108C5000BCF5FA6F7BF1000750DA02FB06F8A2FBC5
:108C600002794FF0050A09EB4809A7FB0A780AFBCD
:108C700009884FEA570949EAC879BF08B0EB0909E2
:108C800047EA887764EB6804DF1B3B462B4F65EBB4
:108C9000A805BC454FF0FF377BEB0707484622DAB3
:108CA00040F6AC57D21946F100065643A2FB0272B9
:108CB00002EB46024FEAC208FE00BE1B48EA5778A4
:108CC00062EB0808361844EB08044FF00B083046F6
:108CD000A7FB087608FB02627F0847EAC277DF1B22
:108CE0003B4665EB620501FB0EFEA1FB011202EBA8
:108CF0004E02C90F41EA4201BCEB010C009A9AB145
:108D00000D4AD2F89818A1FB033201FB05225B0D36
:108D100043EAC2231B1A4FEA625262EB0402DB0BE6
:108D200043EA4243009A1360019B0BB1C3F800C0B1
:108D3000012003B0BDE8F08F7818002024FAFFFF6F
:108D400001207047054901F69C0300221A605A6011
:108D50009A600023C1F8A8380120704778180020D5
:108D6000114BD3F8AC28D3F8A818521AFA2A18D8FD
:108D700003F69C03D3ED007AFDEEE77A17EE902A16
:108D8000D3ED017AC286FDEEE77A17EE902AD3ED95
:108D9000027A0287FDEEE77A17EE903A43870120C8
:108DA00070470020704700BF781800202DE9F84375
:108DB000D0F8148007468946B8F1000F57D10568EE
:108DC000C5F30D0606B3D9F80060FFF765FA092868
:108DD00040F08680444C236923F440732361236967
:108DE00043F400732361236943F0010323612E6080
:108DF000FFF752FA2369092823F0010323616FD199
:108E00003B6804333B6032E0384B9D4229D303F585
:108E100080439D4224D303F580439D422AD3344BA3
:108E20009D4229D903F580339D4227D903F50033AC
:108E30009D4225D903F500339D4223D903F5003324
:108E40009D4221D903F500339D421FD903F58023AC
:108E50009D421DD9B5F1016F1CD3052008F0CFFC50
:108E60000826FFF719FA092816D04FF0FF384046B8
:108E7000BDE8F8831026F4E71826F2E72026F0E78D
:108E80002826EEE73026ECE73826EAE74026E8E732
:108E90004826E6E75826E4E7134C236923F4407399
:108EA0002361236943F400732361236923F0F803EA
:108EB00023612369334343F002032361236943F4AD
:108EC00080332361FFF7E8F9236923F0020323616C
:108ED0002369092823F0F80323613FF474AFC4E742
:108EE0006FF00108C3E700BF003C024000400008EB
:108EF000FFFF000803682DE9F0410D464168134467
:108F00008B42044619D8AE1800F10C074FF0000848
:108F1000B54202D16069BDE8F08123695A1C226123
:108F2000234415F8011B1973042AF1D13946204650
:108F3000FFF73CFFC4E90480EAE74FF0FF30EAE7BF
:108F40002DE9F341038A8689B6B205460C461E40D8
:108F50004FF0004816B902B0BDE8F081B6FA86F3CA
:108F600028FA03F2D24391B2298216401B3B002C0F
:108F70003ED0042BEED8DFE803F037312B25030079
:108F8000E368EF6A23B19B6813B1B9B2201D98471B
:108F9000636A2BB19B681BB1B9B204F11C009847FE
:108FA000E36B2BB19B681BB1B9B204F13400984755
:108FB000636D002BCED09B68002BCBD0B9B204F1EF
:108FC0004C0003E0E368696B5B68201D9847C1E7CC
:108FD000636AA96B5B6804F11C00F7E7E36BE96B5C
:108FE0005B6804F13400F1E7636D296C5B68E6E7C8
:108FF000042B06D8DFE803F00D0B09070300EB6A2A
:109000000193019BA6E76B6BFAE7AB6BF8E7EB6BA1
:10901000F6E72B6CF4E72DE9F0410D4DDFF83480D5
:109020002C686B6901271C400CB9BDE8F081B4FACB
:1090300084F3C3F11F0307FA03F608EB830324EA62
:109040000604D3F8B008036898476E61ECE700BFE8
:10905000003C01407818002090F84820531C02443E
:10906000DBB280F8483082F8341090F849200AB119
:10907000132B01D94FF0C1BF7047002280F849205F
:109080004FF0BBBF70B5134D044695F8F038002B78
:10909000FBD16618B44204D1002070BD012008F055
:1090A00099FBD5F8F438D5F8F8280133C3F30A034F
:1090B0009342F3D0D5F8F43814F8012B2B4483F8FD
:1090C000FC28D5F8F4380133C3F30A03C5F8F438A3
:1090D000E0E700BF7818002038B50C461146FFF7CE
:1090E0002BF948B1054D002AD5F8AC3804DD2046EF
:1090F000FFF7C8FFD5F8AC3838BD00BF781800209E
:10910000F0B585B0D0F8CC1590F8CC650291D0F8C8
:10911000D0150391012180F8111106F01F01B0F85C
:10912000D22590F8CD75B0F8CE35B0F8D055C0F84E
:1091300040210129044600F00481022900F0158134
:10914000002940F08C81092F5ED8DFE817F0B400C9
:10915000EF005D00C4005D0057000A005D00A7003D
:1091600076001D0A022DADF806200BD0032D25D068
:10917000012D49D1D0F8EC351B68A0780DF106011E
:10918000984709E0D0F8E43580789B6A0DF1060134
:1091900098474570C4F8F005BDF80620002A47D06E
:1091A000BDF80E30002B43D09A4228BF1A46ADF8C6
:1091B0000620014620464FF025FE39E0DBB2052BA4
:1091C00022D8DFE803F003070B0F1317D0F8EC35B4
:1091D0005B68D2E7D0F8EC359B68CEE7D0F8EC3589
:1091E000DB68CAE7D0F8EC351B69C6E7D0F8EC3588
:1091F0005B69C2E7D0F8EC359B69BEE72A4303D12F
:1092000090F81211032903D120464FF04FFD0FE0D3
:1092100003F07F05016980F8145163F30A120B68AB
:109220001A430A604FF002FE2DB1022384F8123176
:10923000002005B0F0BD0123F8E7D9B2894D01291E
:109240002971E1D890F81231022B0FD0032BDBD11A
:10925000C1B9022380F81231D0F8E43580F810113A
:109260005B68984720464FF0E1FDE1E70029F9D01F
:109270000121032380F8101180F8123120464FF0AD
:10928000D7FCEFE790F810110129EBD0D0F8E435C6
:109290005B689847297984F81011EFE7012AB3D168
:1092A00090F81231022B04D0032BADD100F5887158
:1092B00080E76D497EE790F81231023B012BA3D87D
:1092C000684B0022DA60D0F818210AB10222DA6075
:1092D000664902226EE7012B08D1C4F81831D4F890
:1092E000E43502A99B6820469847BBE7022B9FD133
:1092F000EBB2002B9CD103692D0A023D5A68032D65
:1093000012D8DFE805F0020B0D0F022363F30612FB
:10931000544B1A61012384F81631A3E70323F5E7C0
:109320000423F3E70523F1E70123EFE790F8122187
:10933000023A012A3FF668AF012B7FF479AF002390
:10934000CBE790F81231032B7FF45EAFEDB2012D25
:109350003FF65AAFD0F8E43502A99B689847BDF8AC
:109360000E30002B7FF464AF7CE706F06006202E01
:10937000E9B205D1D0F8E43502A99B68984757E7D0
:10938000012F33D0032F21D0002F7FF451AF90F85D
:109390001231022B5DD0032B7FF436AF15F0800F16
:1093A0004FF028031BBF01F07F0103FB010103FB0A
:1093B000010191F81E3108BF91F876332949003B2D
:1093C00018BF012341F8143F0222F3E690F812215E
:1093D000022A3ED0032A7FF417AF002B7FF47FAF21
:1093E0004A063FF47CAF4FF02FFC78E790F812214B
:1093F000022A2ED0032A7FF407AF002B7FF418AF88
:1094000011F07F023FF42EAF6DB22823002DB5BFBF
:1094100003FB020303FB010303F58E7303F55D7386
:10942000002199701A70E90F00EB82025970002D2B
:10943000B4BF9269526DD9781368023923F40013CE
:1094400001298CBFC3F30071012161F31C73136008
:1094500045E74B063FF4ECAE4FF0F6FBE8E606F0CE
:109460008001F9E770290020782900207C2900205C
:1094700010B5044671BB90F81131032B1BD1D0F805
:109480009023D0F87C339A4217D9C178012908BFBC
:10949000D0F88013A2EB030204BFC918C0F88013F0
:1094A000934228BF1346C0F890239BB2D0F8802384
:1094B00000214FF06BFD002010BDD0F8E4351B6992
:1094C00023B190F81221032A00D1984720464FF08B
:1094D000ADFCF0E7D0F8E4359B69002BEBD090F8B9
:1094E0001221032AE7D19847E5E770B50A7812F010
:1094F000600305460C4628D0202B2DD1CB884E7812
:10950000EBB112060AD51C491A463046FEF7A2FFF7
:10951000E288194928464FF075FC0EE0174A16609C
:10952000174A0321C2F80C3880F81111C0E9E4335E
:1095300002F5016200214FF029FD002070BD0222DA
:1095400011443046FEF786FFF7E74B780A2B08D028
:109550000B2B09D0062BF0D128464FF0A7FB022099
:10956000ECE708490122D6E78B7813B9064A9361E4
:10957000E3E74FF09BFBE0E788200020000000209D
:1095800078180020882900207029002038B5282369
:1095900003FB0101074DB1F88C1304462846FEF782
:1095A0009BFF204640232A4601214FF0EFFC00207C
:1095B00038BD00BF8C290020002310B51946044691
:1095C00040224FF081FB40228021204600234FF0B3
:1095D0007BFB012384F81231D4F8E835A0785B686E
:1095E0009847002010BD38B540220446022381214F
:1095F0004FF06AFB20460223402201214FF064FB1A
:1096000020460323082282214FF05EFB084B0222F2
:10961000002583F84B2083F84C500121FEF705FF0D
:109620002046044A40234FF0B1FC284638BD00BF15
:10963000000000208C29002038B50122044640F2A9
:109640000113A0F84431012511464FF0BDFC294615
:109650002046A4F89C5300224FF0B6FC4FF48173CF
:10966000A4F86C3120462A4602214FF0ADFCFEF7EB
:10967000E9FE002038BDF8B5214C94F8F028012A05
:1096800003462CD11F4FFD6D15B984F8F05822E028
:10969000402D22D8AEB2402E02D1022284F8F0280A
:1096A000D4F8F818184A0A44C3E9542240F20111C8
:1096B0000022A3F84411C3E9566203F5A2711846CB
:1096C0004FF0CBFBD4F8F8383344C3F30A03AD1B97
:1096D000C4F8F838FD650020F8BD4026E0E7022A0E
:1096E000F9D1002540F20112C0E95455C0E95655A0
:1096F000A0F8442100F5A2714FF0AFFBC5E700BF11
:10970000781800207029002074210020F8B5264F19
:109710003B6E0F2B03F1010202D03A660020F8BD28
:10972000224C00233B6694F8F038002BF6D1D4F895
:10973000F828D4F8F4389A42F0D0D4F8F828D4F8BD
:10974000F4389A4295BFD4F8F458D4F8F858D4F8BD
:10975000F838C5F5006598BFED1A402D21D8AEB296
:10976000402E0CBF02230123D4F8F82884F8F038E7
:109770000F4B1344C0E9543340F201120023C0E9F7
:109780005663A0F8442100F5A2714FF066FBD4F8AF
:10979000F8383344C3F30A03AD1BC4F8F838FD6549
:1097A000BCE701234026DFE770290020781800205D
:1097B0007421002008B502484DF054FB014808BD53
:1097C00039B50608D429002008B502484DF04AFBF7
:1097D000014808BD3EB50608D429002008B5024856
:1097E0004DF040FB014808BD48B50608D4290020CB
:1097F00008B502484DF036FB014808BD52B50608D1
:10980000D429002008B502484DF02CFB014808BDC2
:109810005DB50608D4290020024BD3F8640107F097
:1098200049BE00BF7029002008B500684FF053F80A
:10983000024BC3F88408012008BD00BF781800203F
:1098400008B500684FF047F8024BC3F898080120AC
:1098500008BD00BF7818002010B50D4B0D4CD3F893
:10986000AC38D4F868011B1AFA2B06D904201FF073
:10987000D7FD002084F86C0110BD11B1D4F870310F
:109880000B6012B1D4F8743113600120F4E700BF0B
:1098900078180020702900200E49D1F8883043F450
:1098A0007003C1F888300C4B1A68002042F00102A6
:1098B0001A6098601A6822F0847222F480321A606A
:1098C000064A5A601A6822F480221A60D860044B53
:1098D0008B60704700ED00E000380240103000243B
:1098E00000000008704782B00023019300933B4BB7
:1098F0001A6842F480321A601A6802F40032009248
:10990000019A01320192009A1AB9019AB2F5A04F58
:10991000F2D11B6813F4003318BF01230093009B9E
:10992000012B55D12D4B2E491A6C42F080521A64EE
:109930000A6842F440420A609A689A609A689A609B
:109940009A6842F480529A60264A5A601A6842F035
:1099500080721A601A689001FCD5234A40F20271A5
:1099600011609A6822F003029A609A6842F002023B
:109970009A601A4B9A6802F00C02082AFAD19A6887
:1099800002F00C02042A25D0082A25D159685A6809
:109990005B684902C3F388134CBF1449144902F0B1
:1099A0003F02B1FBF2F253430C4A5268C2F3014248
:1099B00001325200B3FBF2F3084A91680D4AC1F339
:1099C00003110A44127AD3400B4A136602B070475F
:1099D00000BFFDE7054BEFE7054BEDE70038024020
:1099E0000070004008304004003C024000127A0041
:1099F0000024F400140E0608000000200148FEF7C1
:109A00003BBB00BF680000200148FEF735BB00BF2C
:109A1000B4020020064A002352F83310814201D1DB
:109A2000D8B2704701330E2BF6D1FF20704700BF2C
:109A30002C0E0608704770B5002828D04C684CB929
:109A4000426815685679AB8902229BB2B24023EA7C
:109A50000203AB818A683AB943681D68AB8923F079
:109A600001031B041B0CAB81816044B1436819687E
:109A70005D798C890223AB4023439BB28B8132B149
:109A800043681A6893899BB243F00103938170BDC8
:109A90000B4B30B51A4600241D79854208D1DD688C
:109AA000294203D0142303FB042030BD0029F9D040
:109AB0000134092C03F11403EED10020F5E700BFB7
:109AC000FC04002038B503681B681C68244B07EEB3
:109AD000902A93ED187AF8EE677AB8EE477A013952
:109AE00087EE270A8DB2DFED1F7A30EE270A51F09C
:109AF00095FA1D4A23880138944280B29BB212D055
:109B000002F5806294420ED0B4F1804F0BD0A2F5E2
:109B10008032944207D002F58062944203D002F56D
:109B20008062944206D123F070039BB223F4407309
:109B30009BB206E00D4A944203D002F58062944243
:109B4000F4D12380084BE5629C42208503D003F5C5
:109B500080639C4201D1002323860123A38238BD68
:109B6000000000200AD7233C000001400010004004
:109B7000F0B543689A795D7912F0040002F0020CA6
:109B800011BF0022E6464FF4807284460FBF0124C5
:109B9000964604201446032D38D8DFE805F0023835
:109BA00072AC1B681D8C25F001052D042D0C1D8445
:109BB0001D8C9F881E8B25F002052D0444EA0E049F
:109BC0002D0C26F073062543634C3604360CA34255
:109BD000BFB246F0600603D004F58064A34209D109
:109BE0004FF6F3742C4044EA0C0427F4407744EA1F
:109BF000000517439F801E8359631D841A8B22F032
:109C000008021204120C42F008021A83F0BD1D680B
:109C10002B8C23F010031B041B0C2B842B8CAF8884
:109C20002E8B23F020031B0444EA0E041B0C26F4A5
:109C3000E64643EA0413484C3604360CA542BFB24C
:109C400046F4C04603D004F58064A5420CD123F04D
:109C5000800343EA0C1323F040039BB227F44067D0
:109C600043EA001347EA8207AF802E83A9632B845F
:109C70002B8B23F400631B041B0C43F400632B8326
:109C8000C4E71D682B8C23F480731B041B0C2B84EE
:109C90002B8CAF88AE8B23F400731B0444EA0E04B4
:109CA0001B0C26F0730643EA04232B4C3604360CB7
:109CB000A542BFB246F0600603D004F58064A54219
:109CC0000CD123F4006343EA0C2323F480639BB29A
:109CD00027F4405743EA002347EA0217AF80AE83D8
:109CE000E9632B84AB8B23F008031B041B0C43F0AC
:109CF0000803AB838AE71B68188C20F480500004AB
:109D0000000C1884188C9E889D8B20F40050000451
:109D100044EA0E04000C25F4E64540EA04300E4CFB
:109D20002D042D0CA342B6B245F4C04503D004F572
:109D30008064A34203D126F4804646EA82169E80C0
:109D40009D83196418849A8B22F400621204120C09
:109D500042F400629A8359E7000001400A4B10B5B3
:109D6000D3F8784124B1094A03212046FFF7AAFE1F
:109D700020460021FFF7FCFE20460549BDE81040C3
:109D800040F62B424DF08CB870290020009F240033
:109D90003C47002038B5104CD4F8785125B10F4A13
:109DA00064212846FFF78EFE00212846FFF7E0FEDB
:109DB0006B681A68B2F844306FEA43436FEA534362
:109DC0009BB2A2F8443013889BB243F00103138086
:109DD000012384F87C3138BD70290020009F2400C5
:109DE00043685A79032A0FD8DFE802F00205080B0E
:109DF00018683430704718683830704718683C303D
:109E000070471868403070470020704710B54368AD
:109E10001A685879084B0344012093F88840138C42
:109E2000A0409BB223EA00031384138CA140194382
:109E300089B2118410BD00BF140E0608024B0348FE
:109E4000D3F88011FFF77CB8702900200000014092
:109E500010B5064C0648D4F88011FFF771F8D4F815
:109E6000A0110448BDE81040FFF76AB8702900202F
:109E7000000001400040014010B5064C0648D4F8EF
:109E80008011FFF75DF8D4F8A4110448BDE8104034
:109E9000FFF756B87029002000000140004401403F
:109EA00010B5064C0648D4F88011FFF749F8D4F8ED
:109EB000A8110448BDE81040FFF742B870290020FF
:109EC0000000014000480140034B4FF08040D3F8B0
:109ED0008411FFF735B800BF70290020024B0348FA
:109EE000D3F88811FFF72CB8702900200004004037
:109EF000024B0348D3F88C11FFF722B870290020D9
:109F000000080040024B0348D3F89011FFF718B83F
:109F100070290020000C00400348D0F8BC3513B174
:109F200000F5B66018477047000000200348D0F8DD
:109F3000DC3513B100F5BA60184770470000002007
:109F40000348D0F8FC3513B100F5BE6018477047E0
:109F5000000000200348D0F81C3613B100F5C260A1
:109F600018477047000000200348D0F83C3613B172
:109F700000F5C66018477047000000200348D0F87D
:109F80005C3613B100F5CA60184770470000002026
:109F90000348D0F87C3613B100F5CE6018477047FF
:109FA000000000200348D0F89C3613B100F5D260C1
:109FB00018477047000000200348D0F8BC3613B1A2
:109FC00000F5D66018477047000000200348D0F81D
:109FD000DC3613B100F5DA60184770470000002046
:109FE0000348D0F8FC3613B100F5DE60184770471F
:109FF000000000200348D0F81C3713B100F5E260E0
:10A0000018477047000000200348D0F83C3713B1D0
:10A0100000F5E66018477047000000200348D0F8BC
:10A020005C3713B100F5EA60184770470000002064
:10A030000348D0F87C3713B100F5EE60184770473D
:10A04000000000200348D0F89C3713B100F5F260FF
:10A050001847704700000020036823F001030360E5
:10A060000023036043608360C36003612123436175
:10A070002A4B984203D13D2243F8082C7047284BC5
:10A08000984204D14FF4746243F8202C7047254B5A
:10A09000984204D14FF4741243F8382C7047224B85
:10A0A000984204D14FF0746243F8502C70471F4B14
:10A0B000984203D11E4A43F8642C70471D4B9842C6
:10A0C00003D11D4A43F87C2C70471C4B984203D1A6
:10A0D0001B4A43F8942C70471A4B984204D14FF016
:10A0E0003D5243F8AC2C17E0174B9842C3D0174BA6
:10A0F0009842C7D0164B9842CCD0164B9842D1D03C
:10A10000154B9842D6D0154B9842DAD0144B984252
:10A11000DED0144B9842E2D0704700BF106002407E
:10A120002860024040600240586002407060024077
:10A130003D00002088600240400F0020A0600240E7
:10A1400000003D20B86002401064024028640240D4
:10A1500040640240586402407064024088640240D7
:10A16000A0640240B86402402DE9F04100220126BB
:10A1700003250B6806FA02F737EA030334D10368B4
:10A18000540005FA04FE23EA0E0303600B79D0F8AD
:10A1900000806FEA0E0C03FA04FE013B4EEA080E43
:10A1A000012BC0F800E014D883680CEA0303836035
:10A1B0004B79D0F808C0A34043EA0C03836043689E
:10A1C00023EA070343608B79476893409BB23B4384
:10A1D0004360C36805FA04F723EA0703C360CB7939
:10A1E000C768A3403B43C3600132102AC1D1BDE818
:10A1F000F081204B9A6802F00C02042A10B534D08A
:10A20000082A34D159685A685B684902C3F3881335
:10A210004CBF1949194902F03F02B1FBF2F2534316
:10A22000144A5268C2F3014201325200B3FBF2F306
:10A23000104C0360A168124AC1F30311114491F854
:10A240008C10CB404360A168C1F38221114491F886
:10A250008C1023FA01F18160A168C1F342310A44F4
:10A2600092F88C20D340C36010BD034BE0E7034B52
:10A27000DEE700BF0038024000127A000024F4003C
:10A28000140E0608F0B5446B8668A38923F40053C6
:10A290001B041B0CA3818579290201F4806C417990
:10A2A00001F001038907218A4FEA053289B221F4BE
:10A2B000405102F4005242EA01022282A289C5F30F
:10A2C000800722F4B0524FEA83034FEA073722F0A7
:10A2D0000C0248BF43F008034CEA07011204120CB9
:10A2E0000B431343A381A38A23F440731B041B0C69
:10A2F00085B0A3826846FFF77CFF204B9C4203D0C9
:10A3000003F580639C4237D1039BA289192117046E
:10A3100001FB03F34FF064014CBF7600B600B3FBC2
:10A32000F6F3B3FBF1F001FB10330201A089000446
:10A330004BBFDB001B01323332334BBFB3FBF1F3B6
:10A34000B3FBF1F303F0070303F00F0313439BB2D6
:10A350002381A38A2A0755BF23F008039BB21B045D
:10A3600043F0080358BF1B0CA382A3899BB243F49C
:10A370000053A38105B0F0BD029BC6E70010014069
:10A3800081607FE741717DE781717BE782B00023C7
:10A390000193054B0193019B03EB80030193019B08
:10A3A000196002B0704700BF50280040436D064A54
:10A3B0001A61C278012A06D100F2CC5058611A689D
:10A3C0004FF080221A6070471800086038B50446C4
:10A3D00000296CD190F81131022B28D1D0F8382106
:10A3E000D0F824118A422FD9C378012B02BFD0F8AC
:10A3F00028315B18C0F82831521AD0F82831C0F83B
:10A4000038214FF48071002592B2A0F81C11C0E9E8
:10A410004A33C0F83451C0F8302100F58E714EF047
:10A420009DFC2B462A46294620464EF0AFFD94F867
:10A430001631012B06D1234A236912695A60002381
:10A4400084F81631002038BDD0F83C31B3FBF1F56B
:10A4500001FB1535A5B9994212D8D0F84021934295
:10A460000ED24FF48073C0E94A55C0E94C55A0F8AC
:10A470001C3100F58E714EF071FCC4F84051D0E7EC
:10A48000D4F8E435DB682BB194F81221032A01D10A
:10A4900020469847052384F81131002320461A46A8
:10A4A00019464EF073FD2046FFF780FFBFE7D0F856
:10A4B000E4355B69002BC5D090F81221032AC1D185
:10A4C0009847BFE77029002070477047704710B564
:10A4D0000F4C94F8C231B3B14FF0E022D2F8103DE6
:10A4E00023F00603C2F8103DFFF7D6F9D4F8C831BF
:10A4F0009B68DB0707D5D4F8C422136823F0030157
:10A5000061F307031360034B4FF480225A6110BDBF
:10A5100070290020003C01402DE9F04FB04CD4F8E8
:10A52000C4315A69D0078BB000F194815A699B6994
:10A5300012EA030A00F08E81CAF307431AF4002FCF
:10A5400001930FD0D4F8C831DFF89C829E69DB6993
:10A550001E40360C04F5037904F5DC7B0027002E41
:10A5600040F07B81019B59070DD5D4F8C8319D4D32
:10A570009F69DB691F40BFB205F118064FF0000864
:10A58000002F40F0AB811AF0020F1FBF944BD3F89D
:10A59000C43102225A61BAF1000F5FFA8AF51BDA60
:10A5A0008F4B93F8C2213AB1D3F8C422136823F039
:10A5B000030161F307031360D4F8C8218948536885
:10A5C00023F001035360884BD3F8C8379847D4F879
:10A5D000C4314FF000425A611AF4006FCAF30726E3
:10A5E0002FD000238DF8173094F8CA328DF8173029
:10A5F0007D4B7C48D3F8C4379847D4F8C421D4F8AD
:10A60000C8314FF400619B68516194F8C221C2B116
:10A61000DB0716D594F8CD32012B12D19DF81730F7
:10A62000032B0ED1D4F8C4321A6842F001021A602A
:10A630001A6842F003021A606C4A136943F0060379
:10A6400013612F0708D5684B6648D3F8BC37984785
:10A65000D4F8C43108225A61ED0614D5D4F8C401E7
:10A66000836923F010038361036AC3F34341022922
:10A6700003F00F0200F0E781062900F00B828369E6
:10A6800043F010038361F00631D5D4F8C8516B68EC
:10A69000002723F001036B6038464CF0EFFD94F87F
:10A6A000B9C1534AB8463B46FF206345C0F000821B
:10A6B0004FF0FF33AB614FF00113EB610B2363F3FA
:10A6C000070763F307086F61C5F810802B684548DA
:10A6D00023F4FE632B60FFF769FED4F8C4314148D0
:10A6E0004FF480525A61404BD3F8C0379847B106B7
:10A6F0006DD5D4F8C861D4F8D021B3681168C3F31C
:10A700004103022B14BF0023032363F30A011160EA
:10A71000736843F48073736006A8FFF76AFDD4F88A
:10A72000C4510799E86820F47050E860B36813F0EA
:10A73000060FC3F3410200F0C2812E4B2E4A0B4498
:10A74000934240F2C0812D4AA1F57403A3F5105342
:10A75000934240F2BC812A4B2A4A0B449342C0F0F8
:10A76000BA81294AA1F18C73A3F54343934240F285
:10A77000B681264B264A0B449342C0F0B481254B48
:10A78000254A0B449342C0F0B281244AA1F1B77329
:10A79000A3F558539342C0F0AD81214B214A0B449D
:10A7A0009342C0F0AB81204B204E0B44012240214C
:10A7B000B34234BF06230523094E63F38D204FF4C3
:10A7C0000053E86086F8BA21A6F8BC116B61019BC2
:10A7D000DA0632D5044B0348D3F8CC37984727E044
:10A7E00070290020282B00200000002000ED00E050
:10A7F0003C2B0020401E1BFF3F420F00DFC8100013
:10A800002013FBFE20D61300FF69180000D3CEFEF4
:10A8100040771B00C05BB3FEC091210040AC270015
:10A82000C01D6AFE40E13300803C36FEE09C4100E2
:10A83000D4F8C4314FF480125A61019B9B0609D5AC
:10A84000B04BB148D3F8D0379847D4F8C4314FF45F
:10A8500000125A610BB0BDE8F08FF10737D5D9F877
:10A860000010D4F8C8318D685B691D40EA071ED519
:10A8700094F8BB310125AB428D6007D10969DBF843
:10A880007C33C1F312015B1ACBF88C33D8F8B037A4
:10A890009D48F9B2984794F8BB31012B07D137B9DD
:10A8A00094F8C932052B02D19748FFF77FFDAB071B
:10A8B00042BFD9F8003002259D60280707D5D8F897
:10A8C000B83791489847D9F8003008229A60013784
:10A8D000760809F104090BF1280B40E6FA0772D556
:10A8E000D4F8C83132681869D3F83490916829FADD
:10A8F00008F94FEAC9195FFA89F949EA000909EA32
:10A90000010919F0010F1FD0596B012000FA08F05E
:10A9100021EA000159637B4B7B48D3F8B4374FF0F1
:10A920000109C2F808905FFA88F1984794F8BB31A2
:10A930004B4509D1B8F1000F06D194F8C932042B68
:10A9400002D17148FFF732FD19F0080F1EBF3368BE
:10A950004FF00809C3F8089019F0100F1EBF3368B4
:10A960004FF01009C3F8089019F0400F1EBF33686C
:10A970004FF04009C3F8089019F0020F1EBF33686A
:10A980004FF00209C3F8089019F0800F1BD0D5E9E9
:10A990004C329B1AD5F82421D6F800B0934228BF38
:10A9A00013465A4ADBF8180092F8BBC1D2F8C89196
:10A9B00003339B080293029B80B2984203D9D5E9E6
:10A9C0004C03984205D808F101087F082835043661
:10A9D000D6E5C01AD5F82431984228BF1846C31CC2
:10A9E0009B080293BCF1000F1BD0D5F82811D5F8B5
:10A9F00034210144C5F82811D5F8301102448A42A7
:10AA0000DBF81800C5F83421D5D195F81C11D9F818
:10AA10003420012303FA01F122EA0102C9F83420AB
:10AA2000C9E782B2D6F8B810D5F828E103329310FE
:10AA300003930A466146039B8B42D6D05EF82130D1
:10AA400013600131F7E747F6F07119423FF417AE92
:10AA5000282101FB0241C3F30A13DD1CD4F888C28C
:10AA6000D1F83875AD1000218D420DD1282101FBA0
:10AA70000242D2F838151944C2F83815D2F84415F4
:10AA80001944C2F84415FAE5DCF800E047F821E083
:10AA90000131E9E7D4F888120D68C4F884570968D1
:10AAA000C4F88817282101FB0242C3F30A13E5E723
:10AAB00052F8041F8860D16B01338860F5E54FF4CC
:10AAC0000071092378E6012240210E2374E6012259
:10AAD00040210D2370E6012240210C236CE6012267
:10AAE00040210B2368E6012240210A2364E601226B
:10AAF0004021E6E70122402108235DE601224021B2
:10AB0000072359E600000020282B00207029002090
:10AB1000F0B59C0827010E46154600EB0414A04230
:10AB200006F1100605F1100508D103F003033944BE
:10AB30003A4404EB83039C4223D1F0BD84469CED50
:10AB4000006A16ED045AD0ED016A56ED037A90EDD5
:10AB5000027A56ED025A26EE056A66EEA76AD0ED35
:10AB6000037A05ED046A16ED016A45ED036A27EEE6
:10AB7000257A67EE867A103005ED027A45ED017A86
:10AB8000CDE7F4EC017AB1EC017A67EE877AE2EC7A
:10AB9000017AD0E74A09012350F8222001F01F0171
:10ABA0008B40134214BF01200020704710B54C09A0
:10ABB000012250F8243001F01F018A40134340F86D
:10ABC000243010BD70B54E09024400EB8604A24249
:10ABD00005464FF0FF300FD901F01F0100FA01F3D5
:10ABE00055F826100B4093FAA3F3B3FA83F3DBB2C4
:10ABF000202B02D003EB461070BD211D9142084668
:10AC000002D34FF0FF30F7E70368043193FAA3F360
:10AC1000B3FA83F3DBB2202BF0D0401B03EBC00070
:10AC2000EAE780EA0120082241F2210103B2002B69
:10AC3000B5BF81EA4303400098B280B2013AF5D132
:10AC4000704738B50C468D18AC4200D138BD14F8A9
:10AC5000011BFFF7E6FFF7E74840082243B2002B4D
:10AC6000BBBF5B0083F0D5034000D8B2A8BFC0B221
:10AC7000013AF3D1704738B50C468D18AC4200D17B
:10AC800038BD14F8011BFFF7E7FFF7E770B506685A
:10AC900005460C460020B44203D3731C2B60307071
:10ACA00070BD14F8011BFFF7D7FFF4E7DFED0A7A58
:10ACB000C0ED020A20EE270AB7EE007AC7EE007A4E
:10ACC00000230360C0ED017A70EEA77A80EEA77AC8
:10ACD00080ED037A704700BFDB0FC94090ED017A29
:10ACE000D0ED007AC0ED020A30EE877AC0EE876AB6
:10ACF00030EE677AE6EE877AB0EE670AC0ED007A4A
:10AD00007047012303700023C364836403650364F5
:10AD100043644365836283657047DFED157A80ED98
:10AD2000010AF4EEE70AF1EE10FAC0ED020A80ED36
:10AD3000031AC0ED051A18DDB4EEE70AF1EE10FAB9
:10AD400008DC9FED0C7A80ED047A80ED0F2AC0EDCF
:10AD50000E2AD6E781EE007AC0EE207AF0EE006A85
:10AD600077EE877A86EEA77AEDE700238360E8E73F
:10AD7000BD378635000000000F29A8BF0F2101292B
:10AD800070B5B8BF01214C00013400260460A40056
:10AD900005468160466022463146803054F04AFEC6
:10ADA0002246314605F58070BDE8704054F042BE41
:10ADB000FDEEC07A17EE903A2033402B43D8DFEDFA
:10ADC000237A9FED237AB4EEE70AF1EE10FA28DC3D
:10ADD000DFED207A9FED1E7AB4EEE70AF1EE10FA6D
:10ADE00022D4DFED1D7AB4EEE70AF1EE10FA1EDD93
:10ADF00030EE670A37EEC00A60EE007ADFED176AC0
:10AE00009FED177AA7EEA67ADFED166AE7EE876A5E
:10AE10009FED157AA7EEA67A20EE276AA6EE070A1E
:10AE2000704730EE470ACEE730EE070AD4E79FEDD1
:10AE30000F7AB4EEC70AF1EE10FA44BF30EE270ADB
:10AE400037EE400AD8E79FED0A0A7047DB0F49400A
:10AE5000DB0FC940DB0F49C0DB0FC93F9A7C2E36A0
:10AE6000FAAF4FB93587083CA4AA2ABEDB0FC9BF89
:10AE700000000000DFED027A30EE270A98E700BFFD
:10AE8000DB0FC93F10B51C46334BB3FBF2F39942BD
:10AE90009FED325AF0EE404AF7EE005A53D207EED9
:10AEA000901A9FED2F7ADFED2F6AF8EE677AF8EEB1
:10AEB000002A67EE877A07EE102AB8EE477A27EE67
:10AEC000267AC5EE876A87EEA64AB0EE440AFFF7F7
:10AED0006FFFF0EE403AB0EE440AFFF7CBFF74EE9E
:10AEE000A44A012C83EEA43A1CBF35EEC04AF6EE0C
:10AEF000006A33EE257A12BF64EE266AF0EE656AC8
:10AF000020EE224A86EE876AC4EE074A60EE227A75
:10AF100075EEC35AC7EE876AC5EE877AF0EE465AD9
:10AF2000C0ED005AC0ED014A80ED026AC0ED036A2F
:10AF3000C0ED047A80ED065A80ED055A80ED085A7E
:10AF400080ED075A10BDF0EE454AB0EE456AF0EECE
:10AF5000456AF0EE457AE3E720A107000000000013
:10AF6000DB0FC940BD378635B0EEE06AF0EEC07A3F
:10AF7000B4EEE76AF1EE10FAF0EE406A4BDCB5EEA3
:10AF8000400AF1EE10FA4BD0B4EEE76AF1EE10FA97
:10AF9000F0EE675A41D5B0EE465A85EE257ADFEDE0
:10AFA000225A9FED225ADFED224AA7EE255ADFED05
:10AFB000215AE5EE075A9FED205AA5EE875ADFED9C
:10AFC0001F5AE5EE075A9FED1E5AE7EE054AB7EE07
:10AFD000005AA4EE875AB1EE657A87EE050AB4EE00
:10AFE000E76AF1EE10FA48BFDFED167AF5EEC00A17
:10AFF00048BF37EEC00AF1EE10FA48BFDFED127A13
:10B00000F5EEC06A48BF37EEC00AF1EE10FA48BF4D
:10B01000B1EE400A7047F0EE465AB0EE675ABCE710
:10B020009FED0A7ABBE700BF39094E3DE3B59EBEEE
:10B0300069A2163E88FA16BE45FE7FBFA7DFA8B4F8
:10B0400099FB243FDB0FC93FDB0F494000000000A4
:10B0500044F25063984203DDA0F50C40A0387047DD
:10B06000034B9842BCBF00F50C40A030704700BFB6
:10B07000B0B9FFFF48F69F43984203DDA0F50C40AE
:10B08000A03870470028BCBF00F50C40A0307047C6
:10B0900091ED005A08B5B0EE450AFFF7EBFEF0EE71
:10B0A000405AB0EE450AFFF783FE91ED015AF0EEEB
:10B0B000404AB0EE450AFFF7DDFEF0EE403AB0EE52
:10B0C000450AFFF775FE91ED023AB0EE405AB0EE38
:10B0D000430AFFF7CFFEB0EE404AB0EE430AFFF757
:10B0E00067FE25EE806A63EEC07A24EE847AC0EDB6
:10B0F000017AF0EE467AE5EE077A25EE843A64EEC0
:10B10000806AC0ED037AF0EE437AE5EE667AA5EE4A
:10B11000067AE5EE436A23EE844A64EEE34A65EE7E
:10B12000A35A80ED004A80ED025AC0ED047AC0EDCA
:10B13000054AC0ED066A80ED077AC0ED085A08BDE1
:10B14000034600F1400100221A615A619A61DA61F6
:10B1500010338B42F8D11022002154F06BBC91EDDA
:10B16000007AD0ED047AE7EE077AC0ED047AD1EDEB
:10B17000006A91ED017AD0ED057AE6EE877AC0EDAE
:10B18000057AD1ED006A91ED027AD0ED067AE6EE0D
:10B19000877AC0ED067A91ED007AD0ED077A77EEE6
:10B1A000877AC0ED077AD1ED016A91ED007AD0ED92
:10B1B000087AE6EE877AC0ED087A91ED017AD0ED53
:10B1C000097AE7EE077AC0ED097AD1ED016A91EDCF
:10B1D000027AD0ED0A7AE6EE877AC0ED0A7A91ED2E
:10B1E000017AD0ED0B7A77EE877AC0ED0B7A91ED8C
:10B1F000007AD1ED026AD0ED0C7AE6EE877AC0EDE6
:10B200000C7AD1ED026A91ED017AD0ED0D7AE6EE7D
:10B21000877AC0ED0D7A91ED027AD0ED0E7AE7EEE5
:10B22000077AC0ED0E7A91ED027AD0ED0F7A77EEC3
:10B23000877AC0ED0F7A91ED007AD0ED107A77EE33
:10B24000877AC0ED107A91ED017AD0ED117A77EE20
:10B25000877AC0ED117A91ED027AD0ED127A77EE0D
:10B26000877AB7EE007AC0ED127AD0ED137A77EED6
:10B27000877AC0ED137AD1ED017AD1ED006A91EDB4
:10B28000027A67EEA77AE6EEA67AE7EE077A90ED05
:10B29000007AA6EEA77A80ED007AD1ED016A90EDF2
:10B2A000017AA6EEA77A80ED017AD1ED026A90EDDF
:10B2B000027AA6EEA77A80ED027A90ED037A77EE15
:10B2C000277AC0ED037A70472DE9F043034685B035
:10B2D00000F11007054600261C46AC4612E0F8ECCB
:10B2E000016A1EED047AD4ED007AE6EEC77AC4ED69
:10B2F000007A98450EF1100EF1D10434BC420CF1E5
:10B30000040C03D0A7F11008E646F2E701361C460C
:10B31000B646BEF1040F1DD000EB0E1CA84604F18A
:10B32000100907E0FCEC016A18ED047AE6EEC77A32
:10B33000C4ED047ACC45D4ED047A08F11008F1D1BB
:10B34000D3ED006A87EEA67A0EF1010E84ED047A41
:10B350006446DEE7042E03F1140305F1040507F14A
:10B360001007B9D1002300930193029303936C4615
:10B3700000231427F2EC017A00EB031507FB030C02
:10B380006E466545C4ED007A1FD10133042B04F1EC
:10B390000404EFD104AD103100F1400275ED017AE3
:10B3A00000EB03170E461446BC4241ED017A13D15F
:10B3B00052ED016A87EEA67A013BA2F1140221ED5B
:10B3C000017AEBD105B0BDE8F083F5EC016AB6EC8B
:10B3D000017AE6EEC77AD4E7F4EC016AB6EC017ABA
:10B3E000E6EEC77AE0E71FB50C4602466946103024
:10B3F000FFF76AFFDDED007AB6EE007A67EE877A36
:10B400000120C4ED007ADDED017A67EE877AC4EDA4
:10B41000017ADDED027A67EE877AC4ED027A04B034
:10B4200010BDF8B510EE100A10EE904A4EF0F4F987
:10B43000064620460F464EF0EFF9324604460D46CA
:10B440003B46304639464EF03FFA2246064601F169
:10B4500000472B46204629464EF036FA02460B4658
:10B460004EF07CF802460B46304639464EF056FB0D
:10B4700041EC100B4FF060FA51EC100B4EF01CFD3C
:10B4800000EE100AF8BDB5EEC00AF1EE10FA08B5EC
:10B4900006DB4FF083F9B4EE400AF1EE10FA01D763
:10B4A0009FED010A08BD00BF000000002DE9F0413A
:10B4B000044626461C3004F1640250ED017AB1ECDA
:10B4C000010A77EE807A40ED017AFDF7E9F918304C
:10B4D0009042F2D12C4F6268D7F8AC3825699B1A9C
:10B4E000A2680135934225612BD904F13008F36A33
:10B4F000012BC3BF03F1FF3307EE903A96ED0A7AB2
:10B500009FED220AC4BFF8EEE77A87EE270AFFF71D
:10B51000BAFF4645D4ED057A15D0F4EEC07AF1EEC7
:10B5200010FA06F11806E2D5237B4BBBD7F8AC28FE
:10B53000626000222361A261E36222636364A26409
:10B54000E365BDE8F081F4EEC07AF1EE10FAEBD4D9
:10B5500007EE905AD4ED066AF8EE677A022386EE7B
:10B56000A77AD4ED0C6A84ED067A86EEA77AD4ED3C
:10B57000126A84ED0C7A86EEA77A84ED127A00E0E6
:10B5800003232370DDE700BF7818002000000000CF
:10B5900070B52DED028B0378012B04463CD1056973
:10B5A000254E25B9426812B9D6F8AC28426094ED10
:10B5B000068A30EE088A013584ED068A256104F199
:10B5C0001C00FDF76DF96268D6F8AC389B1AA268CA
:10B5D000934221D9E36A012BC3BF03F1FF3307EE86
:10B5E000903A94ED0A7A9FED150AC4BFF8EEE77A17
:10B5F00087EE270AFFF747FFD4ED057AF4EEC07A0D
:10B60000F1EE10FA0ED5237B4BB9D6F8AC28626068
:10B6100000222361A261E362BDEC028B70BD0323B3
:10B620002370F9E707EE905AF8EE677A022388EE66
:10B63000277A84ED067AF3E77818002000000000EE
:10B6400008B52DED028BF0EEC08AB0EE408AB7EE61
:10B65000000A30EE680AFFF716FF9FED0E7ADFED65
:10B660000E7AE8EE877A9FED0D7AA7EEA87ADFEDE5
:10B670000C7AE7EE287AB5EEC08ABDEC028BF1EECB
:10B6800010FA20EE270A44BFDFED067A37EEC00A33
:10B6900008BD00BF306E99BC2716983D843459BE52
:10B6A000A40DC93FDB0F494060EEA00AE0EE000A9E
:10B6B000B0EE600AE7E660EEA00AE0EE000AE1EE16
:10B6C000010AB0EE600ADEE62DE9F74F90469DF8DC
:10B6D0003020002A0CBF4FF0200A4FF0300A0D9A9C
:10B6E0001C1E05460F46BABF64424FF0010B4FF0D7
:10B6F000000B12F8011B01B14CB9BBF1000F2DD1A9
:10B70000264636B9A1464FF0FF340D9E0FE0013CAE
:10B71000EFE7BD4202D251462846C047013EF0E75E
:10B72000BD4203D201922846C047019A16463246CE
:10B7300012F8011B0029F3D10D9BA9EB03094E441C
:10B74000BBF1000F06D0A146B9F1000F09DC002CB7
:10B75000A8BF3619304603B0BDE8F08F4FF000099E
:10B76000D3E7BD4202D251462846C04709F1FF390E
:10B77000EAE70FB437B50C4D06ABD5F8541853F8BB
:10B78000042BD5F8500801934DF0C2FC0446D5F8BF
:10B79000640105F000FF0028F9D0204603B0BDE8A1
:10B7A000304004B0704700BF702900200EB403B5CC
:10B7B00003AB084953F8042BCDE9003001A84DF044
:10B7C000A7FC019B00221A7002B05DF804EB03B0E5
:10B7D000704700BFF58800080CB430B52C4CD4F885
:10B7E0005838A5B01BB9D4F85C38002B3AD094F87F
:10B7F0006038994206D9012303FA00F0D4F864387E
:10B8000018422FD0234BD3F8AC184FF47A7304A806
:10B81000B1FBF3F203FB12131F49FFF7C7FF04ABA1
:10B820000344289A1D490393054629AB03A80293B4
:10B830004DF06EFC039B591C03910A211970039B68
:10B84000591C0391002119700246D4F8580890B190
:10B8500003685B6A03B19847D4F8585804AC14F8ED
:10B86000011B21B925B0BDE8304002B07047284621
:10B8700005F020FEF3E7D4F85C38002BF2D0154435
:10B880000222009204A9AA18FD2027F05DFDE9E735
:10B8900070290020781800206BB50608198600086A
:10B8A000184A38B5D2F86858033005EB9003B3F561
:10B8B000007F19D802F66C04C2F86838124A02EB0D
:10B8C000810120F0030051F88C2CC3F50073024471
:10B8D00041F88C2C9B000D4A0421002004EB8504C8
:10B8E000FFF77AFF204638BD0021094A0846FFF7D6
:10B8F00073FF084AD2F8A03043F00073C2F8A030BA
:10B900000024EFE770290020683A002077B5060888
:10B910009BB50608904101202DE9F0470368214FAF
:10B920000546002457F83420934213D11E4E06EBEF
:10B9300084094FEA8408D9F880A1BAF1000F21D117
:10B9400007216420FFF7ACFF0146C9F8800160B908
:10B95000164A04E001340E2CE4D1154A00210520DA
:10B96000FFF73AFF0020BDE8F0876422514654F00B
:10B9700061F8D9F8803107EBC407C3E90073DB61D4
:10B980005B63DB6446446879D6F88031182404FB95
:10B99000003200211046C2E9031195601175043090
:10B9A000E1E700BF2C0E060870290020CEB506087E
:10B9B000A9B5060803685A1C026019700368090AD1
:10B9C0005A1C02601970704703685A1C0260197093
:10B9D00003685A1C02600A0A1A7003685A1C026043
:10B9E0000A0C1A700368090E5A1C0260197070471D
:10B9F00038B504460068154651F0A6FF23682B446D
:10BA0000236038BD03685A1C0260187870470368C9
:10BA10005A1C02601A4612F8021B0260587841EA6A
:10BA200000207047026810B5531C0360134613F8DA
:10BA3000021B0360D31C5478036093781B0443EA11
:10BA400004230B43111D0160D07843EA006010BD50
:10BA5000D1E900329A4206D05A1C0A6008B11B781C
:10BA600003700120704700207047D1E900239B1A22
:10BA7000012B10B50446084604DDFFF7C8FF2080FF
:10BA8000012010BD0020FCE738B5054600242846FB
:10BA90004DF056FDA04200D838BD2B5DA3F16102E8
:10BAA000192A9CBF203B2B550134F0E730B50A44DE
:10BAB0000546914201D1002011E015F8013B11F833
:10BAC000014BA3F141001928A4F1410098BF203394
:10BAD000192898BF2034181B01D1002CE9D130BDA2
:10BAE0006FF00042E2E710B50388827803F00301AB
:10BAF0000C24013A04FB01221149847901EB420232
:10BB0000A3F5FA63B2F8AA2040F2B5519B0801FBF5
:10BB10000323C278013A13440279182101FB03235D
:10BB2000427900893C2101FB0322064B234401FB9F
:10BB300002334FF47A720021C3FB020110BD00BF33
:10BB4000140E060880436D38F8B5194604460023E4
:10BB500010464FF47A724EF00DFB244B3C25034403
:10BB600093FBF5F005FB103390FBF5F105FB11009D
:10BB700060711820A37191FBF0F300FB131140F2E8
:10BB8000B550217193FBF0F100FB1133B3F5896FD0
:10BB90004FEA810526DA40F2DA218B4224DCB3F544
:10BBA000B77FB4BF00200120114E182101FB0066B1
:10BBB0000B2136F811709F4201DD0139F9D105F5ED
:10BBC000FA65054425804D1CA5700C2505FB001168
:10BBD0000848228100EB41010133B1F8AA105B1A39
:10BBE000E370F8BD0320DFE70220DDE780BC92C7E9
:10BBF000BE0E0608140E0608F0B5294D07460E467F
:10BC00000FCD8DB06C460FC40FCD0FC495E80F005B
:10BC100084E80F0017F003033FD1642197FBF1F292
:10BC200001FB127242B94FF4C87297FBF2F302FBA8
:10BC30001373003B18BF01237A1EC3F11D03002AB2
:10BC4000019340F26D13114607FB03F3B8BFB91C13
:10BC500003EBA1036FF0630192FBF1F10B444FF48E
:10BC6000C87192FBF1F213442533072493FBF4F2DD
:10BC7000C2EBC2029B1A013E6D46002155F8040F2B
:10BC800001310344B14293FBF4F2C2EBC202A3EBD5
:10BC90000203F3D1C01A0DB0F0BD0123CCE700BF01
:10BCA000200F0608084BD3E9001251EA020309D01D
:10BCB000064BD3F8AC385B1842F10002C0E9003201
:10BCC0000120704700207047683A00207818002053
:10BCD00037B505466846FFF7E5FF044638B1DDE9AC
:10BCE00000232846FFF730FF204603B030BD40F266
:10BCF000011328806B80A880A8712881F4E737B5EC
:10BD00000546FFF7E5FF044648B1064B0DF1060274
:10BD10001B89ADF806302946284649F083F92046AC
:10BD200003B030BD683A0020F0B50124B0FBF4F553
:10BD30008D4203D200261CB91C70F0BD4C43F5E7C0
:10BD4000B0FBF4F5B4FBF1F704FB15002EB9002DA0
:10BD500003DC8C420CD33C46EDE7092D08DD002ABC
:10BD60000CBF572437242C4403F8014B0136F2E76B
:10BD70003024F8E703463038C2B2092A0FD9A3F1BC
:10BD80006102052A02D8A3F157007047A3F14102CE
:10BD9000052A02D8A3F1370070474FF0FF307047F3
:10BDA00070B50446944208461546B4FBF2F602D339
:10BDB0003046FFF7F5FF05FB1644024B1B5D00F80C
:10BDC000013B70BDE8B50608B5EEC00ADFED2D7A7F
:10BDD000F1EE10FACCBF30EE270A30EE670ADFED45
:10BDE0002A7A20EE270A30B5FDEEC07A87B017EE2A
:10BDF000904A054684EAE470002303A9A0EBE470AE
:10BE0000CDE9003302934BF029FA002CB4BF2D2367
:10BE1000202303A88DF800304DF092FB012822D199
:10BE200030238DF8013043F23003ADF8023003A91E
:10BE3000684654F071FD68464DF082FBC41EE4B2C2
:10BE400022466946284651F07FFD00232B550F49B5
:10BE5000284654F061FD0DEB0401284654F05CFDCA
:10BE6000284607B030BD022805D130238DF80130B7
:10BE70008DF80230DBE7032804BF30238DF8013052
:10BE8000D5E700BF6F12033A00007A449AE406082F
:10BE900030B50278202A034600F10100F9D0092AC2
:10BEA000F7D02D2A4BD10346BFEE000A9FED3C7A16
:10BEB0001A46F2EE046A134612F8010BA0F13001A3
:10BEC000CCB2092C41D92E280BD1F2EE046A1146CE
:10BED000B0EE666A0B4611F8012B303AD0B2092851
:10BEE0003CD91A7802F0DF02452A53D15A782D2A1C
:10BEF0003FD102330120013B00220A2513F8011F24
:10BF00003039CCB2092C3AD9B2F59A7F1346DFED1D
:10BF1000256A28BF4FF49A731A46F7EE007A072A6B
:10BF200030D8DA086FF0070101FB0233F2EE046A41
:10BF300063BB88B3C7EE276A20EE260A30BD2B2AE2
:10BF400008BF0346B7EE000AB0E707EE901AF8EE16
:10BF5000E77AE7EE267AB0EE677AACE707EE902A4A
:10BF6000F8EEE77AC7EEA65A66EE866A37EE257ACD
:10BF7000B0E72B2A14BF013302330020BBE705FBD7
:10BF80000212BBE767EEA67A083AC8E767EEA67A20
:10BF9000013BCDE7F7EE007A67EE276ACCE700BFFA
:10BFA0000000000020BCBE4C70B5034610F8012B09
:10BFB000202AFAD0092AF8D02D2A0ABF03460125E3
:10BFC0004FF0FF35591E00240A2611F8010FFFF724
:10BFD000D1FE092802D905FB04F070BD06FB04045C
:10BFE000F3E710B50023802804D893420AD2C8543E
:10BFF000581C10BD934205D060F07F04CC54C0099A
:10C000000133F0E74FF0FF30F3E7F8B5144D2B782C
:10C010007E2B22D1012229460020FEF712FE114F6D
:10C020006C1C228862B1A31DBB4216D2A618BE4268
:10C0300013D2052A11D92146FEF703FE3446F0E754
:10C0400002222146FEF7FDFD6388074AC31A043425
:10C05000641B584294815841F8BD0020FCE700BFA2
:10C060000040000800800008683A00202DE9F04FE9
:10C07000724BDFF8DCB18FB0A3EB0B02CDE90123EB
:10C080004FF00308102200210AA853F0D3FC019BB3
:10C090000993029B08936A4BCDF81CB01A69002AD9
:10C0A000BFBF684A5A6002F188325A600124F32205
:10C0B000DA604FF000097E23224604A907A88DF814
:10C0C0003440CDF830908DF81030FCF713FF484520
:10C0D000C0F2A180224604A94846FEF7B2FD5A4CA0
:10C0E000ADF81200594B9C423CD30024022205A912
:10C0F00007A8ADF81440FCF7FDFEA042C0F28B800B
:10C10000BDF81200022205A9FEF79BFD0222ADF840
:10C1100012000DF1120107A8FCF7ECFEA0427ADB39
:10C120000B9880B1079B089A0344934273D80AABDB
:10C13000C0F104022146184453F07CFC0AA907A868
:10C14000FCF734FE0C900C9B002B64DB9DF8342034
:10C1500022B13B490A6942F000420A61B3FA83F313
:10C160005B0959E062888DF81990C2F30B06B31D84
:10C17000ADF814302388C3F30B011B0B8DF8183076
:10C180001304ADF816101ED4062205A907A8FCF763
:10C19000B1FE00283FDBBDF81200062205A9FEF71C
:10C1A00050FD676805463246394607A8FCF7A2FEEF
:10C1B000002830DB324639462846FEF742FDADF80E
:10C1C000120014348EE700273D460135EDB20622F9
:10C1D00005A907A88DF81950FCF78CFE00281ADB7A
:10C1E000BDF81200062205A9FEF72BFD6168824604
:10C1F0003944324607A80391FCF77CFE00280ADB8D
:10C20000039932465046FEF71CFD032DADF812008F
:10C210003744DAD1D5E70023B8F1010808D0002B64
:10C220003FF430AFFFF7F1FE20B10FB0BDE8F08F63
:10C23000002BF7D1052005F0E2FA00BF00800008CE
:10C24000003C024023016745B8120708E0170708C1
:10C2500000400008024A136923EA00031361704793
:10C26000683A0020034606490648884201D3002068
:10C2700070470288C2F30B029342F9D01430F4E7FE
:10C28000E0170708B812070870B544880B46054642
:10C29000C4F30B0422460021184653F0CBFB296956
:10C2A000084A9142034607D3074A914205D22246E3
:10C2B000BDE8704051F048BB19B1BDE87040184668
:10C2C000084770BDE0170708D71C070810B4B0F97D
:10C2D00002404288002C0B4641685DF8044BBEBF0B
:10C2E000C2F30B02DBB203FB0211CDE730B5094B01
:10C2F000094CA34200D330BDB3F902205988002A6B
:10C3000006DA5A68DD68C1F30B0100FB01222A60DE
:10C310001433EEE7B8120708E017070830B50246F5
:10C320000144002012F8015B082480EA050343F36E
:10C33000000323F0730383EA5003D8B2631E13F0A3
:10C34000FF044FEA5505F0D19142EBD130BD154BBA
:10C3500003EB800370B5D3F82808F8B1124D0C2216
:10C3600002FB005292F91530591C18D0507FA8B129
:10C37000E9188C2491F86860117F0020142263432F
:10C380005C1805EB4404013AB4F86C40314410FAEF
:10C3900084F0F5D11423B0FBF3F080B270BD00201F
:10C3A000FCE700BF78180020683A002010B5427AF8
:10C3B000044632B10146406851F80A3B98470023D1
:10C3C000637210BD10B4447A621C0444D2B242724B
:10C3D000A172037A934202D85DF8044BE6E75DF858
:10C3E000044B704710B503681A79022A044602D13B
:10C3F000987A4CF061FA00232371236010BD37B5A1
:10C4000003460079022833D11C4A93F910301C4CA2
:10C410000092142202FB03431A4AD3F8C03F93420E
:10C4200028D0A2F57842934226D002F5806293424A
:10C430001ED101F108020DEB02011A8811F8085C07
:10C4400022F040021204120C14211A8001FB004455
:10C450001A88D4F8CC1F22F0380231F825101204C3
:10C46000120C0A431A801A8892B242F040021A80D3
:10C4700003B030BD0020DCE70120DAE70001020351
:10C480000000002000300140C36910B5044623B904
:10C4900009211420FFF704FAE061E06910BD10B52E
:10C4A00004460068FFF7F0FF8378CBB18388DBBADE
:10C4B00007EE903AF8EEE77AC4ED047AC388DBBA67
:10C4C00007EE903AF8EEE77AC4ED057A0389DBBA15
:10C4D00007EE903AF8EEE77A0120C4ED067A10BD37
:10C4E0001846FCE710B500680C46FFF7CDFF034681
:10C4F000807840B15B892222DBBA93FBF2F303F22E
:10C500006D132380012010BD0368DB6B13B5044657
:10C510002BB923685B6B3BB9FF23E38202E09847AA
:10C520000028F6D102B010BD214601A89847002886
:10C53000F2D0BDF80630013B9BB2EEE7036810B5C0
:10C540009B680446984701236374FF23A37410BDBE
:10C55000036810B504461B689847236820469B680B
:10C560009847E37C0133E37410BD036810B50446BB
:10C570005B689847236820469B689847E37C013BAB
:10C58000E37410BD2DE9F3410446184616460D46E6
:10C590001F464CF0D5FF2368E67328440022A073A1
:10C5A0000092D3F8148032463B4629462046C047C5
:10C5B00002B0BDE8F08130B5046885B0E469089D3B
:10C5C00034B10DB90DF10F050095A04705B030BD90
:10C5D0002046FBE703685B6A184703689B6A1847B5
:10C5E00010B5037B04460BB1437B13B92046FFF71C
:10C5F000F4FF23682046DB68BDE810401847036855
:10C600005B6C03B11847704738B504468B6801600E
:10C610000D4698470B4B2361002323752B6B13B1F9
:10C62000204698472075084B93F8B4331BB1237DFF
:10C6300023F0010323750023E3822046BDE8384040
:10C6400062E700BF0001FF00683A002003681B6832
:10C6500003B11847704703685B6803B11847704718
:10C6600003681B6A03B11847704703685B6A03B12C
:10C670001847704730B40468029DA46A1CB1029543
:10C68000A44630BC604730BC704730B40468029D9B
:10C69000E46A1CB10295A44630BC604730BC7047C8
:10C6A00003685B6C03B11847704703689B6C03B168
:10C6B0001847704703689B6F03B1184770470368BA
:10C6C000D3F8803003B1184770470368D3F884303B
:10C6D00003B1184770470368D3F8883003B118478F
:10C6E000704721B10B68D3F88C3003B11847002094
:10C6F000704738B5094C052303FB0044A13C0025D5
:10C70000013514F8010FEDB24CF009F8052DF7D101
:10C71000BDE8384000204CF002B800BF500F0608BA
:10C7200010B5441E14F8010F00B910BDFFF7E1FF6A
:10C73000F8E7FCF770BCFCF76EBCFCF76CBCFCF7D0
:10C740006ABCFCF768BCFCF766BC18B103689B6860
:10C7500003B11847002070470C4B93F8B52370B510
:10C7600006460D468AB9D3F8B84374B123681B68EE
:10C770005BB12046FFF7E9FF38B1236832461968FC
:10C7800020462B46BDE87040084770BD683A00203F
:10C790000120704718B103689B6803B11847002057
:10C7A00070470B4B70B5D3F8BC4306460D4674B1C9
:10C7B00023681B685BB12046FFF7ECFF38B12368A4
:10C7C0003246196820462B46BDE87040084770BDC8
:10C7D000683A0020034620B1026812B1D26902B162
:10C7E000104793ED017A084BB8EEC77AD3EDF16AA2
:10C7F000F6EE007AE7EE267AFDEEE77A17EE900A7B
:10C8000000F30B00704700BF683A0020034620B1D8
:10C81000026812B1126A02B1104793ED027A084B16
:10C82000B8EEC77AD3EDF26AF6EE007AE7EE267A32
:10C83000FDEEE77A17EE900A00F30B00704700BF99
:10C84000683A0020034628B102681AB1516A09B15A
:10C850009369184793ED037A074BB8EEC77AD3ED87
:10C86000F36AF6EE007AE7EE267AFDEEE77A17EE47
:10C87000900A00F30B007047683A00204FF47A7377
:10C8800000F50060584340F6FF7390FBF3F000F5AD
:10C890007A70B0F5FA6FA8BF4FF4FA60B0F57A7FFE
:10C8A000B8BF4FF47A70704710B5044630B10368D2
:10C8B00023B1DB6813B1BDE81040184704F04EFF08
:10C8C000D4E904239042994134BF0120002010BDD7
:10C8D00030B1036882881B691A4214BF012000200E
:10C8E000704710B1036882881A83704710B50446F8
:10C8F0004FF4FA7004F0F2FE6069BDE81040F0E712
:10C900002DE9F041104B164690F910200F461421E6
:10C9100001FB02330446D3F8C08F836813F002058D
:10C9200002D140694BF0C0FF394640464CF0D8FB7D
:10C93000314640464CF0D4FB15B92046FFF7D6FFF0
:10C940000120BDE8F08100BF000000202DE9F0418A
:10C9500015461E4690F91020104B0F46142101FB7E
:10C9600002330446D3F8C08F83689A0702D4406923
:10C970004BF09AFF394640464CF0B2FB33462A460C
:10C98000002140464CF060FBA3689B0702D4204680
:10C99000FFF7ACFF0120BDE8F08100BF00000020E0
:10C9A0002DE9F04115461E4690F91020104B0F4618
:10C9B000142101FB02330446D3F8C08F83689A0721
:10C9C00002D440694BF070FF394640464CF088FB7A
:10C9D00033460022294640464CF036FBA3689B07AD
:10C9E00002D42046FFF782FF0120BDE8F08100BF9E
:10C9F00000000020F8B5114B154690F910200E46A6
:10CA0000142101FB02330446D3F8C07F83689A07E0
:10CA100002D440694BF048FF314638464CF060FB89
:10CA200001230022294638464CF00EFBA3689B07E1
:10CA300002D42046FFF75AFF0120F8BD0000002075
:10CA400010B1036882885A83704773B50C46054657
:10CA500000B30668104B06F13F4202F57E0203EB7D
:10CA6000922393F8DF034AF0D7FBAB88009304F0DE
:10CA700003038DF80430C4F381038DF80530694653
:10CA8000C4F30013304664098DF806308DF8074072
:10CA9000FDF76AFB02B070BD140E0608F7B50C4630
:10CAA00015460746A8B306681B4B06F13F4202F540
:10CAB0007E0203EB922393F8DF034AF0ADFBB888C4
:10CAC0000090B0FA80F3C3F11F0303F00702C3F331
:10CAD000CC0306EB83039200196A0F27974021EAE3
:10CAE00007011962196A95400D431D6204F00303A2
:10CAF0008DF80430C4F381038DF805306946C4F322
:10CB00000013304664098DF806308DF80740FDF7B4
:10CB10002BFB03B0F0BD00BF140E060838B50409A6
:10CB2000013C032C00F00F0219D80E4D05EB440315
:10CB3000B3F8E61341FA02F313F001000ED001231B
:10CB40009340013B03EA0100254453F0F1FF95F8BF
:10CB5000EE33034404480C2202FB030038BD0020DE
:10CB6000FCE700BF140E0608383E00202DE9F04314
:10CB7000654F07EBC00985B005464FEAC00819F8B4
:10CB8000E40CFFF7CBFF064619F8E30CFFF7C6FFEE
:10CB9000044619F8E20C4AF03FFB6B1CDBB21EB1F5
:10CBA00040F60C12F28033721CB140F60C22E28087
:10CBB000237204223A213046FFF770FF20460422F8
:10CBC0003A21FFF76BFF07EB080353F8E84C4F4B94
:10CBD0009C4263D103F5F2331A6A42F400121A62DE
:10CBE0001A6A22F400121A62474417F8E13C022B39
:10CBF0006ED0032B6ED0464E464A012B18BF164608
:10CC0000A78827F03F0768463F04FDF7F2FA3F0C7C
:10CC1000029A414BB2FBF3F398B20743A7802188F5
:10CC200021F001010904090C21803C498E4253D1B5
:10CC30003B4BB2FBF3F2013091B2042980B238BF12
:10CC400004212084A18323889BB243F00103238025
:10CC5000238823F4816323F002031B041B0C43F499
:10CC6000806323804FF480432381238823F0800353
:10CC70001B041B0C238023889BB243F001032380F9
:10CC8000284B03EB4513012283F82126002283F869
:10CC9000205683F8222605B0BDE8F083224B9C4243
:10CCA00009D103F5F0331A6A42F480021A621A6A53
:10CCB00022F4800297E71D4B9C4295D103F5EE3399
:10CCC0001A6A42F400021A621A6A22F400028AE71F
:10CCD000124E95E7124E93E706EB4606B2FBF6F2CC
:10CCE00091B2C2F30B020AB941F001014FF49672FE
:10CCF00053434FF47A72B3FBF2F301339BB241F426
:10CD0000004123849EE700BFF8100020005400403B
:10CD100000350C00801A060040420F00A08601007A
:10CD2000400D0300683A002000580040005C0040BD
:10CD30002DE9F047B94E440106EB401904F00EFD11
:10CD400099F92026B64B8846D10003EBC20207466C
:10CD500052F8E85C99F82226013A142A00F28380FE
:10CD6000DFE812F079008900A100BA00C700D10005
:10CD7000DC00F40001010A0117016A018801BA010F
:10CD800011022402360241026102840215005F187A
:10CD90004FF0090A17F8E40CFFF7C0FE054617F834
:10CDA000E30CFFF7BBFEB6F8803601339BB20746B3
:10CDB0002846A6F88036FFF794FD3846FFF791FD28
:10CDC00011212846FFF741FE11213846FFF73DFEAD
:10CDD0004FF0650803E00520002104F0EBFC284635
:10CDE000FFF776FD10B9B8F10108F4D12846FFF736
:10CDF00027FE0021052004F0DDFC2846FFF771FD29
:10CE00000021052004F0D6FCBAF1010AE0D1284641
:10CE1000FFF716FE0021052004F0CCFC3846FFF792
:10CE20000FFE0021052004F0C5FC2846FFF759FD40
:10CE30000021052004F0BEFC3846FFF752FD3319EF
:10CE400093F92006431C01D0FFF790FE331900220E
:10CE500083F8222607E02B8813F4007340F0D28178
:10CE6000321982F82236331993F82236002B7FF4D8
:10CE700065AFBDE8F0872B8823F400631B041B0C0F
:10CE80002B802B889BB243F480632B802B889BB232
:10CE900043F480732B803319032283F82226614BDD
:10CEA0002344C3E9027860492846FBF706FA0028C4
:10CEB00000F0A881331993F832265AB993F8332633
:10CEC000FF2A04D193F830260AB10A22C0E73319A9
:10CED0000422BDE70F22BBE7321992F8313603F086
:10CEE000FE032B82052382F822364E4B2344C3E9EE
:10CEF00002784E492846FBF7E0F9002800F07A81D5
:10CF000033190622A4E7331993F833262A8207221D
:10CF100083F82226434B2344C3E902784449284638
:10CF2000FBF7CBF9002800F065813219D2F83436CE
:10CF300053B92B889BB243F400732B80394B2344A5
:10CF4000C3E9027801238CE708238AE72B889BB288
:10CF500043F480732B803319092283F82226314B46
:10CF60002344C3E9027830492846FBF7A6F9002894
:10CF700000F048813319A8E7321992F8313643F0AE
:10CF800001032B820B2382F82236264B2344C3E96C
:10CF9000027828492846FBF790F9002800F02A81FA
:10CFA0003319D3F83436012B1CD12B8823F480633A
:10CFB0001B041B0C2B80EFF31182102383F31288C8
:10CFC0002B8B2B889BB243F400732B80D3B283F35B
:10CFD00011880C23321982F82236124B2344C3E9FC
:10CFE000027840E7022B15D12B889BB243F40063F3
:10CFF0002B80EFF31182102383F312882B8B2B8865
:10D0000023F480631B041B0C2B80D3B283F31188A1
:10D010000D23DFE72B8B0E23DCE700BF683A0020EF
:10D02000F810002088400020010003008200070063
:10D03000840007000200030094492846FBF747F9E3
:10D04000934B002800F0DF8031192344D1F83826B3
:10D05000501CC1F83806288A1070D1F83426013ADD
:10D06000C1F834260122C3E9027881F83C2681F810
:10D070002226F8E687492846FBF729F9844B002841
:10D0800000F0C180EFF3118C102282F312882A88FD
:10D09000301992B2D0F8381642F400722A804A1C35
:10D0A000C0F838262A8A0A705FFA8CF282F3118857
:10D0B000D0F83826511CC0F83816298A11706FF044
:10D0C0000102C0F8342623440122C3E9027880F823
:10D0D0003C2680F82226C6E66E492846FBF7F7F87C
:10D0E0006B4B002800F08F803219D2F834160329D8
:10D0F0002AD1298821F480610904090C2980EFF3E1
:10D10000118C102181F31288D2F83806411CC2F824
:10D110003816298A0170298889B241F40071298062
:10D120005FFA8CF181F31188D2F83816481CC2F8E6
:10D130003806288A0870D2F834160239C2F8341634
:10D140000C2182F8221649E702290FD8298821F4F8
:10D1500080610904090C2980298889B241F4007191
:10D160002980298A002182F83C16E8E6D2F8381690
:10D17000481CC2F83806288A0870D2F834160139DB
:10D18000C2F834162AE72B8823F4806332191B0473
:10D190001B0C2B8092F8313603F0FE032B821023F8
:10D1A00082F822363A4B2344C3E902783A492846AA
:10D1B000FBF783F8F0B1331993F83326FF2A04D133
:10D1C00093F830260AB1132242E6331911223FE6C2
:10D1D000331993F833262A82122283F822262C4B05
:10D1E0002344C3E902782D492846FBF766F808B1C5
:10D1F0003319E8E72A492846FBF769F810B13319D3
:10D20000142225E6224B2344D3E9022342F2107173
:10D21000BA1A68EB03038A4273F10003FFF423AEEA
:10D220003319152214E63119194BD1F834268AB175
:10D23000D1F83806234410F801CBA5F810C0013A04
:10D24000C3E90278C1F83806C1F83426122381F800
:10D25000223608E62A8892B2234442F400722A80D9
:10D26000C3E90278012381F83C36F0E72B889BB2B2
:10D2700043F400732B804FF6FF33AB82044B2344FF
:10D28000C3E9027801223319E2E500BF4000001033
:10D29000884000200400001082000700840007007E
:10D2A0000004001038B5114C04EB401494F82156DA
:10D2B000D5B1C4F83436049BC4F83836002384F85A
:10D2C0003C360223490084F8332684F822360122B2
:10D2D0009DF8143084F8311684F8322684F83036FC
:10D2E000FFF726FD94F83C56284638BD683A0020E2
:10D2F000F7B50779012F16460BD0022F16D1846897
:10D30000E40758BF41F0800103B0BDE8F040FFF7EB
:10D310001DBB826802F00102CDE900620A46417C31
:10D3200090F91000FFF7BEFF03B0F0BD0020FBE74F
:10D330007FB50379012B0D460BD0022B1AD18368E0
:10D34000DB0758BF01F07F0104B0BDE87040FFF774
:10D35000D7BA81688DF80F2001F001010DF10F029D
:10D3600000920191417C90F910002A46FFF79AFF44
:10D3700004B070BD0020FBE70068F022FF21D7E772
:10D38000CB4341EA0311CAB20068D221D0E700685A
:10D39000B422FF21CCE70A460068A521C8E7552141
:10D3A000F9E700689622FF21C2E70A460068872154
:10D3B000BEE7CA01006802F080027821B8E7F8B53C
:10D3C000816B04682B4FB7FBF1F1054689B290F8E9
:10D3D000350047F0DBFD00214388B7FBF3F7064635
:10D3E0002F642046FFF70BF880226B212046FFF7C1
:10D3F0009FFF642004F0EEF9072268212046FFF722
:10D4000097FF642004F0E6F900226B212046FFF725
:10D410008FFF642004F0DEF901226B212046FFF724
:10D4200087FF0F2004F0D6F918221B212046FFF7B2
:10D430007FFF0F2004F0CEF918221C212046FFF7B1
:10D4400077FF0F2004F0C6F932791A212046FFF742
:10D450006FFF0F2004F0BEF9727919212046FFF703
:10D4600067FF642004F0B6F920460321BDE8F840C8
:10D47000FEF7C5BF40420F0000682E22F42157E797
:10D48000044B0068B3F858289201343202F0FC02D1
:10D49000F4214DE77818002008B53122F421006806
:10D4A000FFF746FF012008BD0068012258213FE731
:10D4B0000068012248213BE710B57822044600218C
:10D4C0000068FFF735FF052004F084F920220121D0
:10D4D0002068FFF72DFF052004F07CF900220221CF
:10D4E0002068FFF725FF642004F074F9012010BDC7
:10D4F00010B5072204460A210068FFF719FF05202E
:10D5000004F068F9242241212068FFF711FF05206B
:10D5100004F060F9C02242212068FFF709FF0520CE
:10D5200004F058F9012010BD10B504460022212155
:10D530000068FFF7FDFE2068FC222021FFF7F8FEBF
:10D54000206840222421FFF7F3FE20680C222321CB
:10D55000FFF7EEFE206800222221FFF7E9FE0120FE
:10D5600010BD10B50122044610210068FFF7E0FE4F
:10D5700040B1142004F02EF92068A022BDE810402C
:10D580001121D5E610BD10B5012204460B2100681B
:10D59000FFF7CEFE20B120681D220921FFF7C8FE4B
:10D5A00000F0010010BD044B0246D3F8840608B118
:10D5B0008021BDE6704700BF683A002010B5B0205A
:10D5C000FFF7F1FF4020FFF7EEFF0020FFF7EBFF32
:10D5D0001020FFF7E8FF4FF48064013C0020A4B264
:10D5E0004BF09DF8002CF8D110BD10B50446A1F108
:10D5F0005000C0B2FFF7D7FF04EB4400400004EB3B
:10D60000440400F00E00FFF7CEFFC4F3C300103057
:10D61000BDE81040C7E708B55038C0B2FFF7C3FFF8
:10D620000020FFF7C0FFBDE808401020BBE7054B16
:10D6300093F88F26D3F8880602F0F702002183F8CA
:10D640008F2675E6683A002038B5114C04EB40147B
:10D6500094F82156CDB1C4F83436049BC4F838365A
:10D660000223490084F8332684F8223600229DF8EC
:10D67000143084F8311684F8322684F83C2684F875
:10D680003036FFF755FB94F83C56284638BD00BFAE
:10D69000683A0020F7B50779012F16460BD0022F04
:10D6A00016D18468E40758BF41F0800103B0BDE89B
:10D6B000F040FFF775B9826802F00102CDE900621F
:10D6C0000A46417C90F91000FFF7BEFF03B0F0BDA1
:10D6D0000020FBE770B5066805463046FEF7D4FE2D
:10D6E0000E230446021D3B213046FFF7D3FFA070F6
:10D6F000B8B1A389DBBA07EE903AF8EEE77AC5ED48
:10D70000077AE389DBBA07EE903AF8EEE77AC5EDDF
:10D71000087A238ADBBA07EE903AF8EEE77AC5ED8D
:10D72000097A70BDF0B5816B0568504FB7FBF1F118
:10D7300085B0044689B290F8350047F027FC0021F7
:10D740004388B7FBF3F7064627642846FEF757FEE3
:10D7500080226B212846FFF7EBFD962004F03AF873
:10D76000032268212846FFF7E3FD962004F032F8F3
:10D7700003226B212846FFF7DBFD0F20002104F078
:10D7800019F810226A212846FFF7D2FD0F20002148
:10D7900004F010F800226C212846FFF7C9FD0F2085
:10D7A000002104F007F8727919212846FFF7C0FD1F
:10D7B0000F20002103F0FEFF18221B212846FFF74F
:10D7C000B7FD0F20002103F0F5FF18221C21284689
